{
  "_format": "hh-sol-artifact-1",
  "contractName": "FractionalDomain",
  "sourceName": "src/FractionalDomain.sol",
  "abi": [
    {
      "inputs": [],
      "stateMutability": "nonpayable",
      "type": "constructor"
    },
    {
      "anonymous": false,
      "inputs": [
        {
          "indexed": true,
          "internalType": "address",
          "name": "account",
          "type": "address"
        },
        {
          "indexed": true,
          "internalType": "address",
          "name": "operator",
          "type": "address"
        },
        {
          "indexed": false,
          "internalType": "bool",
          "name": "approved",
          "type": "bool"
        }
      ],
      "name": "ApprovalForAll",
      "type": "event"
    },
    {
      "anonymous": false,
      "inputs": [
        {
          "indexed": true,
          "internalType": "uint256",
          "name": "domainId",
          "type": "uint256"
        },
        {
          "indexed": false,
          "internalType": "string",
          "name": "domainName",
          "type": "string"
        },
        {
          "indexed": false,
          "internalType": "uint256",
          "name": "totalShares",
          "type": "uint256"
        },
        {
          "indexed": false,
          "internalType": "uint256",
          "name": "purchasePrice",
          "type": "uint256"
        }
      ],
      "name": "DomainFractionalized",
      "type": "event"
    },
    {
      "anonymous": false,
      "inputs": [
        {
          "indexed": true,
          "internalType": "address",
          "name": "previousOwner",
          "type": "address"
        },
        {
          "indexed": true,
          "internalType": "address",
          "name": "newOwner",
          "type": "address"
        }
      ],
      "name": "OwnershipTransferred",
      "type": "event"
    },
    {
      "anonymous": false,
      "inputs": [
        {
          "indexed": true,
          "internalType": "uint256",
          "name": "domainId",
          "type": "uint256"
        },
        {
          "indexed": true,
          "internalType": "address",
          "name": "claimer",
          "type": "address"
        },
        {
          "indexed": false,
          "internalType": "uint256",
          "name": "amount",
          "type": "uint256"
        }
      ],
      "name": "RevenueClaimed",
      "type": "event"
    },
    {
      "anonymous": false,
      "inputs": [
        {
          "indexed": true,
          "internalType": "uint256",
          "name": "domainId",
          "type": "uint256"
        },
        {
          "indexed": false,
          "internalType": "uint256",
          "name": "amount",
          "type": "uint256"
        }
      ],
      "name": "RevenueDeposited",
      "type": "event"
    },
    {
      "anonymous": false,
      "inputs": [
        {
          "indexed": true,
          "internalType": "uint256",
          "name": "domainId",
          "type": "uint256"
        },
        {
          "indexed": true,
          "internalType": "address",
          "name": "from",
          "type": "address"
        },
        {
          "indexed": true,
          "internalType": "address",
          "name": "to",
          "type": "address"
        },
        {
          "indexed": false,
          "internalType": "uint256",
          "name": "amount",
          "type": "uint256"
        }
      ],
      "name": "SharesTransferred",
      "type": "event"
    },
    {
      "anonymous": false,
      "inputs": [
        {
          "indexed": true,
          "internalType": "address",
          "name": "operator",
          "type": "address"
        },
        {
          "indexed": true,
          "internalType": "address",
          "name": "from",
          "type": "address"
        },
        {
          "indexed": true,
          "internalType": "address",
          "name": "to",
          "type": "address"
        },
        {
          "indexed": false,
          "internalType": "uint256[]",
          "name": "ids",
          "type": "uint256[]"
        },
        {
          "indexed": false,
          "internalType": "uint256[]",
          "name": "values",
          "type": "uint256[]"
        }
      ],
      "name": "TransferBatch",
      "type": "event"
    },
    {
      "anonymous": false,
      "inputs": [
        {
          "indexed": true,
          "internalType": "address",
          "name": "operator",
          "type": "address"
        },
        {
          "indexed": true,
          "internalType": "address",
          "name": "from",
          "type": "address"
        },
        {
          "indexed": true,
          "internalType": "address",
          "name": "to",
          "type": "address"
        },
        {
          "indexed": false,
          "internalType": "uint256",
          "name": "id",
          "type": "uint256"
        },
        {
          "indexed": false,
          "internalType": "uint256",
          "name": "value",
          "type": "uint256"
        }
      ],
      "name": "TransferSingle",
      "type": "event"
    },
    {
      "anonymous": false,
      "inputs": [
        {
          "indexed": false,
          "internalType": "string",
          "name": "value",
          "type": "string"
        },
        {
          "indexed": true,
          "internalType": "uint256",
          "name": "id",
          "type": "uint256"
        }
      ],
      "name": "URI",
      "type": "event"
    },
    {
      "inputs": [
        {
          "internalType": "address",
          "name": "account",
          "type": "address"
        },
        {
          "internalType": "uint256",
          "name": "id",
          "type": "uint256"
        }
      ],
      "name": "balanceOf",
      "outputs": [
        {
          "internalType": "uint256",
          "name": "",
          "type": "uint256"
        }
      ],
      "stateMutability": "view",
      "type": "function"
    },
    {
      "inputs": [
        {
          "internalType": "address[]",
          "name": "accounts",
          "type": "address[]"
        },
        {
          "internalType": "uint256[]",
          "name": "ids",
          "type": "uint256[]"
        }
      ],
      "name": "balanceOfBatch",
      "outputs": [
        {
          "internalType": "uint256[]",
          "name": "",
          "type": "uint256[]"
        }
      ],
      "stateMutability": "view",
      "type": "function"
    },
    {
      "inputs": [
        {
          "internalType": "uint256",
          "name": "domainId",
          "type": "uint256"
        }
      ],
      "name": "claimRevenue",
      "outputs": [],
      "stateMutability": "nonpayable",
      "type": "function"
    },
    {
      "inputs": [
        {
          "internalType": "uint256",
          "name": "domainId",
          "type": "uint256"
        }
      ],
      "name": "depositRevenue",
      "outputs": [],
      "stateMutability": "payable",
      "type": "function"
    },
    {
      "inputs": [
        {
          "internalType": "string",
          "name": "",
          "type": "string"
        }
      ],
      "name": "domainNameToId",
      "outputs": [
        {
          "internalType": "uint256",
          "name": "",
          "type": "uint256"
        }
      ],
      "stateMutability": "view",
      "type": "function"
    },
    {
      "inputs": [
        {
          "internalType": "uint256",
          "name": "",
          "type": "uint256"
        }
      ],
      "name": "domainRevenue",
      "outputs": [
        {
          "internalType": "uint256",
          "name": "",
          "type": "uint256"
        }
      ],
      "stateMutability": "view",
      "type": "function"
    },
    {
      "inputs": [
        {
          "internalType": "uint256",
          "name": "",
          "type": "uint256"
        }
      ],
      "name": "domains",
      "outputs": [
        {
          "internalType": "string",
          "name": "name",
          "type": "string"
        },
        {
          "internalType": "address",
          "name": "originalOwner",
          "type": "address"
        },
        {
          "internalType": "uint256",
          "name": "totalShares",
          "type": "uint256"
        },
        {
          "internalType": "uint256",
          "name": "purchasePrice",
          "type": "uint256"
        },
        {
          "internalType": "bool",
          "name": "isActive",
          "type": "bool"
        }
      ],
      "stateMutability": "view",
      "type": "function"
    },
    {
      "inputs": [
        {
          "internalType": "string",
          "name": "domainName",
          "type": "string"
        },
        {
          "internalType": "uint256",
          "name": "totalShares",
          "type": "uint256"
        },
        {
          "internalType": "uint256",
          "name": "purchasePrice",
          "type": "uint256"
        },
        {
          "internalType": "address[]",
          "name": "shareholders",
          "type": "address[]"
        },
        {
          "internalType": "uint256[]",
          "name": "shareAmounts",
          "type": "uint256[]"
        }
      ],
      "name": "fractionalizeDomain",
      "outputs": [
        {
          "internalType": "uint256",
          "name": "",
          "type": "uint256"
        }
      ],
      "stateMutability": "nonpayable",
      "type": "function"
    },
    {
      "inputs": [
        {
          "internalType": "uint256",
          "name": "domainId",
          "type": "uint256"
        },
        {
          "internalType": "address",
          "name": "account",
          "type": "address"
        }
      ],
      "name": "getClaimableRevenue",
      "outputs": [
        {
          "internalType": "uint256",
          "name": "",
          "type": "uint256"
        }
      ],
      "stateMutability": "view",
      "type": "function"
    },
    {
      "inputs": [
        {
          "internalType": "uint256",
          "name": "domainId",
          "type": "uint256"
        }
      ],
      "name": "getDomainInfo",
      "outputs": [
        {
          "internalType": "string",
          "name": "name",
          "type": "string"
        },
        {
          "internalType": "address",
          "name": "originalOwner",
          "type": "address"
        },
        {
          "internalType": "uint256",
          "name": "totalShares",
          "type": "uint256"
        },
        {
          "internalType": "uint256",
          "name": "purchasePrice",
          "type": "uint256"
        },
        {
          "internalType": "bool",
          "name": "isActive",
          "type": "bool"
        },
        {
          "internalType": "uint256",
          "name": "totalRevenue",
          "type": "uint256"
        }
      ],
      "stateMutability": "view",
      "type": "function"
    },
    {
      "inputs": [
        {
          "internalType": "address",
          "name": "account",
          "type": "address"
        },
        {
          "internalType": "address",
          "name": "operator",
          "type": "address"
        }
      ],
      "name": "isApprovedForAll",
      "outputs": [
        {
          "internalType": "bool",
          "name": "",
          "type": "bool"
        }
      ],
      "stateMutability": "view",
      "type": "function"
    },
    {
      "inputs": [],
      "name": "owner",
      "outputs": [
        {
          "internalType": "address",
          "name": "",
          "type": "address"
        }
      ],
      "stateMutability": "view",
      "type": "function"
    },
    {
      "inputs": [],
      "name": "renounceOwnership",
      "outputs": [],
      "stateMutability": "nonpayable",
      "type": "function"
    },
    {
      "inputs": [
        {
          "internalType": "uint256",
          "name": "",
          "type": "uint256"
        },
        {
          "internalType": "address",
          "name": "",
          "type": "address"
        }
      ],
      "name": "revenueClaimed",
      "outputs": [
        {
          "internalType": "uint256",
          "name": "",
          "type": "uint256"
        }
      ],
      "stateMutability": "view",
      "type": "function"
    },
    {
      "inputs": [
        {
          "internalType": "address",
          "name": "from",
          "type": "address"
        },
        {
          "internalType": "address",
          "name": "to",
          "type": "address"
        },
        {
          "internalType": "uint256[]",
          "name": "ids",
          "type": "uint256[]"
        },
        {
          "internalType": "uint256[]",
          "name": "amounts",
          "type": "uint256[]"
        },
        {
          "internalType": "bytes",
          "name": "data",
          "type": "bytes"
        }
      ],
      "name": "safeBatchTransferFrom",
      "outputs": [],
      "stateMutability": "nonpayable",
      "type": "function"
    },
    {
      "inputs": [
        {
          "internalType": "address",
          "name": "from",
          "type": "address"
        },
        {
          "internalType": "address",
          "name": "to",
          "type": "address"
        },
        {
          "internalType": "uint256",
          "name": "id",
          "type": "uint256"
        },
        {
          "internalType": "uint256",
          "name": "amount",
          "type": "uint256"
        },
        {
          "internalType": "bytes",
          "name": "data",
          "type": "bytes"
        }
      ],
      "name": "safeTransferFrom",
      "outputs": [],
      "stateMutability": "nonpayable",
      "type": "function"
    },
    {
      "inputs": [
        {
          "internalType": "address",
          "name": "operator",
          "type": "address"
        },
        {
          "internalType": "bool",
          "name": "approved",
          "type": "bool"
        }
      ],
      "name": "setApprovalForAll",
      "outputs": [],
      "stateMutability": "nonpayable",
      "type": "function"
    },
    {
      "inputs": [
        {
          "internalType": "string",
          "name": "newuri",
          "type": "string"
        }
      ],
      "name": "setURI",
      "outputs": [],
      "stateMutability": "nonpayable",
      "type": "function"
    },
    {
      "inputs": [
        {
          "internalType": "bytes4",
          "name": "interfaceId",
          "type": "bytes4"
        }
      ],
      "name": "supportsInterface",
      "outputs": [
        {
          "internalType": "bool",
          "name": "",
          "type": "bool"
        }
      ],
      "stateMutability": "view",
      "type": "function"
    },
    {
      "inputs": [
        {
          "internalType": "address",
          "name": "newOwner",
          "type": "address"
        }
      ],
      "name": "transferOwnership",
      "outputs": [],
      "stateMutability": "nonpayable",
      "type": "function"
    },
    {
      "inputs": [
        {
          "internalType": "uint256",
          "name": "",
          "type": "uint256"
        }
      ],
      "name": "uri",
      "outputs": [
        {
          "internalType": "string",
          "name": "",
          "type": "string"
        }
      ],
      "stateMutability": "view",
      "type": "function"
    }
  ],
  "bytecode": "0x6080346200019357606081016001600160401b038111828210176200017d57604052602a815260207f68747470733a2f2f6170692e646f6d616e7a6f2e78797a2f6d65746164617461818301526917bdb4b23e973539b7b760b11b6040830152600254916001928381811c9116801562000172575b838210146200015c57601f811162000127575b5081600260005282600020926000905b858183106200010f5750505001516001600160b01b0319169055605560025560038054336001600160a01b0319821681179092556040519291906001600160a01b03167f8be0079c531659141344cd1fd0a4f28419497f9722a3daafe3b4186f6b6457e0600080a360045561207a9081620001998239f35b84840151865590940193918201919081019062000097565b6002600052836002601f85600020930160051c830192015b8281106200014f57505062000087565b600081550184906200013f565b634e487b7160e01b600052602260045260246000fd5b90607f169062000074565b634e487b7160e01b600052604160045260246000fd5b600080fdfe6080604052600436101561001257600080fd5b60003560e01c8062fdd58e1461189257806301ffc9a71461182457806302fe5305146116ab5780630e89341c146115c95780631cb536ed146113b55780632eb2c2d6146110e55780634e1273f414610fa357806357e6173514610f5b57806366cf8fab14610edc578063715018a614610e7f5780637d760cac14610df15780638da5cb5b14610dc85780639d5fb39914610d6c578063a22cb46514610c88578063a5e9279a14610c5c578063bc1ca3e914610b9e578063d310295314610584578063e985e9c51461052e578063f242432a146101fe578063f2fde38b146101355763fca7095c1461010257600080fd5b346101305760403660031901126101305760206101286101206118cf565b600435611fb5565b604051908152f35b600080fd5b346101305760203660031901126101305761014e6118b9565b610156611ba7565b6001600160a01b039081169081156101aa57600354826bffffffffffffffffffffffff60a01b821617600355167f8be0079c531659141344cd1fd0a4f28419497f9722a3daafe3b4186f6b6457e0600080a3005b60405162461bcd60e51b815260206004820152602660248201527f4f776e61626c653a206e6577206f776e657220697320746865207a65726f206160448201526564647265737360d01b6064820152608490fd5b346101305760a0366003190112610130576102176118b9565b61021f6118cf565b90606435906044356084356001600160401b03811161013057610246903690600401611921565b926001600160a01b03928316923384148015610505575b61026690611cd3565b851693610274851515611d36565b61027d83611f00565b5061028782611f00565b5082600052602095600087526040600020856000528752826040600020546102b182821015611d90565b85600052600089526040600020876000528952036040600020558360005260008752604060002086600052875260406000206102ee848254611def565b90558585604051868152858a8201527fc3d58168c5ae7397731d063d5bbf3d657854427343f4c083240f7aacaa2d0f6260403392a43b6103a9575b5090919293826000526006815260406000209160ff60048401541661034a57005b60057f78dc4ab325d618a4100f0b44da2f25725cd94b780060f6b9e87065e9c0b12ebd9301856000528083526040600020610386838254611fa8565b9055866000528252604060002061039e828254611def565b9055604051908152a4005b6040518681806103e763f23a6e6160e01b9586835233600484015289602484015288604484015287606484015260a0608484015260a483019061198b565b038160008a5af1600091816104d6575b506104625786610405611e1c565b6308c379a01461042d575b60405162461bcd60e51b81528061042960048201611eab565b0390fd5b610435611e3a565b90816104415750610410565b61042960405192839262461bcd60e51b84526004840152602483019061198b565b63ffffffff60e09793949596971b1603610480579392919085610329565b60405162461bcd60e51b815260206004820152602860248201527f455243313135353a204552433131353552656365697665722072656a656374656044820152676420746f6b656e7360c01b6064820152608490fd5b6104f7919250883d8a116104fe575b6104ef81836118e5565b810190611dfc565b90886103f7565b503d6104e5565b5083600052600160205260406000203360005260205261026660ff60406000205416905061025d565b34610130576040366003190112610130576105476118b9565b61054f6118cf565b9060018060a01b03809116600052600160205260406000209116600052602052602060ff604060002054166040519015158152f35b346101305760a0366003190112610130576004356001600160401b038111610130576105b4903690600401611921565b6064356001600160401b038111610130576105d3903690600401611a25565b906084356001600160401b038111610130576105f39036906004016119c7565b6105fb611ba7565b8251815103610b655760405160208184516106198183858901611968565b8101600781520301902054610b2057600160055401908160055581600052600660205260406000209383516001600160401b0381116109715761065c8654611ac7565b601f8111610adc575b50806020601f8211600114610a7557600091610a6a575b508160011b916000199060031b1c19161785555b60018501336bffffffffffffffffffffffff60a01b8254161790556024356002860155604435600386015560048501600160ff198254161790558260405160208187516106e08183858c01611968565b81016007815203019020556000926000935b82518510156109cc576107058585611ca9565b5115610987576001600160a01b0361071d8685611ca9565b51166107298686611ca9565b5190604051918260208101106001600160401b0360208501111761097157602083016040526000835281156109225761076185611f00565b5061076b81611f00565b508460005260006020526040600020826000526020526040600020610791828254611def565b90558160006040518781528360208201527fc3d58168c5ae7397731d063d5bbf3d657854427343f4c083240f7aacaa2d0f6260403392a4813b610825575b50505061081961081f916107e38787611ca9565b516001600160a01b036107f68988611ca9565b511660005260058a016020526040600020556108128787611ca9565b5190611def565b94611c84565b936106f2565b9160209161086a93600060405180968195829463f23a6e6160e01b84523360048501528460248501528b6044850152606484015260a0608484015260a483019061198b565b03925af160009181610901575b506108de57610884611e1c565b6308c379a0146108a75760405162461bcd60e51b81528061042960048201611eab565b6108af611e3a565b806108ba5750610410565b60405162461bcd60e51b81526020600482015290819061042990602483019061198b565b6001600160e01b031916630dc5919f60e01b016104805761081961081f896107cf565b61091b91925060203d6020116104fe576104ef81836118e5565b9089610877565b60405162461bcd60e51b815260206004820152602160248201527f455243313135353a206d696e7420746f20746865207a65726f206164647265736044820152607360f81b6064820152608490fd5b634e487b7160e01b600052604160045260246000fd5b60405162461bcd60e51b815260206004820152601860248201527f536861726520616d6f756e74206d757374206265203e203000000000000000006044820152606490fd5b85925060243503610a2d57807f7ad2b36c235b623d0c955080de4118b00b34a1387ddb5519a5204d8494091eaa610a1360209460405191829160608352606083019061198b565b6024358783015260443560408301520390a2604051908152f35b60405162461bcd60e51b81526020600482015260156024820152740a8dee8c2d840e6d0c2e4cae640dad2e6dac2e8c6d605b1b6044820152606490fd5b90508501518761067c565b91508660005260206000206000925b601f1983168410610ac4576001935082601f19811610610aab575b5050811b018555610690565b87015160001960f88460031b161c191690558780610a9f565b87810151825560209384019360019092019101610a84565b866000526020600020601f830160051c810160208410610b19575b601f830160051c82018110610b0d575050610665565b60008155600101610af7565b5080610af7565b60405162461bcd60e51b815260206004820152601d60248201527f446f6d61696e20616c7265616479206672616374696f6e616c697a65640000006044820152606490fd5b60405162461bcd60e51b81526020600482015260116024820152704d69736d6174636865642061727261797360781b6044820152606490fd5b602036600319011261013057600435806000526006602052610bca60ff60046040600020015416611f35565b3415610c17578060005260086020526040600020610be9348254611def565b90557fb20d89f6552ecc9b6927807870a2e0a3ead94efac32d88ca11d3ff17b744aa906020604051348152a2005b60405162461bcd60e51b815260206004820152601960248201527f4d757374206465706f73697420736f6d6520726576656e7565000000000000006044820152606490fd5b346101305760203660031901126101305760043560005260086020526020604060002054604051908152f35b3461013057604036600319011261013057610ca16118b9565b60243590811515809203610130576001600160a01b031690338214610d1557336000526001602052604060002082600052602052604060002060ff1981541660ff83161790556040519081527f17307eab39ab6107e8899845ad3d59bd9653f200f220920489ca2b5937696c3160203392a3005b60405162461bcd60e51b815260206004820152602960248201527f455243313135353a2073657474696e6720617070726f76616c20737461747573604482015268103337b91039b2b63360b91b6064820152608490fd5b34610130576020366003190112610130576004356001600160401b03811161013057610db56020610da281933690600401611921565b8160405193828580945193849201611968565b8101600781520301902054604051908152f35b34610130576000366003190112610130576003546040516001600160a01b039091168152602090f35b34610130576020366003190112610130576004356000526006602052610e5f604060002060018060a01b03600182015416600282015491600381015460ff600483015416906008602052610e4a60406000205493611b01565b9460405196879660c0885260c088019061198b565b946020870152604086015260608501521515608084015260a08301520390f35b3461013057600036600319011261013057610e98611ba7565b600380546001600160a01b031981169091556000906001600160a01b03167f8be0079c531659141344cd1fd0a4f28419497f9722a3daafe3b4186f6b6457e08280a3005b34610130576020366003190112610130576004356000526006602052610f406040600020610f0981611b01565b9060018060a01b036001820154169060028101549060ff60046003830154920154169160405195869560a0875260a087019061198b565b93602086015260408501526060840152151560808301520390f35b3461013057604036600319011261013057610f746118cf565b600435600052600960205260406000209060018060a01b03166000526020526020604060002054604051908152f35b34610130576040366003190112610130576001600160401b0360043581811161013057610fd4903690600401611a25565b9060243590811161013057610fed9036906004016119c7565b90805182510361108e57805191611003836119b0565b9261101160405194856118e5565b808452611020601f19916119b0565b0136602085013760005b82518110156110745761106f9061105f6001600160a01b0361104c8387611ca9565b51166110588386611ca9565b5190611bff565b6110698287611ca9565b52611c84565b61102a565b6040516020808252819061108a90820187611a93565b0390f35b60405162461bcd60e51b815260206004820152602960248201527f455243313135353a206163636f756e747320616e6420696473206c656e677468604482015268040dad2e6dac2e8c6d60bb1b6064820152608490fd5b346101305760031960a036820112610130576110ff6118b9565b906111086118cf565b906001600160401b03906044358281116101305761112a9036906004016119c7565b606435838111610130576111429036906004016119c7565b926084359081116101305761115b903690600401611921565b6001600160a01b0395861695909290338714801561138c575b61117d90611cd3565b825185510361133657851692611194841515611d36565b60005b835181101561122d57806111ae6112289286611ca9565b516111b98289611ca9565b5190806000526020906000825260406000208c6000528252826040600020546111e482821015611d90565b82600052600084528d6040600020906000528452036040600020556000526000815260406000209088600052526112216040600020918254611def565b9055611c84565b611197565b509094939291938287604051604081527f4a39dc06d4c0dbc64b70af90fd698a233a518aa5d07e595d983b8c0526c8f7fb61126b604083018a611a93565b9180830360208201528061128033948b611a93565b0390a43b61128a57005b60006020946112eb6112dc976112cc94604051998a988997889663bc197c8160e01b9e8f89523360048a0152602489015260a0604489015260a4880190611a93565b9084878303016064880152611a93565b9184830301608485015261198b565b03925af160009181611316575b5061130557610884611e1c565b6001600160e01b0319160361048057005b61132f91925060203d81116104fe576104ef81836118e5565b90836112f8565b60405162461bcd60e51b815260206004820152602860248201527f455243313135353a2069647320616e6420616d6f756e7473206c656e677468206044820152670dad2e6dac2e8c6d60c31b6064820152608490fd5b5086600052600160205260406000203360005260205261117d60ff604060002054169050611174565b346101305760208060031936011261013057600435600260045414611584576002600455806000526006825260406000206113f660ff600483015416611f35565b6114008233611bff565b801561154d5790600261142361142c938560005260088752604060002054611f75565b91015490611f88565b918160005260098152604060002033600052815261144f60406000205484611fa8565b9283156115125782600052600982526040600020336000528252604060002055600080808086335af13d1561150d573d61148881611906565b9061149660405192836118e5565b81526000833d92013e5b156114d7577fb9e8470097faa00e83252475f2ee4b69007b0bb2405268ebec248676998a21b3906040519384523393a36001600455005b6064906040519062461bcd60e51b82526004820152600f60248201526e151c985b9cd9995c8819985a5b1959608a1b6044820152fd5b6114a0565b60405162461bcd60e51b81526004810183905260136024820152724e6f20726576656e756520746f20636c61696d60681b6044820152606490fd5b60405162461bcd60e51b815260048101859052600f60248201526e139bc81cda185c995cc81bdddb9959608a1b6044820152606490fd5b60405162461bcd60e51b815260048101839052601f60248201527f5265656e7472616e637947756172643a207265656e7472616e742063616c6c006044820152606490fd5b34610130576020806003193601126101305760405190600082600254916115ef83611ac7565b9283835260019085828216918260001461168b57505060011461162e575b5061161a925003836118e5565b61108a60405192828493845283019061198b565b84915060026000527f405787fa12a823e0f2b7631cc41b3ba8828b3321ca811111fa75cd3aa3bb5ace906000915b85831061167357505061161a93508201018561160d565b8054838901850152879450869390920191810161165c565b60ff19168582015261161a95151560051b850101925087915061160d9050565b3461013057602080600319360112610130576001600160401b03600435818111610130576116dd903690600401611921565b916116e6611ba7565b8251918211610971576116fa600254611ac7565b601f81116117c0575b5080601f831160011461173f57508192600092611734575b5050600019600383901b1c191660019190911b17600255005b01519050828061171b565b90601f1983169360026000527f405787fa12a823e0f2b7631cc41b3ba8828b3321ca811111fa75cd3aa3bb5ace926000905b8682106117a8575050836001951061178f575b505050811b01600255005b015160001960f88460031b161c19169055828080611784565b80600185968294968601518155019501930190611771565b60026000527f405787fa12a823e0f2b7631cc41b3ba8828b3321ca811111fa75cd3aa3bb5ace601f840160051c81019183851061181a575b601f0160051c01905b81811061180e5750611703565b60008155600101611801565b90915081906117f8565b346101305760203660031901126101305760043563ffffffff60e01b811680910361013057602090636cdb3d1360e11b8114908115611881575b8115611870575b506040519015158152f35b6301ffc9a760e01b14905082611865565b6303a24d0760e21b8114915061185e565b346101305760403660031901126101305760206101286118b06118b9565b60243590611bff565b600435906001600160a01b038216820361013057565b602435906001600160a01b038216820361013057565b90601f801991011681019081106001600160401b0382111761097157604052565b6001600160401b03811161097157601f01601f191660200190565b81601f820112156101305780359061193882611906565b9261194660405194856118e5565b8284526020838301011161013057816000926020809301838601378301015290565b60005b83811061197b5750506000910152565b818101518382015260200161196b565b906020916119a481518092818552858086019101611968565b601f01601f1916010190565b6001600160401b0381116109715760051b60200190565b81601f82011215610130578035916119de836119b0565b926119ec60405194856118e5565b808452602092838086019260051b820101928311610130578301905b828210611a16575050505090565b81358152908301908301611a08565b81601f8201121561013057803591611a3c836119b0565b92611a4a60405194856118e5565b808452602092838086019260051b820101928311610130578301905b828210611a74575050505090565b81356001600160a01b0381168103610130578152908301908301611a66565b90815180825260208080930193019160005b828110611ab3575050505090565b835185529381019392810192600101611aa5565b90600182811c92168015611af7575b6020831014611ae157565b634e487b7160e01b600052602260045260246000fd5b91607f1691611ad6565b9060405191826000825492611b1584611ac7565b908184526001948581169081600014611b845750600114611b41575b5050611b3f925003836118e5565b565b9093915060005260209081600020936000915b818310611b6c575050611b3f93508201013880611b31565b85548884018501529485019487945091830191611b54565b915050611b3f94506020925060ff191682840152151560051b8201013880611b31565b6003546001600160a01b03163303611bbb57565b606460405162461bcd60e51b815260206004820152602060248201527f4f776e61626c653a2063616c6c6572206973206e6f7420746865206f776e65726044820152fd5b6001600160a01b0316908115611c2c57600052600060205260406000209060005260205260406000205490565b60405162461bcd60e51b815260206004820152602a60248201527f455243313135353a2061646472657373207a65726f206973206e6f742061207660448201526930b634b21037bbb732b960b11b6064820152608490fd5b6000198114611c935760010190565b634e487b7160e01b600052601160045260246000fd5b8051821015611cbd5760209160051b010190565b634e487b7160e01b600052603260045260246000fd5b15611cda57565b60405162461bcd60e51b815260206004820152602e60248201527f455243313135353a2063616c6c6572206973206e6f7420746f6b656e206f776e60448201526d195c881bdc88185c1c1c9bdd995960921b6064820152608490fd5b15611d3d57565b60405162461bcd60e51b815260206004820152602560248201527f455243313135353a207472616e7366657220746f20746865207a65726f206164604482015264647265737360d81b6064820152608490fd5b15611d9757565b60405162461bcd60e51b815260206004820152602a60248201527f455243313135353a20696e73756666696369656e742062616c616e636520666f60448201526939103a3930b739b332b960b11b6064820152608490fd5b91908201809211611c9357565b9081602091031261013057516001600160e01b0319811681036101305790565b60009060033d11611e2957565b905060046000803e60005160e01c90565b600060443d10611e9757604051600319913d83016004833e81516001600160401b03918282113d602484011117611e9a57818401948551938411611ea2573d85010160208487010111611e9a5750611e97929101602001906118e5565b90565b949350505050565b50949350505050565b60809060208152603460208201527f455243313135353a207472616e7366657220746f206e6f6e2d455243313135356040820152732932b1b2b4bb32b91034b6b83632b6b2b73a32b960611b60608201520190565b60405190604082018281106001600160401b038211176109715760405260018252602082016020368237825115611cbd575290565b15611f3c57565b60405162461bcd60e51b8152602060048201526011602482015270446f6d61696e206e6f742061637469766560781b6044820152606490fd5b81810292918115918404141715611c9357565b8115611f92570490565b634e487b7160e01b600052601260045260246000fd5b91908203918211611c9357565b60009181835260066020526040832060ff6004820154161561203e57611fdb8383611bff565b908115612037576002611423611ffd9386885260086020526040882054611f75565b9183526009602090815260408085206001600160a01b039093168552919052822054908181111561203257611e979250611fa8565b505090565b5050505090565b5050509056fea2646970667358221220c18cb3dda425fb29559bab8e57bb236279e45a66fda3c115ad8f35182a6bda8c64736f6c63430008140033",
  "linkReferences": {},
  "deployedLinkReferences": {}
}