{"src/FractionalDomain.sol":{"FractionalDomain":{"abi":[{"inputs":[],"stateMutability":"nonpayable","type":"constructor"},{"anonymous":false,"inputs":[{"indexed":true,"internalType":"address","name":"account","type":"address"},{"indexed":true,"internalType":"address","name":"operator","type":"address"},{"indexed":false,"internalType":"bool","name":"approved","type":"bool"}],"name":"ApprovalForAll","type":"event"},{"anonymous":false,"inputs":[{"indexed":true,"internalType":"uint256","name":"domainId","type":"uint256"},{"indexed":false,"internalType":"string","name":"domainName","type":"string"},{"indexed":false,"internalType":"uint256","name":"totalShares","type":"uint256"},{"indexed":false,"internalType":"uint256","name":"purchasePrice","type":"uint256"}],"name":"DomainFractionalized","type":"event"},{"anonymous":false,"inputs":[{"indexed":true,"internalType":"address","name":"previousOwner","type":"address"},{"indexed":true,"internalType":"address","name":"newOwner","type":"address"}],"name":"OwnershipTransferred","type":"event"},{"anonymous":false,"inputs":[{"indexed":true,"internalType":"uint256","name":"domainId","type":"uint256"},{"indexed":true,"internalType":"address","name":"claimer","type":"address"},{"indexed":false,"internalType":"uint256","name":"amount","type":"uint256"}],"name":"RevenueClaimed","type":"event"},{"anonymous":false,"inputs":[{"indexed":true,"internalType":"uint256","name":"domainId","type":"uint256"},{"indexed":false,"internalType":"uint256","name":"amount","type":"uint256"}],"name":"RevenueDeposited","type":"event"},{"anonymous":false,"inputs":[{"indexed":true,"internalType":"uint256","name":"domainId","type":"uint256"},{"indexed":true,"internalType":"address","name":"from","type":"address"},{"indexed":true,"internalType":"address","name":"to","type":"address"},{"indexed":false,"internalType":"uint256","name":"amount","type":"uint256"}],"name":"SharesTransferred","type":"event"},{"anonymous":false,"inputs":[{"indexed":true,"internalType":"address","name":"operator","type":"address"},{"indexed":true,"internalType":"address","name":"from","type":"address"},{"indexed":true,"internalType":"address","name":"to","type":"address"},{"indexed":false,"internalType":"uint256[]","name":"ids","type":"uint256[]"},{"indexed":false,"internalType":"uint256[]","name":"values","type":"uint256[]"}],"name":"TransferBatch","type":"event"},{"anonymous":false,"inputs":[{"indexed":true,"internalType":"address","name":"operator","type":"address"},{"indexed":true,"internalType":"address","name":"from","type":"address"},{"indexed":true,"internalType":"address","name":"to","type":"address"},{"indexed":false,"internalType":"uint256","name":"id","type":"uint256"},{"indexed":false,"internalType":"uint256","name":"value","type":"uint256"}],"name":"TransferSingle","type":"event"},{"anonymous":false,"inputs":[{"indexed":false,"internalType":"string","name":"value","type":"string"},{"indexed":true,"internalType":"uint256","name":"id","type":"uint256"}],"name":"URI","type":"event"},{"inputs":[{"internalType":"address","name":"account","type":"address"},{"internalType":"uint256","name":"id","type":"uint256"}],"name":"balanceOf","outputs":[{"internalType":"uint256","name":"","type":"uint256"}],"stateMutability":"view","type":"function"},{"inputs":[{"internalType":"address[]","name":"accounts","type":"address[]"},{"internalType":"uint256[]","name":"ids","type":"uint256[]"}],"name":"balanceOfBatch","outputs":[{"internalType":"uint256[]","name":"","type":"uint256[]"}],"stateMutability":"view","type":"function"},{"inputs":[{"internalType":"uint256","name":"domainId","type":"uint256"}],"name":"claimRevenue","outputs":[],"stateMutability":"nonpayable","type":"function"},{"inputs":[{"internalType":"uint256","name":"domainId","type":"uint256"}],"name":"depositRevenue","outputs":[],"stateMutability":"payable","type":"function"},{"inputs":[{"internalType":"string","name":"","type":"string"}],"name":"domainNameToId","outputs":[{"internalType":"uint256","name":"","type":"uint256"}],"stateMutability":"view","type":"function"},{"inputs":[{"internalType":"uint256","name":"","type":"uint256"}],"name":"domainRevenue","outputs":[{"internalType":"uint256","name":"","type":"uint256"}],"stateMutability":"view","type":"function"},{"inputs":[{"internalType":"uint256","name":"","type":"uint256"}],"name":"domains","outputs":[{"internalType":"string","name":"name","type":"string"},{"internalType":"address","name":"originalOwner","type":"address"},{"internalType":"uint256","name":"totalShares","type":"uint256"},{"internalType":"uint256","name":"purchasePrice","type":"uint256"},{"internalType":"bool","name":"isActive","type":"bool"}],"stateMutability":"view","type":"function"},{"inputs":[{"internalType":"string","name":"domainName","type":"string"},{"internalType":"uint256","name":"totalShares","type":"uint256"},{"internalType":"uint256","name":"purchasePrice","type":"uint256"},{"internalType":"address[]","name":"shareholders","type":"address[]"},{"internalType":"uint256[]","name":"shareAmounts","type":"uint256[]"}],"name":"fractionalizeDomain","outputs":[{"internalType":"uint256","name":"","type":"uint256"}],"stateMutability":"nonpayable","type":"function"},{"inputs":[{"internalType":"uint256","name":"domainId","type":"uint256"},{"internalType":"address","name":"account","type":"address"}],"name":"getClaimableRevenue","outputs":[{"internalType":"uint256","name":"","type":"uint256"}],"stateMutability":"view","type":"function"},{"inputs":[{"internalType":"uint256","name":"domainId","type":"uint256"}],"name":"getDomainInfo","outputs":[{"internalType":"string","name":"name","type":"string"},{"internalType":"address","name":"originalOwner","type":"address"},{"internalType":"uint256","name":"totalShares","type":"uint256"},{"internalType":"uint256","name":"purchasePrice","type":"uint256"},{"internalType":"bool","name":"isActive","type":"bool"},{"internalType":"uint256","name":"totalRevenue","type":"uint256"}],"stateMutability":"view","type":"function"},{"inputs":[{"internalType":"address","name":"account","type":"address"},{"internalType":"address","name":"operator","type":"address"}],"name":"isApprovedForAll","outputs":[{"internalType":"bool","name":"","type":"bool"}],"stateMutability":"view","type":"function"},{"inputs":[],"name":"owner","outputs":[{"internalType":"address","name":"","type":"address"}],"stateMutability":"view","type":"function"},{"inputs":[],"name":"renounceOwnership","outputs":[],"stateMutability":"nonpayable","type":"function"},{"inputs":[{"internalType":"uint256","name":"","type":"uint256"},{"internalType":"address","name":"","type":"address"}],"name":"revenueClaimed","outputs":[{"internalType":"uint256","name":"","type":"uint256"}],"stateMutability":"view","type":"function"},{"inputs":[{"internalType":"address","name":"from","type":"address"},{"internalType":"address","name":"to","type":"address"},{"internalType":"uint256[]","name":"ids","type":"uint256[]"},{"internalType":"uint256[]","name":"amounts","type":"uint256[]"},{"internalType":"bytes","name":"data","type":"bytes"}],"name":"safeBatchTransferFrom","outputs":[],"stateMutability":"nonpayable","type":"function"},{"inputs":[{"internalType":"address","name":"from","type":"address"},{"internalType":"address","name":"to","type":"address"},{"internalType":"uint256","name":"id","type":"uint256"},{"internalType":"uint256","name":"amount","type":"uint256"},{"internalType":"bytes","name":"data","type":"bytes"}],"name":"safeTransferFrom","outputs":[],"stateMutability":"nonpayable","type":"function"},{"inputs":[{"internalType":"address","name":"operator","type":"address"},{"internalType":"bool","name":"approved","type":"bool"}],"name":"setApprovalForAll","outputs":[],"stateMutability":"nonpayable","type":"function"},{"inputs":[{"internalType":"string","name":"newuri","type":"string"}],"name":"setURI","outputs":[],"stateMutability":"nonpayable","type":"function"},{"inputs":[{"internalType":"bytes4","name":"interfaceId","type":"bytes4"}],"name":"supportsInterface","outputs":[{"internalType":"bool","name":"","type":"bool"}],"stateMutability":"view","type":"function"},{"inputs":[{"internalType":"address","name":"newOwner","type":"address"}],"name":"transferOwnership","outputs":[],"stateMutability":"nonpayable","type":"function"},{"inputs":[{"internalType":"uint256","name":"","type":"uint256"}],"name":"uri","outputs":[{"internalType":"string","name":"","type":"string"}],"stateMutability":"view","type":"function"}],"evm":{"bytecode":{"linkReferences":{},"object":"6080346200019357606081016001600160401b038111828210176200017d57604052602a815260207f68747470733a2f2f6170692e646f6d616e7a6f2e78797a2f6d65746164617461818301526917bdb4b23e973539b7b760b11b6040830152600254916001928381811c9116801562000172575b838210146200015c57601f811162000127575b5081600260005282600020926000905b858183106200010f5750505001516001600160b01b0319169055605560025560038054336001600160a01b0319821681179092556040519291906001600160a01b03167f8be0079c531659141344cd1fd0a4f28419497f9722a3daafe3b4186f6b6457e0600080a360045561207a9081620001998239f35b84840151865590940193918201919081019062000097565b6002600052836002601f85600020930160051c830192015b8281106200014f57505062000087565b600081550184906200013f565b634e487b7160e01b600052602260045260246000fd5b90607f169062000074565b634e487b7160e01b600052604160045260246000fd5b600080fdfe6080604052600436101561001257600080fd5b60003560e01c8062fdd58e1461189257806301ffc9a71461182457806302fe5305146116ab5780630e89341c146115c95780631cb536ed146113b55780632eb2c2d6146110e55780634e1273f414610fa357806357e6173514610f5b57806366cf8fab14610edc578063715018a614610e7f5780637d760cac14610df15780638da5cb5b14610dc85780639d5fb39914610d6c578063a22cb46514610c88578063a5e9279a14610c5c578063bc1ca3e914610b9e578063d310295314610584578063e985e9c51461052e578063f242432a146101fe578063f2fde38b146101355763fca7095c1461010257600080fd5b346101305760403660031901126101305760206101286101206118cf565b600435611fb5565b604051908152f35b600080fd5b346101305760203660031901126101305761014e6118b9565b610156611ba7565b6001600160a01b039081169081156101aa57600354826bffffffffffffffffffffffff60a01b821617600355167f8be0079c531659141344cd1fd0a4f28419497f9722a3daafe3b4186f6b6457e0600080a3005b60405162461bcd60e51b815260206004820152602660248201527f4f776e61626c653a206e6577206f776e657220697320746865207a65726f206160448201526564647265737360d01b6064820152608490fd5b346101305760a0366003190112610130576102176118b9565b61021f6118cf565b90606435906044356084356001600160401b03811161013057610246903690600401611921565b926001600160a01b03928316923384148015610505575b61026690611cd3565b851693610274851515611d36565b61027d83611f00565b5061028782611f00565b5082600052602095600087526040600020856000528752826040600020546102b182821015611d90565b85600052600089526040600020876000528952036040600020558360005260008752604060002086600052875260406000206102ee848254611def565b90558585604051868152858a8201527fc3d58168c5ae7397731d063d5bbf3d657854427343f4c083240f7aacaa2d0f6260403392a43b6103a9575b5090919293826000526006815260406000209160ff60048401541661034a57005b60057f78dc4ab325d618a4100f0b44da2f25725cd94b780060f6b9e87065e9c0b12ebd9301856000528083526040600020610386838254611fa8565b9055866000528252604060002061039e828254611def565b9055604051908152a4005b6040518681806103e763f23a6e6160e01b9586835233600484015289602484015288604484015287606484015260a0608484015260a483019061198b565b038160008a5af1600091816104d6575b506104625786610405611e1c565b6308c379a01461042d575b60405162461bcd60e51b81528061042960048201611eab565b0390fd5b610435611e3a565b90816104415750610410565b61042960405192839262461bcd60e51b84526004840152602483019061198b565b63ffffffff60e09793949596971b1603610480579392919085610329565b60405162461bcd60e51b815260206004820152602860248201527f455243313135353a204552433131353552656365697665722072656a656374656044820152676420746f6b656e7360c01b6064820152608490fd5b6104f7919250883d8a116104fe575b6104ef81836118e5565b810190611dfc565b90886103f7565b503d6104e5565b5083600052600160205260406000203360005260205261026660ff60406000205416905061025d565b34610130576040366003190112610130576105476118b9565b61054f6118cf565b9060018060a01b03809116600052600160205260406000209116600052602052602060ff604060002054166040519015158152f35b346101305760a0366003190112610130576004356001600160401b038111610130576105b4903690600401611921565b6064356001600160401b038111610130576105d3903690600401611a25565b906084356001600160401b038111610130576105f39036906004016119c7565b6105fb611ba7565b8251815103610b655760405160208184516106198183858901611968565b8101600781520301902054610b2057600160055401908160055581600052600660205260406000209383516001600160401b0381116109715761065c8654611ac7565b601f8111610adc575b50806020601f8211600114610a7557600091610a6a575b508160011b916000199060031b1c19161785555b60018501336bffffffffffffffffffffffff60a01b8254161790556024356002860155604435600386015560048501600160ff198254161790558260405160208187516106e08183858c01611968565b81016007815203019020556000926000935b82518510156109cc576107058585611ca9565b5115610987576001600160a01b0361071d8685611ca9565b51166107298686611ca9565b5190604051918260208101106001600160401b0360208501111761097157602083016040526000835281156109225761076185611f00565b5061076b81611f00565b508460005260006020526040600020826000526020526040600020610791828254611def565b90558160006040518781528360208201527fc3d58168c5ae7397731d063d5bbf3d657854427343f4c083240f7aacaa2d0f6260403392a4813b610825575b50505061081961081f916107e38787611ca9565b516001600160a01b036107f68988611ca9565b511660005260058a016020526040600020556108128787611ca9565b5190611def565b94611c84565b936106f2565b9160209161086a93600060405180968195829463f23a6e6160e01b84523360048501528460248501528b6044850152606484015260a0608484015260a483019061198b565b03925af160009181610901575b506108de57610884611e1c565b6308c379a0146108a75760405162461bcd60e51b81528061042960048201611eab565b6108af611e3a565b806108ba5750610410565b60405162461bcd60e51b81526020600482015290819061042990602483019061198b565b6001600160e01b031916630dc5919f60e01b016104805761081961081f896107cf565b61091b91925060203d6020116104fe576104ef81836118e5565b9089610877565b60405162461bcd60e51b815260206004820152602160248201527f455243313135353a206d696e7420746f20746865207a65726f206164647265736044820152607360f81b6064820152608490fd5b634e487b7160e01b600052604160045260246000fd5b60405162461bcd60e51b815260206004820152601860248201527f536861726520616d6f756e74206d757374206265203e203000000000000000006044820152606490fd5b85925060243503610a2d57807f7ad2b36c235b623d0c955080de4118b00b34a1387ddb5519a5204d8494091eaa610a1360209460405191829160608352606083019061198b565b6024358783015260443560408301520390a2604051908152f35b60405162461bcd60e51b81526020600482015260156024820152740a8dee8c2d840e6d0c2e4cae640dad2e6dac2e8c6d605b1b6044820152606490fd5b90508501518761067c565b91508660005260206000206000925b601f1983168410610ac4576001935082601f19811610610aab575b5050811b018555610690565b87015160001960f88460031b161c191690558780610a9f565b87810151825560209384019360019092019101610a84565b866000526020600020601f830160051c810160208410610b19575b601f830160051c82018110610b0d575050610665565b60008155600101610af7565b5080610af7565b60405162461bcd60e51b815260206004820152601d60248201527f446f6d61696e20616c7265616479206672616374696f6e616c697a65640000006044820152606490fd5b60405162461bcd60e51b81526020600482015260116024820152704d69736d6174636865642061727261797360781b6044820152606490fd5b602036600319011261013057600435806000526006602052610bca60ff60046040600020015416611f35565b3415610c17578060005260086020526040600020610be9348254611def565b90557fb20d89f6552ecc9b6927807870a2e0a3ead94efac32d88ca11d3ff17b744aa906020604051348152a2005b60405162461bcd60e51b815260206004820152601960248201527f4d757374206465706f73697420736f6d6520726576656e7565000000000000006044820152606490fd5b346101305760203660031901126101305760043560005260086020526020604060002054604051908152f35b3461013057604036600319011261013057610ca16118b9565b60243590811515809203610130576001600160a01b031690338214610d1557336000526001602052604060002082600052602052604060002060ff1981541660ff83161790556040519081527f17307eab39ab6107e8899845ad3d59bd9653f200f220920489ca2b5937696c3160203392a3005b60405162461bcd60e51b815260206004820152602960248201527f455243313135353a2073657474696e6720617070726f76616c20737461747573604482015268103337b91039b2b63360b91b6064820152608490fd5b34610130576020366003190112610130576004356001600160401b03811161013057610db56020610da281933690600401611921565b8160405193828580945193849201611968565b8101600781520301902054604051908152f35b34610130576000366003190112610130576003546040516001600160a01b039091168152602090f35b34610130576020366003190112610130576004356000526006602052610e5f604060002060018060a01b03600182015416600282015491600381015460ff600483015416906008602052610e4a60406000205493611b01565b9460405196879660c0885260c088019061198b565b946020870152604086015260608501521515608084015260a08301520390f35b3461013057600036600319011261013057610e98611ba7565b600380546001600160a01b031981169091556000906001600160a01b03167f8be0079c531659141344cd1fd0a4f28419497f9722a3daafe3b4186f6b6457e08280a3005b34610130576020366003190112610130576004356000526006602052610f406040600020610f0981611b01565b9060018060a01b036001820154169060028101549060ff60046003830154920154169160405195869560a0875260a087019061198b565b93602086015260408501526060840152151560808301520390f35b3461013057604036600319011261013057610f746118cf565b600435600052600960205260406000209060018060a01b03166000526020526020604060002054604051908152f35b34610130576040366003190112610130576001600160401b0360043581811161013057610fd4903690600401611a25565b9060243590811161013057610fed9036906004016119c7565b90805182510361108e57805191611003836119b0565b9261101160405194856118e5565b808452611020601f19916119b0565b0136602085013760005b82518110156110745761106f9061105f6001600160a01b0361104c8387611ca9565b51166110588386611ca9565b5190611bff565b6110698287611ca9565b52611c84565b61102a565b6040516020808252819061108a90820187611a93565b0390f35b60405162461bcd60e51b815260206004820152602960248201527f455243313135353a206163636f756e747320616e6420696473206c656e677468604482015268040dad2e6dac2e8c6d60bb1b6064820152608490fd5b346101305760031960a036820112610130576110ff6118b9565b906111086118cf565b906001600160401b03906044358281116101305761112a9036906004016119c7565b606435838111610130576111429036906004016119c7565b926084359081116101305761115b903690600401611921565b6001600160a01b0395861695909290338714801561138c575b61117d90611cd3565b825185510361133657851692611194841515611d36565b60005b835181101561122d57806111ae6112289286611ca9565b516111b98289611ca9565b5190806000526020906000825260406000208c6000528252826040600020546111e482821015611d90565b82600052600084528d6040600020906000528452036040600020556000526000815260406000209088600052526112216040600020918254611def565b9055611c84565b611197565b509094939291938287604051604081527f4a39dc06d4c0dbc64b70af90fd698a233a518aa5d07e595d983b8c0526c8f7fb61126b604083018a611a93565b9180830360208201528061128033948b611a93565b0390a43b61128a57005b60006020946112eb6112dc976112cc94604051998a988997889663bc197c8160e01b9e8f89523360048a0152602489015260a0604489015260a4880190611a93565b9084878303016064880152611a93565b9184830301608485015261198b565b03925af160009181611316575b5061130557610884611e1c565b6001600160e01b0319160361048057005b61132f91925060203d81116104fe576104ef81836118e5565b90836112f8565b60405162461bcd60e51b815260206004820152602860248201527f455243313135353a2069647320616e6420616d6f756e7473206c656e677468206044820152670dad2e6dac2e8c6d60c31b6064820152608490fd5b5086600052600160205260406000203360005260205261117d60ff604060002054169050611174565b346101305760208060031936011261013057600435600260045414611584576002600455806000526006825260406000206113f660ff600483015416611f35565b6114008233611bff565b801561154d5790600261142361142c938560005260088752604060002054611f75565b91015490611f88565b918160005260098152604060002033600052815261144f60406000205484611fa8565b9283156115125782600052600982526040600020336000528252604060002055600080808086335af13d1561150d573d61148881611906565b9061149660405192836118e5565b81526000833d92013e5b156114d7577fb9e8470097faa00e83252475f2ee4b69007b0bb2405268ebec248676998a21b3906040519384523393a36001600455005b6064906040519062461bcd60e51b82526004820152600f60248201526e151c985b9cd9995c8819985a5b1959608a1b6044820152fd5b6114a0565b60405162461bcd60e51b81526004810183905260136024820152724e6f20726576656e756520746f20636c61696d60681b6044820152606490fd5b60405162461bcd60e51b815260048101859052600f60248201526e139bc81cda185c995cc81bdddb9959608a1b6044820152606490fd5b60405162461bcd60e51b815260048101839052601f60248201527f5265656e7472616e637947756172643a207265656e7472616e742063616c6c006044820152606490fd5b34610130576020806003193601126101305760405190600082600254916115ef83611ac7565b9283835260019085828216918260001461168b57505060011461162e575b5061161a925003836118e5565b61108a60405192828493845283019061198b565b84915060026000527f405787fa12a823e0f2b7631cc41b3ba8828b3321ca811111fa75cd3aa3bb5ace906000915b85831061167357505061161a93508201018561160d565b8054838901850152879450869390920191810161165c565b60ff19168582015261161a95151560051b850101925087915061160d9050565b3461013057602080600319360112610130576001600160401b03600435818111610130576116dd903690600401611921565b916116e6611ba7565b8251918211610971576116fa600254611ac7565b601f81116117c0575b5080601f831160011461173f57508192600092611734575b5050600019600383901b1c191660019190911b17600255005b01519050828061171b565b90601f1983169360026000527f405787fa12a823e0f2b7631cc41b3ba8828b3321ca811111fa75cd3aa3bb5ace926000905b8682106117a8575050836001951061178f575b505050811b01600255005b015160001960f88460031b161c19169055828080611784565b80600185968294968601518155019501930190611771565b60026000527f405787fa12a823e0f2b7631cc41b3ba8828b3321ca811111fa75cd3aa3bb5ace601f840160051c81019183851061181a575b601f0160051c01905b81811061180e5750611703565b60008155600101611801565b90915081906117f8565b346101305760203660031901126101305760043563ffffffff60e01b811680910361013057602090636cdb3d1360e11b8114908115611881575b8115611870575b506040519015158152f35b6301ffc9a760e01b14905082611865565b6303a24d0760e21b8114915061185e565b346101305760403660031901126101305760206101286118b06118b9565b60243590611bff565b600435906001600160a01b038216820361013057565b602435906001600160a01b038216820361013057565b90601f801991011681019081106001600160401b0382111761097157604052565b6001600160401b03811161097157601f01601f191660200190565b81601f820112156101305780359061193882611906565b9261194660405194856118e5565b8284526020838301011161013057816000926020809301838601378301015290565b60005b83811061197b5750506000910152565b818101518382015260200161196b565b906020916119a481518092818552858086019101611968565b601f01601f1916010190565b6001600160401b0381116109715760051b60200190565b81601f82011215610130578035916119de836119b0565b926119ec60405194856118e5565b808452602092838086019260051b820101928311610130578301905b828210611a16575050505090565b81358152908301908301611a08565b81601f8201121561013057803591611a3c836119b0565b92611a4a60405194856118e5565b808452602092838086019260051b820101928311610130578301905b828210611a74575050505090565b81356001600160a01b0381168103610130578152908301908301611a66565b90815180825260208080930193019160005b828110611ab3575050505090565b835185529381019392810192600101611aa5565b90600182811c92168015611af7575b6020831014611ae157565b634e487b7160e01b600052602260045260246000fd5b91607f1691611ad6565b9060405191826000825492611b1584611ac7565b908184526001948581169081600014611b845750600114611b41575b5050611b3f925003836118e5565b565b9093915060005260209081600020936000915b818310611b6c575050611b3f93508201013880611b31565b85548884018501529485019487945091830191611b54565b915050611b3f94506020925060ff191682840152151560051b8201013880611b31565b6003546001600160a01b03163303611bbb57565b606460405162461bcd60e51b815260206004820152602060248201527f4f776e61626c653a2063616c6c6572206973206e6f7420746865206f776e65726044820152fd5b6001600160a01b0316908115611c2c57600052600060205260406000209060005260205260406000205490565b60405162461bcd60e51b815260206004820152602a60248201527f455243313135353a2061646472657373207a65726f206973206e6f742061207660448201526930b634b21037bbb732b960b11b6064820152608490fd5b6000198114611c935760010190565b634e487b7160e01b600052601160045260246000fd5b8051821015611cbd5760209160051b010190565b634e487b7160e01b600052603260045260246000fd5b15611cda57565b60405162461bcd60e51b815260206004820152602e60248201527f455243313135353a2063616c6c6572206973206e6f7420746f6b656e206f776e60448201526d195c881bdc88185c1c1c9bdd995960921b6064820152608490fd5b15611d3d57565b60405162461bcd60e51b815260206004820152602560248201527f455243313135353a207472616e7366657220746f20746865207a65726f206164604482015264647265737360d81b6064820152608490fd5b15611d9757565b60405162461bcd60e51b815260206004820152602a60248201527f455243313135353a20696e73756666696369656e742062616c616e636520666f60448201526939103a3930b739b332b960b11b6064820152608490fd5b91908201809211611c9357565b9081602091031261013057516001600160e01b0319811681036101305790565b60009060033d11611e2957565b905060046000803e60005160e01c90565b600060443d10611e9757604051600319913d83016004833e81516001600160401b03918282113d602484011117611e9a57818401948551938411611ea2573d85010160208487010111611e9a5750611e97929101602001906118e5565b90565b949350505050565b50949350505050565b60809060208152603460208201527f455243313135353a207472616e7366657220746f206e6f6e2d455243313135356040820152732932b1b2b4bb32b91034b6b83632b6b2b73a32b960611b60608201520190565b60405190604082018281106001600160401b038211176109715760405260018252602082016020368237825115611cbd575290565b15611f3c57565b60405162461bcd60e51b8152602060048201526011602482015270446f6d61696e206e6f742061637469766560781b6044820152606490fd5b81810292918115918404141715611c9357565b8115611f92570490565b634e487b7160e01b600052601260045260246000fd5b91908203918211611c9357565b60009181835260066020526040832060ff6004820154161561203e57611fdb8383611bff565b908115612037576002611423611ffd9386885260086020526040882054611f75565b9183526009602090815260408085206001600160a01b039093168552919052822054908181111561203257611e979250611fa8565b505090565b5050505090565b5050509056fea2646970667358221220c18cb3dda425fb29559bab8e57bb236279e45a66fda3c115ad8f35182a6bda8c64736f6c63430008140033","opcodes":"PUSH1 0x80 CALLVALUE PUSH3 0x193 JUMPI PUSH1 0x60 DUP2 ADD PUSH1 0x1 PUSH1 0x1 PUSH1 0x40 SHL SUB DUP2 GT DUP3 DUP3 LT OR PUSH3 0x17D JUMPI PUSH1 0x40 MSTORE PUSH1 0x2A DUP2 MSTORE PUSH1 0x20 PUSH32 0x68747470733A2F2F6170692E646F6D616E7A6F2E78797A2F6D65746164617461 DUP2 DUP4 ADD MSTORE PUSH10 0x17BDB4B23E973539B7B7 PUSH1 0xB1 SHL PUSH1 0x40 DUP4 ADD MSTORE PUSH1 0x2 SLOAD SWAP2 PUSH1 0x1 SWAP3 DUP4 DUP2 DUP2 SHR SWAP2 AND DUP1 ISZERO PUSH3 0x172 JUMPI JUMPDEST DUP4 DUP3 LT EQ PUSH3 0x15C JUMPI PUSH1 0x1F DUP2 GT PUSH3 0x127 JUMPI JUMPDEST POP DUP2 PUSH1 0x2 PUSH1 0x0 MSTORE DUP3 PUSH1 0x0 KECCAK256 SWAP3 PUSH1 0x0 SWAP1 JUMPDEST DUP6 DUP2 DUP4 LT PUSH3 0x10F JUMPI POP POP POP ADD MLOAD PUSH1 0x1 PUSH1 0x1 PUSH1 0xB0 SHL SUB NOT AND SWAP1 SSTORE PUSH1 0x55 PUSH1 0x2 SSTORE PUSH1 0x3 DUP1 SLOAD CALLER PUSH1 0x1 PUSH1 0x1 PUSH1 0xA0 SHL SUB NOT DUP3 AND DUP2 OR SWAP1 SWAP3 SSTORE PUSH1 0x40 MLOAD SWAP3 SWAP2 SWAP1 PUSH1 0x1 PUSH1 0x1 PUSH1 0xA0 SHL SUB AND PUSH32 0x8BE0079C531659141344CD1FD0A4F28419497F9722A3DAAFE3B4186F6B6457E0 PUSH1 0x0 DUP1 LOG3 PUSH1 0x4 SSTORE PUSH2 0x207A SWAP1 DUP2 PUSH3 0x199 DUP3 CODECOPY RETURN JUMPDEST DUP5 DUP5 ADD MLOAD DUP7 SSTORE SWAP1 SWAP5 ADD SWAP4 SWAP2 DUP3 ADD SWAP2 SWAP1 DUP2 ADD SWAP1 PUSH3 0x97 JUMP JUMPDEST PUSH1 0x2 PUSH1 0x0 MSTORE DUP4 PUSH1 0x2 PUSH1 0x1F DUP6 PUSH1 0x0 KECCAK256 SWAP4 ADD PUSH1 0x5 SHR DUP4 ADD SWAP3 ADD JUMPDEST DUP3 DUP2 LT PUSH3 0x14F JUMPI POP POP PUSH3 0x87 JUMP JUMPDEST PUSH1 0x0 DUP2 SSTORE ADD DUP5 SWAP1 PUSH3 0x13F JUMP JUMPDEST PUSH4 0x4E487B71 PUSH1 0xE0 SHL PUSH1 0x0 MSTORE PUSH1 0x22 PUSH1 0x4 MSTORE PUSH1 0x24 PUSH1 0x0 REVERT JUMPDEST SWAP1 PUSH1 0x7F AND SWAP1 PUSH3 0x74 JUMP JUMPDEST PUSH4 0x4E487B71 PUSH1 0xE0 SHL PUSH1 0x0 MSTORE PUSH1 0x41 PUSH1 0x4 MSTORE PUSH1 0x24 PUSH1 0x0 REVERT JUMPDEST PUSH1 0x0 DUP1 REVERT INVALID PUSH1 0x80 PUSH1 0x40 MSTORE PUSH1 0x4 CALLDATASIZE LT ISZERO PUSH2 0x12 JUMPI PUSH1 0x0 DUP1 REVERT JUMPDEST PUSH1 0x0 CALLDATALOAD PUSH1 0xE0 SHR DUP1 PUSH3 0xFDD58E EQ PUSH2 0x1892 JUMPI DUP1 PUSH4 0x1FFC9A7 EQ PUSH2 0x1824 JUMPI DUP1 PUSH4 0x2FE5305 EQ PUSH2 0x16AB JUMPI DUP1 PUSH4 0xE89341C EQ PUSH2 0x15C9 JUMPI DUP1 PUSH4 0x1CB536ED EQ PUSH2 0x13B5 JUMPI DUP1 PUSH4 0x2EB2C2D6 EQ PUSH2 0x10E5 JUMPI DUP1 PUSH4 0x4E1273F4 EQ PUSH2 0xFA3 JUMPI DUP1 PUSH4 0x57E61735 EQ PUSH2 0xF5B JUMPI DUP1 PUSH4 0x66CF8FAB EQ PUSH2 0xEDC JUMPI DUP1 PUSH4 0x715018A6 EQ PUSH2 0xE7F JUMPI DUP1 PUSH4 0x7D760CAC EQ PUSH2 0xDF1 JUMPI DUP1 PUSH4 0x8DA5CB5B EQ PUSH2 0xDC8 JUMPI DUP1 PUSH4 0x9D5FB399 EQ PUSH2 0xD6C JUMPI DUP1 PUSH4 0xA22CB465 EQ PUSH2 0xC88 JUMPI DUP1 PUSH4 0xA5E9279A EQ PUSH2 0xC5C JUMPI DUP1 PUSH4 0xBC1CA3E9 EQ PUSH2 0xB9E JUMPI DUP1 PUSH4 0xD3102953 EQ PUSH2 0x584 JUMPI DUP1 PUSH4 0xE985E9C5 EQ PUSH2 0x52E JUMPI DUP1 PUSH4 0xF242432A EQ PUSH2 0x1FE JUMPI DUP1 PUSH4 0xF2FDE38B EQ PUSH2 0x135 JUMPI PUSH4 0xFCA7095C EQ PUSH2 0x102 JUMPI PUSH1 0x0 DUP1 REVERT JUMPDEST CALLVALUE PUSH2 0x130 JUMPI PUSH1 0x40 CALLDATASIZE PUSH1 0x3 NOT ADD SLT PUSH2 0x130 JUMPI PUSH1 0x20 PUSH2 0x128 PUSH2 0x120 PUSH2 0x18CF JUMP JUMPDEST PUSH1 0x4 CALLDATALOAD PUSH2 0x1FB5 JUMP JUMPDEST PUSH1 0x40 MLOAD SWAP1 DUP2 MSTORE RETURN JUMPDEST PUSH1 0x0 DUP1 REVERT JUMPDEST CALLVALUE PUSH2 0x130 JUMPI PUSH1 0x20 CALLDATASIZE PUSH1 0x3 NOT ADD SLT PUSH2 0x130 JUMPI PUSH2 0x14E PUSH2 0x18B9 JUMP JUMPDEST PUSH2 0x156 PUSH2 0x1BA7 JUMP JUMPDEST PUSH1 0x1 PUSH1 0x1 PUSH1 0xA0 SHL SUB SWAP1 DUP2 AND SWAP1 DUP2 ISZERO PUSH2 0x1AA JUMPI PUSH1 0x3 SLOAD DUP3 PUSH12 0xFFFFFFFFFFFFFFFFFFFFFFFF PUSH1 0xA0 SHL DUP3 AND OR PUSH1 0x3 SSTORE AND PUSH32 0x8BE0079C531659141344CD1FD0A4F28419497F9722A3DAAFE3B4186F6B6457E0 PUSH1 0x0 DUP1 LOG3 STOP JUMPDEST PUSH1 0x40 MLOAD PUSH3 0x461BCD PUSH1 0xE5 SHL DUP2 MSTORE PUSH1 0x20 PUSH1 0x4 DUP3 ADD MSTORE PUSH1 0x26 PUSH1 0x24 DUP3 ADD MSTORE PUSH32 0x4F776E61626C653A206E6577206F776E657220697320746865207A65726F2061 PUSH1 0x44 DUP3 ADD MSTORE PUSH6 0x646472657373 PUSH1 0xD0 SHL PUSH1 0x64 DUP3 ADD MSTORE PUSH1 0x84 SWAP1 REVERT JUMPDEST CALLVALUE PUSH2 0x130 JUMPI PUSH1 0xA0 CALLDATASIZE PUSH1 0x3 NOT ADD SLT PUSH2 0x130 JUMPI PUSH2 0x217 PUSH2 0x18B9 JUMP JUMPDEST PUSH2 0x21F PUSH2 0x18CF JUMP JUMPDEST SWAP1 PUSH1 0x64 CALLDATALOAD SWAP1 PUSH1 0x44 CALLDATALOAD PUSH1 0x84 CALLDATALOAD PUSH1 0x1 PUSH1 0x1 PUSH1 0x40 SHL SUB DUP2 GT PUSH2 0x130 JUMPI PUSH2 0x246 SWAP1 CALLDATASIZE SWAP1 PUSH1 0x4 ADD PUSH2 0x1921 JUMP JUMPDEST SWAP3 PUSH1 0x1 PUSH1 0x1 PUSH1 0xA0 SHL SUB SWAP3 DUP4 AND SWAP3 CALLER DUP5 EQ DUP1 ISZERO PUSH2 0x505 JUMPI JUMPDEST PUSH2 0x266 SWAP1 PUSH2 0x1CD3 JUMP JUMPDEST DUP6 AND SWAP4 PUSH2 0x274 DUP6 ISZERO ISZERO PUSH2 0x1D36 JUMP JUMPDEST PUSH2 0x27D DUP4 PUSH2 0x1F00 JUMP JUMPDEST POP PUSH2 0x287 DUP3 PUSH2 0x1F00 JUMP JUMPDEST POP DUP3 PUSH1 0x0 MSTORE PUSH1 0x20 SWAP6 PUSH1 0x0 DUP8 MSTORE PUSH1 0x40 PUSH1 0x0 KECCAK256 DUP6 PUSH1 0x0 MSTORE DUP8 MSTORE DUP3 PUSH1 0x40 PUSH1 0x0 KECCAK256 SLOAD PUSH2 0x2B1 DUP3 DUP3 LT ISZERO PUSH2 0x1D90 JUMP JUMPDEST DUP6 PUSH1 0x0 MSTORE PUSH1 0x0 DUP10 MSTORE PUSH1 0x40 PUSH1 0x0 KECCAK256 DUP8 PUSH1 0x0 MSTORE DUP10 MSTORE SUB PUSH1 0x40 PUSH1 0x0 KECCAK256 SSTORE DUP4 PUSH1 0x0 MSTORE PUSH1 0x0 DUP8 MSTORE PUSH1 0x40 PUSH1 0x0 KECCAK256 DUP7 PUSH1 0x0 MSTORE DUP8 MSTORE PUSH1 0x40 PUSH1 0x0 KECCAK256 PUSH2 0x2EE DUP5 DUP3 SLOAD PUSH2 0x1DEF JUMP JUMPDEST SWAP1 SSTORE DUP6 DUP6 PUSH1 0x40 MLOAD DUP7 DUP2 MSTORE DUP6 DUP11 DUP3 ADD MSTORE PUSH32 0xC3D58168C5AE7397731D063D5BBF3D657854427343F4C083240F7AACAA2D0F62 PUSH1 0x40 CALLER SWAP3 LOG4 EXTCODESIZE PUSH2 0x3A9 JUMPI JUMPDEST POP SWAP1 SWAP2 SWAP3 SWAP4 DUP3 PUSH1 0x0 MSTORE PUSH1 0x6 DUP2 MSTORE PUSH1 0x40 PUSH1 0x0 KECCAK256 SWAP2 PUSH1 0xFF PUSH1 0x4 DUP5 ADD SLOAD AND PUSH2 0x34A JUMPI STOP JUMPDEST PUSH1 0x5 PUSH32 0x78DC4AB325D618A4100F0B44DA2F25725CD94B780060F6B9E87065E9C0B12EBD SWAP4 ADD DUP6 PUSH1 0x0 MSTORE DUP1 DUP4 MSTORE PUSH1 0x40 PUSH1 0x0 KECCAK256 PUSH2 0x386 DUP4 DUP3 SLOAD PUSH2 0x1FA8 JUMP JUMPDEST SWAP1 SSTORE DUP7 PUSH1 0x0 MSTORE DUP3 MSTORE PUSH1 0x40 PUSH1 0x0 KECCAK256 PUSH2 0x39E DUP3 DUP3 SLOAD PUSH2 0x1DEF JUMP JUMPDEST SWAP1 SSTORE PUSH1 0x40 MLOAD SWAP1 DUP2 MSTORE LOG4 STOP JUMPDEST PUSH1 0x40 MLOAD DUP7 DUP2 DUP1 PUSH2 0x3E7 PUSH4 0xF23A6E61 PUSH1 0xE0 SHL SWAP6 DUP7 DUP4 MSTORE CALLER PUSH1 0x4 DUP5 ADD MSTORE DUP10 PUSH1 0x24 DUP5 ADD MSTORE DUP9 PUSH1 0x44 DUP5 ADD MSTORE DUP8 PUSH1 0x64 DUP5 ADD MSTORE PUSH1 0xA0 PUSH1 0x84 DUP5 ADD MSTORE PUSH1 0xA4 DUP4 ADD SWAP1 PUSH2 0x198B JUMP JUMPDEST SUB DUP2 PUSH1 0x0 DUP11 GAS CALL PUSH1 0x0 SWAP2 DUP2 PUSH2 0x4D6 JUMPI JUMPDEST POP PUSH2 0x462 JUMPI DUP7 PUSH2 0x405 PUSH2 0x1E1C JUMP JUMPDEST PUSH4 0x8C379A0 EQ PUSH2 0x42D JUMPI JUMPDEST PUSH1 0x40 MLOAD PUSH3 0x461BCD PUSH1 0xE5 SHL DUP2 MSTORE DUP1 PUSH2 0x429 PUSH1 0x4 DUP3 ADD PUSH2 0x1EAB JUMP JUMPDEST SUB SWAP1 REVERT JUMPDEST PUSH2 0x435 PUSH2 0x1E3A JUMP JUMPDEST SWAP1 DUP2 PUSH2 0x441 JUMPI POP PUSH2 0x410 JUMP JUMPDEST PUSH2 0x429 PUSH1 0x40 MLOAD SWAP3 DUP4 SWAP3 PUSH3 0x461BCD PUSH1 0xE5 SHL DUP5 MSTORE PUSH1 0x4 DUP5 ADD MSTORE PUSH1 0x24 DUP4 ADD SWAP1 PUSH2 0x198B JUMP JUMPDEST PUSH4 0xFFFFFFFF PUSH1 0xE0 SWAP8 SWAP4 SWAP5 SWAP6 SWAP7 SWAP8 SHL AND SUB PUSH2 0x480 JUMPI SWAP4 SWAP3 SWAP2 SWAP1 DUP6 PUSH2 0x329 JUMP JUMPDEST PUSH1 0x40 MLOAD PUSH3 0x461BCD PUSH1 0xE5 SHL DUP2 MSTORE PUSH1 0x20 PUSH1 0x4 DUP3 ADD MSTORE PUSH1 0x28 PUSH1 0x24 DUP3 ADD MSTORE PUSH32 0x455243313135353A204552433131353552656365697665722072656A65637465 PUSH1 0x44 DUP3 ADD MSTORE PUSH8 0x6420746F6B656E73 PUSH1 0xC0 SHL PUSH1 0x64 DUP3 ADD MSTORE PUSH1 0x84 SWAP1 REVERT JUMPDEST PUSH2 0x4F7 SWAP2 SWAP3 POP DUP9 RETURNDATASIZE DUP11 GT PUSH2 0x4FE JUMPI JUMPDEST PUSH2 0x4EF DUP2 DUP4 PUSH2 0x18E5 JUMP JUMPDEST DUP2 ADD SWAP1 PUSH2 0x1DFC JUMP JUMPDEST SWAP1 DUP9 PUSH2 0x3F7 JUMP JUMPDEST POP RETURNDATASIZE PUSH2 0x4E5 JUMP JUMPDEST POP DUP4 PUSH1 0x0 MSTORE PUSH1 0x1 PUSH1 0x20 MSTORE PUSH1 0x40 PUSH1 0x0 KECCAK256 CALLER PUSH1 0x0 MSTORE PUSH1 0x20 MSTORE PUSH2 0x266 PUSH1 0xFF PUSH1 0x40 PUSH1 0x0 KECCAK256 SLOAD AND SWAP1 POP PUSH2 0x25D JUMP JUMPDEST CALLVALUE PUSH2 0x130 JUMPI PUSH1 0x40 CALLDATASIZE PUSH1 0x3 NOT ADD SLT PUSH2 0x130 JUMPI PUSH2 0x547 PUSH2 0x18B9 JUMP JUMPDEST PUSH2 0x54F PUSH2 0x18CF JUMP JUMPDEST SWAP1 PUSH1 0x1 DUP1 PUSH1 0xA0 SHL SUB DUP1 SWAP2 AND PUSH1 0x0 MSTORE PUSH1 0x1 PUSH1 0x20 MSTORE PUSH1 0x40 PUSH1 0x0 KECCAK256 SWAP2 AND PUSH1 0x0 MSTORE PUSH1 0x20 MSTORE PUSH1 0x20 PUSH1 0xFF PUSH1 0x40 PUSH1 0x0 KECCAK256 SLOAD AND PUSH1 0x40 MLOAD SWAP1 ISZERO ISZERO DUP2 MSTORE RETURN JUMPDEST CALLVALUE PUSH2 0x130 JUMPI PUSH1 0xA0 CALLDATASIZE PUSH1 0x3 NOT ADD SLT PUSH2 0x130 JUMPI PUSH1 0x4 CALLDATALOAD PUSH1 0x1 PUSH1 0x1 PUSH1 0x40 SHL SUB DUP2 GT PUSH2 0x130 JUMPI PUSH2 0x5B4 SWAP1 CALLDATASIZE SWAP1 PUSH1 0x4 ADD PUSH2 0x1921 JUMP JUMPDEST PUSH1 0x64 CALLDATALOAD PUSH1 0x1 PUSH1 0x1 PUSH1 0x40 SHL SUB DUP2 GT PUSH2 0x130 JUMPI PUSH2 0x5D3 SWAP1 CALLDATASIZE SWAP1 PUSH1 0x4 ADD PUSH2 0x1A25 JUMP JUMPDEST SWAP1 PUSH1 0x84 CALLDATALOAD PUSH1 0x1 PUSH1 0x1 PUSH1 0x40 SHL SUB DUP2 GT PUSH2 0x130 JUMPI PUSH2 0x5F3 SWAP1 CALLDATASIZE SWAP1 PUSH1 0x4 ADD PUSH2 0x19C7 JUMP JUMPDEST PUSH2 0x5FB PUSH2 0x1BA7 JUMP JUMPDEST DUP3 MLOAD DUP2 MLOAD SUB PUSH2 0xB65 JUMPI PUSH1 0x40 MLOAD PUSH1 0x20 DUP2 DUP5 MLOAD PUSH2 0x619 DUP2 DUP4 DUP6 DUP10 ADD PUSH2 0x1968 JUMP JUMPDEST DUP2 ADD PUSH1 0x7 DUP2 MSTORE SUB ADD SWAP1 KECCAK256 SLOAD PUSH2 0xB20 JUMPI PUSH1 0x1 PUSH1 0x5 SLOAD ADD SWAP1 DUP2 PUSH1 0x5 SSTORE DUP2 PUSH1 0x0 MSTORE PUSH1 0x6 PUSH1 0x20 MSTORE PUSH1 0x40 PUSH1 0x0 KECCAK256 SWAP4 DUP4 MLOAD PUSH1 0x1 PUSH1 0x1 PUSH1 0x40 SHL SUB DUP2 GT PUSH2 0x971 JUMPI PUSH2 0x65C DUP7 SLOAD PUSH2 0x1AC7 JUMP JUMPDEST PUSH1 0x1F DUP2 GT PUSH2 0xADC JUMPI JUMPDEST POP DUP1 PUSH1 0x20 PUSH1 0x1F DUP3 GT PUSH1 0x1 EQ PUSH2 0xA75 JUMPI PUSH1 0x0 SWAP2 PUSH2 0xA6A JUMPI JUMPDEST POP DUP2 PUSH1 0x1 SHL SWAP2 PUSH1 0x0 NOT SWAP1 PUSH1 0x3 SHL SHR NOT AND OR DUP6 SSTORE JUMPDEST PUSH1 0x1 DUP6 ADD CALLER PUSH12 0xFFFFFFFFFFFFFFFFFFFFFFFF PUSH1 0xA0 SHL DUP3 SLOAD AND OR SWAP1 SSTORE PUSH1 0x24 CALLDATALOAD PUSH1 0x2 DUP7 ADD SSTORE PUSH1 0x44 CALLDATALOAD PUSH1 0x3 DUP7 ADD SSTORE PUSH1 0x4 DUP6 ADD PUSH1 0x1 PUSH1 0xFF NOT DUP3 SLOAD AND OR SWAP1 SSTORE DUP3 PUSH1 0x40 MLOAD PUSH1 0x20 DUP2 DUP8 MLOAD PUSH2 0x6E0 DUP2 DUP4 DUP6 DUP13 ADD PUSH2 0x1968 JUMP JUMPDEST DUP2 ADD PUSH1 0x7 DUP2 MSTORE SUB ADD SWAP1 KECCAK256 SSTORE PUSH1 0x0 SWAP3 PUSH1 0x0 SWAP4 JUMPDEST DUP3 MLOAD DUP6 LT ISZERO PUSH2 0x9CC JUMPI PUSH2 0x705 DUP6 DUP6 PUSH2 0x1CA9 JUMP JUMPDEST MLOAD ISZERO PUSH2 0x987 JUMPI PUSH1 0x1 PUSH1 0x1 PUSH1 0xA0 SHL SUB PUSH2 0x71D DUP7 DUP6 PUSH2 0x1CA9 JUMP JUMPDEST MLOAD AND PUSH2 0x729 DUP7 DUP7 PUSH2 0x1CA9 JUMP JUMPDEST MLOAD SWAP1 PUSH1 0x40 MLOAD SWAP2 DUP3 PUSH1 0x20 DUP2 ADD LT PUSH1 0x1 PUSH1 0x1 PUSH1 0x40 SHL SUB PUSH1 0x20 DUP6 ADD GT OR PUSH2 0x971 JUMPI PUSH1 0x20 DUP4 ADD PUSH1 0x40 MSTORE PUSH1 0x0 DUP4 MSTORE DUP2 ISZERO PUSH2 0x922 JUMPI PUSH2 0x761 DUP6 PUSH2 0x1F00 JUMP JUMPDEST POP PUSH2 0x76B DUP2 PUSH2 0x1F00 JUMP JUMPDEST POP DUP5 PUSH1 0x0 MSTORE PUSH1 0x0 PUSH1 0x20 MSTORE PUSH1 0x40 PUSH1 0x0 KECCAK256 DUP3 PUSH1 0x0 MSTORE PUSH1 0x20 MSTORE PUSH1 0x40 PUSH1 0x0 KECCAK256 PUSH2 0x791 DUP3 DUP3 SLOAD PUSH2 0x1DEF JUMP JUMPDEST SWAP1 SSTORE DUP2 PUSH1 0x0 PUSH1 0x40 MLOAD DUP8 DUP2 MSTORE DUP4 PUSH1 0x20 DUP3 ADD MSTORE PUSH32 0xC3D58168C5AE7397731D063D5BBF3D657854427343F4C083240F7AACAA2D0F62 PUSH1 0x40 CALLER SWAP3 LOG4 DUP2 EXTCODESIZE PUSH2 0x825 JUMPI JUMPDEST POP POP POP PUSH2 0x819 PUSH2 0x81F SWAP2 PUSH2 0x7E3 DUP8 DUP8 PUSH2 0x1CA9 JUMP JUMPDEST MLOAD PUSH1 0x1 PUSH1 0x1 PUSH1 0xA0 SHL SUB PUSH2 0x7F6 DUP10 DUP9 PUSH2 0x1CA9 JUMP JUMPDEST MLOAD AND PUSH1 0x0 MSTORE PUSH1 0x5 DUP11 ADD PUSH1 0x20 MSTORE PUSH1 0x40 PUSH1 0x0 KECCAK256 SSTORE PUSH2 0x812 DUP8 DUP8 PUSH2 0x1CA9 JUMP JUMPDEST MLOAD SWAP1 PUSH2 0x1DEF JUMP JUMPDEST SWAP5 PUSH2 0x1C84 JUMP JUMPDEST SWAP4 PUSH2 0x6F2 JUMP JUMPDEST SWAP2 PUSH1 0x20 SWAP2 PUSH2 0x86A SWAP4 PUSH1 0x0 PUSH1 0x40 MLOAD DUP1 SWAP7 DUP2 SWAP6 DUP3 SWAP5 PUSH4 0xF23A6E61 PUSH1 0xE0 SHL DUP5 MSTORE CALLER PUSH1 0x4 DUP6 ADD MSTORE DUP5 PUSH1 0x24 DUP6 ADD MSTORE DUP12 PUSH1 0x44 DUP6 ADD MSTORE PUSH1 0x64 DUP5 ADD MSTORE PUSH1 0xA0 PUSH1 0x84 DUP5 ADD MSTORE PUSH1 0xA4 DUP4 ADD SWAP1 PUSH2 0x198B JUMP JUMPDEST SUB SWAP3 GAS CALL PUSH1 0x0 SWAP2 DUP2 PUSH2 0x901 JUMPI JUMPDEST POP PUSH2 0x8DE JUMPI PUSH2 0x884 PUSH2 0x1E1C JUMP JUMPDEST PUSH4 0x8C379A0 EQ PUSH2 0x8A7 JUMPI PUSH1 0x40 MLOAD PUSH3 0x461BCD PUSH1 0xE5 SHL DUP2 MSTORE DUP1 PUSH2 0x429 PUSH1 0x4 DUP3 ADD PUSH2 0x1EAB JUMP JUMPDEST PUSH2 0x8AF PUSH2 0x1E3A JUMP JUMPDEST DUP1 PUSH2 0x8BA JUMPI POP PUSH2 0x410 JUMP JUMPDEST PUSH1 0x40 MLOAD PUSH3 0x461BCD PUSH1 0xE5 SHL DUP2 MSTORE PUSH1 0x20 PUSH1 0x4 DUP3 ADD MSTORE SWAP1 DUP2 SWAP1 PUSH2 0x429 SWAP1 PUSH1 0x24 DUP4 ADD SWAP1 PUSH2 0x198B JUMP JUMPDEST PUSH1 0x1 PUSH1 0x1 PUSH1 0xE0 SHL SUB NOT AND PUSH4 0xDC5919F PUSH1 0xE0 SHL ADD PUSH2 0x480 JUMPI PUSH2 0x819 PUSH2 0x81F DUP10 PUSH2 0x7CF JUMP JUMPDEST PUSH2 0x91B SWAP2 SWAP3 POP PUSH1 0x20 RETURNDATASIZE PUSH1 0x20 GT PUSH2 0x4FE JUMPI PUSH2 0x4EF DUP2 DUP4 PUSH2 0x18E5 JUMP JUMPDEST SWAP1 DUP10 PUSH2 0x877 JUMP JUMPDEST PUSH1 0x40 MLOAD PUSH3 0x461BCD PUSH1 0xE5 SHL DUP2 MSTORE PUSH1 0x20 PUSH1 0x4 DUP3 ADD MSTORE PUSH1 0x21 PUSH1 0x24 DUP3 ADD MSTORE PUSH32 0x455243313135353A206D696E7420746F20746865207A65726F20616464726573 PUSH1 0x44 DUP3 ADD MSTORE PUSH1 0x73 PUSH1 0xF8 SHL PUSH1 0x64 DUP3 ADD MSTORE PUSH1 0x84 SWAP1 REVERT JUMPDEST PUSH4 0x4E487B71 PUSH1 0xE0 SHL PUSH1 0x0 MSTORE PUSH1 0x41 PUSH1 0x4 MSTORE PUSH1 0x24 PUSH1 0x0 REVERT JUMPDEST PUSH1 0x40 MLOAD PUSH3 0x461BCD PUSH1 0xE5 SHL DUP2 MSTORE PUSH1 0x20 PUSH1 0x4 DUP3 ADD MSTORE PUSH1 0x18 PUSH1 0x24 DUP3 ADD MSTORE PUSH32 0x536861726520616D6F756E74206D757374206265203E20300000000000000000 PUSH1 0x44 DUP3 ADD MSTORE PUSH1 0x64 SWAP1 REVERT JUMPDEST DUP6 SWAP3 POP PUSH1 0x24 CALLDATALOAD SUB PUSH2 0xA2D JUMPI DUP1 PUSH32 0x7AD2B36C235B623D0C955080DE4118B00B34A1387DDB5519A5204D8494091EAA PUSH2 0xA13 PUSH1 0x20 SWAP5 PUSH1 0x40 MLOAD SWAP2 DUP3 SWAP2 PUSH1 0x60 DUP4 MSTORE PUSH1 0x60 DUP4 ADD SWAP1 PUSH2 0x198B JUMP JUMPDEST PUSH1 0x24 CALLDATALOAD DUP8 DUP4 ADD MSTORE PUSH1 0x44 CALLDATALOAD PUSH1 0x40 DUP4 ADD MSTORE SUB SWAP1 LOG2 PUSH1 0x40 MLOAD SWAP1 DUP2 MSTORE RETURN JUMPDEST PUSH1 0x40 MLOAD PUSH3 0x461BCD PUSH1 0xE5 SHL DUP2 MSTORE PUSH1 0x20 PUSH1 0x4 DUP3 ADD MSTORE PUSH1 0x15 PUSH1 0x24 DUP3 ADD MSTORE PUSH21 0xA8DEE8C2D840E6D0C2E4CAE640DAD2E6DAC2E8C6D PUSH1 0x5B SHL PUSH1 0x44 DUP3 ADD MSTORE PUSH1 0x64 SWAP1 REVERT JUMPDEST SWAP1 POP DUP6 ADD MLOAD DUP8 PUSH2 0x67C JUMP JUMPDEST SWAP2 POP DUP7 PUSH1 0x0 MSTORE PUSH1 0x20 PUSH1 0x0 KECCAK256 PUSH1 0x0 SWAP3 JUMPDEST PUSH1 0x1F NOT DUP4 AND DUP5 LT PUSH2 0xAC4 JUMPI PUSH1 0x1 SWAP4 POP DUP3 PUSH1 0x1F NOT DUP2 AND LT PUSH2 0xAAB JUMPI JUMPDEST POP POP DUP2 SHL ADD DUP6 SSTORE PUSH2 0x690 JUMP JUMPDEST DUP8 ADD MLOAD PUSH1 0x0 NOT PUSH1 0xF8 DUP5 PUSH1 0x3 SHL AND SHR NOT AND SWAP1 SSTORE DUP8 DUP1 PUSH2 0xA9F JUMP JUMPDEST DUP8 DUP2 ADD MLOAD DUP3 SSTORE PUSH1 0x20 SWAP4 DUP5 ADD SWAP4 PUSH1 0x1 SWAP1 SWAP3 ADD SWAP2 ADD PUSH2 0xA84 JUMP JUMPDEST DUP7 PUSH1 0x0 MSTORE PUSH1 0x20 PUSH1 0x0 KECCAK256 PUSH1 0x1F DUP4 ADD PUSH1 0x5 SHR DUP2 ADD PUSH1 0x20 DUP5 LT PUSH2 0xB19 JUMPI JUMPDEST PUSH1 0x1F DUP4 ADD PUSH1 0x5 SHR DUP3 ADD DUP2 LT PUSH2 0xB0D JUMPI POP POP PUSH2 0x665 JUMP JUMPDEST PUSH1 0x0 DUP2 SSTORE PUSH1 0x1 ADD PUSH2 0xAF7 JUMP JUMPDEST POP DUP1 PUSH2 0xAF7 JUMP JUMPDEST PUSH1 0x40 MLOAD PUSH3 0x461BCD PUSH1 0xE5 SHL DUP2 MSTORE PUSH1 0x20 PUSH1 0x4 DUP3 ADD MSTORE PUSH1 0x1D PUSH1 0x24 DUP3 ADD MSTORE PUSH32 0x446F6D61696E20616C7265616479206672616374696F6E616C697A6564000000 PUSH1 0x44 DUP3 ADD MSTORE PUSH1 0x64 SWAP1 REVERT JUMPDEST PUSH1 0x40 MLOAD PUSH3 0x461BCD PUSH1 0xE5 SHL DUP2 MSTORE PUSH1 0x20 PUSH1 0x4 DUP3 ADD MSTORE PUSH1 0x11 PUSH1 0x24 DUP3 ADD MSTORE PUSH17 0x4D69736D61746368656420617272617973 PUSH1 0x78 SHL PUSH1 0x44 DUP3 ADD MSTORE PUSH1 0x64 SWAP1 REVERT JUMPDEST PUSH1 0x20 CALLDATASIZE PUSH1 0x3 NOT ADD SLT PUSH2 0x130 JUMPI PUSH1 0x4 CALLDATALOAD DUP1 PUSH1 0x0 MSTORE PUSH1 0x6 PUSH1 0x20 MSTORE PUSH2 0xBCA PUSH1 0xFF PUSH1 0x4 PUSH1 0x40 PUSH1 0x0 KECCAK256 ADD SLOAD AND PUSH2 0x1F35 JUMP JUMPDEST CALLVALUE ISZERO PUSH2 0xC17 JUMPI DUP1 PUSH1 0x0 MSTORE PUSH1 0x8 PUSH1 0x20 MSTORE PUSH1 0x40 PUSH1 0x0 KECCAK256 PUSH2 0xBE9 CALLVALUE DUP3 SLOAD PUSH2 0x1DEF JUMP JUMPDEST SWAP1 SSTORE PUSH32 0xB20D89F6552ECC9B6927807870A2E0A3EAD94EFAC32D88CA11D3FF17B744AA90 PUSH1 0x20 PUSH1 0x40 MLOAD CALLVALUE DUP2 MSTORE LOG2 STOP JUMPDEST PUSH1 0x40 MLOAD PUSH3 0x461BCD PUSH1 0xE5 SHL DUP2 MSTORE PUSH1 0x20 PUSH1 0x4 DUP3 ADD MSTORE PUSH1 0x19 PUSH1 0x24 DUP3 ADD MSTORE PUSH32 0x4D757374206465706F73697420736F6D6520726576656E756500000000000000 PUSH1 0x44 DUP3 ADD MSTORE PUSH1 0x64 SWAP1 REVERT JUMPDEST CALLVALUE PUSH2 0x130 JUMPI PUSH1 0x20 CALLDATASIZE PUSH1 0x3 NOT ADD SLT PUSH2 0x130 JUMPI PUSH1 0x4 CALLDATALOAD PUSH1 0x0 MSTORE PUSH1 0x8 PUSH1 0x20 MSTORE PUSH1 0x20 PUSH1 0x40 PUSH1 0x0 KECCAK256 SLOAD PUSH1 0x40 MLOAD SWAP1 DUP2 MSTORE RETURN JUMPDEST CALLVALUE PUSH2 0x130 JUMPI PUSH1 0x40 CALLDATASIZE PUSH1 0x3 NOT ADD SLT PUSH2 0x130 JUMPI PUSH2 0xCA1 PUSH2 0x18B9 JUMP JUMPDEST PUSH1 0x24 CALLDATALOAD SWAP1 DUP2 ISZERO ISZERO DUP1 SWAP3 SUB PUSH2 0x130 JUMPI PUSH1 0x1 PUSH1 0x1 PUSH1 0xA0 SHL SUB AND SWAP1 CALLER DUP3 EQ PUSH2 0xD15 JUMPI CALLER PUSH1 0x0 MSTORE PUSH1 0x1 PUSH1 0x20 MSTORE PUSH1 0x40 PUSH1 0x0 KECCAK256 DUP3 PUSH1 0x0 MSTORE PUSH1 0x20 MSTORE PUSH1 0x40 PUSH1 0x0 KECCAK256 PUSH1 0xFF NOT DUP2 SLOAD AND PUSH1 0xFF DUP4 AND OR SWAP1 SSTORE PUSH1 0x40 MLOAD SWAP1 DUP2 MSTORE PUSH32 0x17307EAB39AB6107E8899845AD3D59BD9653F200F220920489CA2B5937696C31 PUSH1 0x20 CALLER SWAP3 LOG3 STOP JUMPDEST PUSH1 0x40 MLOAD PUSH3 0x461BCD PUSH1 0xE5 SHL DUP2 MSTORE PUSH1 0x20 PUSH1 0x4 DUP3 ADD MSTORE PUSH1 0x29 PUSH1 0x24 DUP3 ADD MSTORE PUSH32 0x455243313135353A2073657474696E6720617070726F76616C20737461747573 PUSH1 0x44 DUP3 ADD MSTORE PUSH9 0x103337B91039B2B633 PUSH1 0xB9 SHL PUSH1 0x64 DUP3 ADD MSTORE PUSH1 0x84 SWAP1 REVERT JUMPDEST CALLVALUE PUSH2 0x130 JUMPI PUSH1 0x20 CALLDATASIZE PUSH1 0x3 NOT ADD SLT PUSH2 0x130 JUMPI PUSH1 0x4 CALLDATALOAD PUSH1 0x1 PUSH1 0x1 PUSH1 0x40 SHL SUB DUP2 GT PUSH2 0x130 JUMPI PUSH2 0xDB5 PUSH1 0x20 PUSH2 0xDA2 DUP2 SWAP4 CALLDATASIZE SWAP1 PUSH1 0x4 ADD PUSH2 0x1921 JUMP JUMPDEST DUP2 PUSH1 0x40 MLOAD SWAP4 DUP3 DUP6 DUP1 SWAP5 MLOAD SWAP4 DUP5 SWAP3 ADD PUSH2 0x1968 JUMP JUMPDEST DUP2 ADD PUSH1 0x7 DUP2 MSTORE SUB ADD SWAP1 KECCAK256 SLOAD PUSH1 0x40 MLOAD SWAP1 DUP2 MSTORE RETURN JUMPDEST CALLVALUE PUSH2 0x130 JUMPI PUSH1 0x0 CALLDATASIZE PUSH1 0x3 NOT ADD SLT PUSH2 0x130 JUMPI PUSH1 0x3 SLOAD PUSH1 0x40 MLOAD PUSH1 0x1 PUSH1 0x1 PUSH1 0xA0 SHL SUB SWAP1 SWAP2 AND DUP2 MSTORE PUSH1 0x20 SWAP1 RETURN JUMPDEST CALLVALUE PUSH2 0x130 JUMPI PUSH1 0x20 CALLDATASIZE PUSH1 0x3 NOT ADD SLT PUSH2 0x130 JUMPI PUSH1 0x4 CALLDATALOAD PUSH1 0x0 MSTORE PUSH1 0x6 PUSH1 0x20 MSTORE PUSH2 0xE5F PUSH1 0x40 PUSH1 0x0 KECCAK256 PUSH1 0x1 DUP1 PUSH1 0xA0 SHL SUB PUSH1 0x1 DUP3 ADD SLOAD AND PUSH1 0x2 DUP3 ADD SLOAD SWAP2 PUSH1 0x3 DUP2 ADD SLOAD PUSH1 0xFF PUSH1 0x4 DUP4 ADD SLOAD AND SWAP1 PUSH1 0x8 PUSH1 0x20 MSTORE PUSH2 0xE4A PUSH1 0x40 PUSH1 0x0 KECCAK256 SLOAD SWAP4 PUSH2 0x1B01 JUMP JUMPDEST SWAP5 PUSH1 0x40 MLOAD SWAP7 DUP8 SWAP7 PUSH1 0xC0 DUP9 MSTORE PUSH1 0xC0 DUP9 ADD SWAP1 PUSH2 0x198B JUMP JUMPDEST SWAP5 PUSH1 0x20 DUP8 ADD MSTORE PUSH1 0x40 DUP7 ADD MSTORE PUSH1 0x60 DUP6 ADD MSTORE ISZERO ISZERO PUSH1 0x80 DUP5 ADD MSTORE PUSH1 0xA0 DUP4 ADD MSTORE SUB SWAP1 RETURN JUMPDEST CALLVALUE PUSH2 0x130 JUMPI PUSH1 0x0 CALLDATASIZE PUSH1 0x3 NOT ADD SLT PUSH2 0x130 JUMPI PUSH2 0xE98 PUSH2 0x1BA7 JUMP JUMPDEST PUSH1 0x3 DUP1 SLOAD PUSH1 0x1 PUSH1 0x1 PUSH1 0xA0 SHL SUB NOT DUP2 AND SWAP1 SWAP2 SSTORE PUSH1 0x0 SWAP1 PUSH1 0x1 PUSH1 0x1 PUSH1 0xA0 SHL SUB AND PUSH32 0x8BE0079C531659141344CD1FD0A4F28419497F9722A3DAAFE3B4186F6B6457E0 DUP3 DUP1 LOG3 STOP JUMPDEST CALLVALUE PUSH2 0x130 JUMPI PUSH1 0x20 CALLDATASIZE PUSH1 0x3 NOT ADD SLT PUSH2 0x130 JUMPI PUSH1 0x4 CALLDATALOAD PUSH1 0x0 MSTORE PUSH1 0x6 PUSH1 0x20 MSTORE PUSH2 0xF40 PUSH1 0x40 PUSH1 0x0 KECCAK256 PUSH2 0xF09 DUP2 PUSH2 0x1B01 JUMP JUMPDEST SWAP1 PUSH1 0x1 DUP1 PUSH1 0xA0 SHL SUB PUSH1 0x1 DUP3 ADD SLOAD AND SWAP1 PUSH1 0x2 DUP2 ADD SLOAD SWAP1 PUSH1 0xFF PUSH1 0x4 PUSH1 0x3 DUP4 ADD SLOAD SWAP3 ADD SLOAD AND SWAP2 PUSH1 0x40 MLOAD SWAP6 DUP7 SWAP6 PUSH1 0xA0 DUP8 MSTORE PUSH1 0xA0 DUP8 ADD SWAP1 PUSH2 0x198B JUMP JUMPDEST SWAP4 PUSH1 0x20 DUP7 ADD MSTORE PUSH1 0x40 DUP6 ADD MSTORE PUSH1 0x60 DUP5 ADD MSTORE ISZERO ISZERO PUSH1 0x80 DUP4 ADD MSTORE SUB SWAP1 RETURN JUMPDEST CALLVALUE PUSH2 0x130 JUMPI PUSH1 0x40 CALLDATASIZE PUSH1 0x3 NOT ADD SLT PUSH2 0x130 JUMPI PUSH2 0xF74 PUSH2 0x18CF JUMP JUMPDEST PUSH1 0x4 CALLDATALOAD PUSH1 0x0 MSTORE PUSH1 0x9 PUSH1 0x20 MSTORE PUSH1 0x40 PUSH1 0x0 KECCAK256 SWAP1 PUSH1 0x1 DUP1 PUSH1 0xA0 SHL SUB AND PUSH1 0x0 MSTORE PUSH1 0x20 MSTORE PUSH1 0x20 PUSH1 0x40 PUSH1 0x0 KECCAK256 SLOAD PUSH1 0x40 MLOAD SWAP1 DUP2 MSTORE RETURN JUMPDEST CALLVALUE PUSH2 0x130 JUMPI PUSH1 0x40 CALLDATASIZE PUSH1 0x3 NOT ADD SLT PUSH2 0x130 JUMPI PUSH1 0x1 PUSH1 0x1 PUSH1 0x40 SHL SUB PUSH1 0x4 CALLDATALOAD DUP2 DUP2 GT PUSH2 0x130 JUMPI PUSH2 0xFD4 SWAP1 CALLDATASIZE SWAP1 PUSH1 0x4 ADD PUSH2 0x1A25 JUMP JUMPDEST SWAP1 PUSH1 0x24 CALLDATALOAD SWAP1 DUP2 GT PUSH2 0x130 JUMPI PUSH2 0xFED SWAP1 CALLDATASIZE SWAP1 PUSH1 0x4 ADD PUSH2 0x19C7 JUMP JUMPDEST SWAP1 DUP1 MLOAD DUP3 MLOAD SUB PUSH2 0x108E JUMPI DUP1 MLOAD SWAP2 PUSH2 0x1003 DUP4 PUSH2 0x19B0 JUMP JUMPDEST SWAP3 PUSH2 0x1011 PUSH1 0x40 MLOAD SWAP5 DUP6 PUSH2 0x18E5 JUMP JUMPDEST DUP1 DUP5 MSTORE PUSH2 0x1020 PUSH1 0x1F NOT SWAP2 PUSH2 0x19B0 JUMP JUMPDEST ADD CALLDATASIZE PUSH1 0x20 DUP6 ADD CALLDATACOPY PUSH1 0x0 JUMPDEST DUP3 MLOAD DUP2 LT ISZERO PUSH2 0x1074 JUMPI PUSH2 0x106F SWAP1 PUSH2 0x105F PUSH1 0x1 PUSH1 0x1 PUSH1 0xA0 SHL SUB PUSH2 0x104C DUP4 DUP8 PUSH2 0x1CA9 JUMP JUMPDEST MLOAD AND PUSH2 0x1058 DUP4 DUP7 PUSH2 0x1CA9 JUMP JUMPDEST MLOAD SWAP1 PUSH2 0x1BFF JUMP JUMPDEST PUSH2 0x1069 DUP3 DUP8 PUSH2 0x1CA9 JUMP JUMPDEST MSTORE PUSH2 0x1C84 JUMP JUMPDEST PUSH2 0x102A JUMP JUMPDEST PUSH1 0x40 MLOAD PUSH1 0x20 DUP1 DUP3 MSTORE DUP2 SWAP1 PUSH2 0x108A SWAP1 DUP3 ADD DUP8 PUSH2 0x1A93 JUMP JUMPDEST SUB SWAP1 RETURN JUMPDEST PUSH1 0x40 MLOAD PUSH3 0x461BCD PUSH1 0xE5 SHL DUP2 MSTORE PUSH1 0x20 PUSH1 0x4 DUP3 ADD MSTORE PUSH1 0x29 PUSH1 0x24 DUP3 ADD MSTORE PUSH32 0x455243313135353A206163636F756E747320616E6420696473206C656E677468 PUSH1 0x44 DUP3 ADD MSTORE PUSH9 0x40DAD2E6DAC2E8C6D PUSH1 0xBB SHL PUSH1 0x64 DUP3 ADD MSTORE PUSH1 0x84 SWAP1 REVERT JUMPDEST CALLVALUE PUSH2 0x130 JUMPI PUSH1 0x3 NOT PUSH1 0xA0 CALLDATASIZE DUP3 ADD SLT PUSH2 0x130 JUMPI PUSH2 0x10FF PUSH2 0x18B9 JUMP JUMPDEST SWAP1 PUSH2 0x1108 PUSH2 0x18CF JUMP JUMPDEST SWAP1 PUSH1 0x1 PUSH1 0x1 PUSH1 0x40 SHL SUB SWAP1 PUSH1 0x44 CALLDATALOAD DUP3 DUP2 GT PUSH2 0x130 JUMPI PUSH2 0x112A SWAP1 CALLDATASIZE SWAP1 PUSH1 0x4 ADD PUSH2 0x19C7 JUMP JUMPDEST PUSH1 0x64 CALLDATALOAD DUP4 DUP2 GT PUSH2 0x130 JUMPI PUSH2 0x1142 SWAP1 CALLDATASIZE SWAP1 PUSH1 0x4 ADD PUSH2 0x19C7 JUMP JUMPDEST SWAP3 PUSH1 0x84 CALLDATALOAD SWAP1 DUP2 GT PUSH2 0x130 JUMPI PUSH2 0x115B SWAP1 CALLDATASIZE SWAP1 PUSH1 0x4 ADD PUSH2 0x1921 JUMP JUMPDEST PUSH1 0x1 PUSH1 0x1 PUSH1 0xA0 SHL SUB SWAP6 DUP7 AND SWAP6 SWAP1 SWAP3 SWAP1 CALLER DUP8 EQ DUP1 ISZERO PUSH2 0x138C JUMPI JUMPDEST PUSH2 0x117D SWAP1 PUSH2 0x1CD3 JUMP JUMPDEST DUP3 MLOAD DUP6 MLOAD SUB PUSH2 0x1336 JUMPI DUP6 AND SWAP3 PUSH2 0x1194 DUP5 ISZERO ISZERO PUSH2 0x1D36 JUMP JUMPDEST PUSH1 0x0 JUMPDEST DUP4 MLOAD DUP2 LT ISZERO PUSH2 0x122D JUMPI DUP1 PUSH2 0x11AE PUSH2 0x1228 SWAP3 DUP7 PUSH2 0x1CA9 JUMP JUMPDEST MLOAD PUSH2 0x11B9 DUP3 DUP10 PUSH2 0x1CA9 JUMP JUMPDEST MLOAD SWAP1 DUP1 PUSH1 0x0 MSTORE PUSH1 0x20 SWAP1 PUSH1 0x0 DUP3 MSTORE PUSH1 0x40 PUSH1 0x0 KECCAK256 DUP13 PUSH1 0x0 MSTORE DUP3 MSTORE DUP3 PUSH1 0x40 PUSH1 0x0 KECCAK256 SLOAD PUSH2 0x11E4 DUP3 DUP3 LT ISZERO PUSH2 0x1D90 JUMP JUMPDEST DUP3 PUSH1 0x0 MSTORE PUSH1 0x0 DUP5 MSTORE DUP14 PUSH1 0x40 PUSH1 0x0 KECCAK256 SWAP1 PUSH1 0x0 MSTORE DUP5 MSTORE SUB PUSH1 0x40 PUSH1 0x0 KECCAK256 SSTORE PUSH1 0x0 MSTORE PUSH1 0x0 DUP2 MSTORE PUSH1 0x40 PUSH1 0x0 KECCAK256 SWAP1 DUP9 PUSH1 0x0 MSTORE MSTORE PUSH2 0x1221 PUSH1 0x40 PUSH1 0x0 KECCAK256 SWAP2 DUP3 SLOAD PUSH2 0x1DEF JUMP JUMPDEST SWAP1 SSTORE PUSH2 0x1C84 JUMP JUMPDEST PUSH2 0x1197 JUMP JUMPDEST POP SWAP1 SWAP5 SWAP4 SWAP3 SWAP2 SWAP4 DUP3 DUP8 PUSH1 0x40 MLOAD PUSH1 0x40 DUP2 MSTORE PUSH32 0x4A39DC06D4C0DBC64B70AF90FD698A233A518AA5D07E595D983B8C0526C8F7FB PUSH2 0x126B PUSH1 0x40 DUP4 ADD DUP11 PUSH2 0x1A93 JUMP JUMPDEST SWAP2 DUP1 DUP4 SUB PUSH1 0x20 DUP3 ADD MSTORE DUP1 PUSH2 0x1280 CALLER SWAP5 DUP12 PUSH2 0x1A93 JUMP JUMPDEST SUB SWAP1 LOG4 EXTCODESIZE PUSH2 0x128A JUMPI STOP JUMPDEST PUSH1 0x0 PUSH1 0x20 SWAP5 PUSH2 0x12EB PUSH2 0x12DC SWAP8 PUSH2 0x12CC SWAP5 PUSH1 0x40 MLOAD SWAP10 DUP11 SWAP9 DUP10 SWAP8 DUP9 SWAP7 PUSH4 0xBC197C81 PUSH1 0xE0 SHL SWAP15 DUP16 DUP10 MSTORE CALLER PUSH1 0x4 DUP11 ADD MSTORE PUSH1 0x24 DUP10 ADD MSTORE PUSH1 0xA0 PUSH1 0x44 DUP10 ADD MSTORE PUSH1 0xA4 DUP9 ADD SWAP1 PUSH2 0x1A93 JUMP JUMPDEST SWAP1 DUP5 DUP8 DUP4 SUB ADD PUSH1 0x64 DUP9 ADD MSTORE PUSH2 0x1A93 JUMP JUMPDEST SWAP2 DUP5 DUP4 SUB ADD PUSH1 0x84 DUP6 ADD MSTORE PUSH2 0x198B JUMP JUMPDEST SUB SWAP3 GAS CALL PUSH1 0x0 SWAP2 DUP2 PUSH2 0x1316 JUMPI JUMPDEST POP PUSH2 0x1305 JUMPI PUSH2 0x884 PUSH2 0x1E1C JUMP JUMPDEST PUSH1 0x1 PUSH1 0x1 PUSH1 0xE0 SHL SUB NOT AND SUB PUSH2 0x480 JUMPI STOP JUMPDEST PUSH2 0x132F SWAP2 SWAP3 POP PUSH1 0x20 RETURNDATASIZE DUP2 GT PUSH2 0x4FE JUMPI PUSH2 0x4EF DUP2 DUP4 PUSH2 0x18E5 JUMP JUMPDEST SWAP1 DUP4 PUSH2 0x12F8 JUMP JUMPDEST PUSH1 0x40 MLOAD PUSH3 0x461BCD PUSH1 0xE5 SHL DUP2 MSTORE PUSH1 0x20 PUSH1 0x4 DUP3 ADD MSTORE PUSH1 0x28 PUSH1 0x24 DUP3 ADD MSTORE PUSH32 0x455243313135353A2069647320616E6420616D6F756E7473206C656E67746820 PUSH1 0x44 DUP3 ADD MSTORE PUSH8 0xDAD2E6DAC2E8C6D PUSH1 0xC3 SHL PUSH1 0x64 DUP3 ADD MSTORE PUSH1 0x84 SWAP1 REVERT JUMPDEST POP DUP7 PUSH1 0x0 MSTORE PUSH1 0x1 PUSH1 0x20 MSTORE PUSH1 0x40 PUSH1 0x0 KECCAK256 CALLER PUSH1 0x0 MSTORE PUSH1 0x20 MSTORE PUSH2 0x117D PUSH1 0xFF PUSH1 0x40 PUSH1 0x0 KECCAK256 SLOAD AND SWAP1 POP PUSH2 0x1174 JUMP JUMPDEST CALLVALUE PUSH2 0x130 JUMPI PUSH1 0x20 DUP1 PUSH1 0x3 NOT CALLDATASIZE ADD SLT PUSH2 0x130 JUMPI PUSH1 0x4 CALLDATALOAD PUSH1 0x2 PUSH1 0x4 SLOAD EQ PUSH2 0x1584 JUMPI PUSH1 0x2 PUSH1 0x4 SSTORE DUP1 PUSH1 0x0 MSTORE PUSH1 0x6 DUP3 MSTORE PUSH1 0x40 PUSH1 0x0 KECCAK256 PUSH2 0x13F6 PUSH1 0xFF PUSH1 0x4 DUP4 ADD SLOAD AND PUSH2 0x1F35 JUMP JUMPDEST PUSH2 0x1400 DUP3 CALLER PUSH2 0x1BFF JUMP JUMPDEST DUP1 ISZERO PUSH2 0x154D JUMPI SWAP1 PUSH1 0x2 PUSH2 0x1423 PUSH2 0x142C SWAP4 DUP6 PUSH1 0x0 MSTORE PUSH1 0x8 DUP8 MSTORE PUSH1 0x40 PUSH1 0x0 KECCAK256 SLOAD PUSH2 0x1F75 JUMP JUMPDEST SWAP2 ADD SLOAD SWAP1 PUSH2 0x1F88 JUMP JUMPDEST SWAP2 DUP2 PUSH1 0x0 MSTORE PUSH1 0x9 DUP2 MSTORE PUSH1 0x40 PUSH1 0x0 KECCAK256 CALLER PUSH1 0x0 MSTORE DUP2 MSTORE PUSH2 0x144F PUSH1 0x40 PUSH1 0x0 KECCAK256 SLOAD DUP5 PUSH2 0x1FA8 JUMP JUMPDEST SWAP3 DUP4 ISZERO PUSH2 0x1512 JUMPI DUP3 PUSH1 0x0 MSTORE PUSH1 0x9 DUP3 MSTORE PUSH1 0x40 PUSH1 0x0 KECCAK256 CALLER PUSH1 0x0 MSTORE DUP3 MSTORE PUSH1 0x40 PUSH1 0x0 KECCAK256 SSTORE PUSH1 0x0 DUP1 DUP1 DUP1 DUP7 CALLER GAS CALL RETURNDATASIZE ISZERO PUSH2 0x150D JUMPI RETURNDATASIZE PUSH2 0x1488 DUP2 PUSH2 0x1906 JUMP JUMPDEST SWAP1 PUSH2 0x1496 PUSH1 0x40 MLOAD SWAP3 DUP4 PUSH2 0x18E5 JUMP JUMPDEST DUP2 MSTORE PUSH1 0x0 DUP4 RETURNDATASIZE SWAP3 ADD RETURNDATACOPY JUMPDEST ISZERO PUSH2 0x14D7 JUMPI PUSH32 0xB9E8470097FAA00E83252475F2EE4B69007B0BB2405268EBEC248676998A21B3 SWAP1 PUSH1 0x40 MLOAD SWAP4 DUP5 MSTORE CALLER SWAP4 LOG3 PUSH1 0x1 PUSH1 0x4 SSTORE STOP JUMPDEST PUSH1 0x64 SWAP1 PUSH1 0x40 MLOAD SWAP1 PUSH3 0x461BCD PUSH1 0xE5 SHL DUP3 MSTORE PUSH1 0x4 DUP3 ADD MSTORE PUSH1 0xF PUSH1 0x24 DUP3 ADD MSTORE PUSH15 0x151C985B9CD9995C8819985A5B1959 PUSH1 0x8A SHL PUSH1 0x44 DUP3 ADD MSTORE REVERT JUMPDEST PUSH2 0x14A0 JUMP JUMPDEST PUSH1 0x40 MLOAD PUSH3 0x461BCD PUSH1 0xE5 SHL DUP2 MSTORE PUSH1 0x4 DUP2 ADD DUP4 SWAP1 MSTORE PUSH1 0x13 PUSH1 0x24 DUP3 ADD MSTORE PUSH19 0x4E6F20726576656E756520746F20636C61696D PUSH1 0x68 SHL PUSH1 0x44 DUP3 ADD MSTORE PUSH1 0x64 SWAP1 REVERT JUMPDEST PUSH1 0x40 MLOAD PUSH3 0x461BCD PUSH1 0xE5 SHL DUP2 MSTORE PUSH1 0x4 DUP2 ADD DUP6 SWAP1 MSTORE PUSH1 0xF PUSH1 0x24 DUP3 ADD MSTORE PUSH15 0x139BC81CDA185C995CC81BDDDB9959 PUSH1 0x8A SHL PUSH1 0x44 DUP3 ADD MSTORE PUSH1 0x64 SWAP1 REVERT JUMPDEST PUSH1 0x40 MLOAD PUSH3 0x461BCD PUSH1 0xE5 SHL DUP2 MSTORE PUSH1 0x4 DUP2 ADD DUP4 SWAP1 MSTORE PUSH1 0x1F PUSH1 0x24 DUP3 ADD MSTORE PUSH32 0x5265656E7472616E637947756172643A207265656E7472616E742063616C6C00 PUSH1 0x44 DUP3 ADD MSTORE PUSH1 0x64 SWAP1 REVERT JUMPDEST CALLVALUE PUSH2 0x130 JUMPI PUSH1 0x20 DUP1 PUSH1 0x3 NOT CALLDATASIZE ADD SLT PUSH2 0x130 JUMPI PUSH1 0x40 MLOAD SWAP1 PUSH1 0x0 DUP3 PUSH1 0x2 SLOAD SWAP2 PUSH2 0x15EF DUP4 PUSH2 0x1AC7 JUMP JUMPDEST SWAP3 DUP4 DUP4 MSTORE PUSH1 0x1 SWAP1 DUP6 DUP3 DUP3 AND SWAP2 DUP3 PUSH1 0x0 EQ PUSH2 0x168B JUMPI POP POP PUSH1 0x1 EQ PUSH2 0x162E JUMPI JUMPDEST POP PUSH2 0x161A SWAP3 POP SUB DUP4 PUSH2 0x18E5 JUMP JUMPDEST PUSH2 0x108A PUSH1 0x40 MLOAD SWAP3 DUP3 DUP5 SWAP4 DUP5 MSTORE DUP4 ADD SWAP1 PUSH2 0x198B JUMP JUMPDEST DUP5 SWAP2 POP PUSH1 0x2 PUSH1 0x0 MSTORE PUSH32 0x405787FA12A823E0F2B7631CC41B3BA8828B3321CA811111FA75CD3AA3BB5ACE SWAP1 PUSH1 0x0 SWAP2 JUMPDEST DUP6 DUP4 LT PUSH2 0x1673 JUMPI POP POP PUSH2 0x161A SWAP4 POP DUP3 ADD ADD DUP6 PUSH2 0x160D JUMP JUMPDEST DUP1 SLOAD DUP4 DUP10 ADD DUP6 ADD MSTORE DUP8 SWAP5 POP DUP7 SWAP4 SWAP1 SWAP3 ADD SWAP2 DUP2 ADD PUSH2 0x165C JUMP JUMPDEST PUSH1 0xFF NOT AND DUP6 DUP3 ADD MSTORE PUSH2 0x161A SWAP6 ISZERO ISZERO PUSH1 0x5 SHL DUP6 ADD ADD SWAP3 POP DUP8 SWAP2 POP PUSH2 0x160D SWAP1 POP JUMP JUMPDEST CALLVALUE PUSH2 0x130 JUMPI PUSH1 0x20 DUP1 PUSH1 0x3 NOT CALLDATASIZE ADD SLT PUSH2 0x130 JUMPI PUSH1 0x1 PUSH1 0x1 PUSH1 0x40 SHL SUB PUSH1 0x4 CALLDATALOAD DUP2 DUP2 GT PUSH2 0x130 JUMPI PUSH2 0x16DD SWAP1 CALLDATASIZE SWAP1 PUSH1 0x4 ADD PUSH2 0x1921 JUMP JUMPDEST SWAP2 PUSH2 0x16E6 PUSH2 0x1BA7 JUMP JUMPDEST DUP3 MLOAD SWAP2 DUP3 GT PUSH2 0x971 JUMPI PUSH2 0x16FA PUSH1 0x2 SLOAD PUSH2 0x1AC7 JUMP JUMPDEST PUSH1 0x1F DUP2 GT PUSH2 0x17C0 JUMPI JUMPDEST POP DUP1 PUSH1 0x1F DUP4 GT PUSH1 0x1 EQ PUSH2 0x173F JUMPI POP DUP2 SWAP3 PUSH1 0x0 SWAP3 PUSH2 0x1734 JUMPI JUMPDEST POP POP PUSH1 0x0 NOT PUSH1 0x3 DUP4 SWAP1 SHL SHR NOT AND PUSH1 0x1 SWAP2 SWAP1 SWAP2 SHL OR PUSH1 0x2 SSTORE STOP JUMPDEST ADD MLOAD SWAP1 POP DUP3 DUP1 PUSH2 0x171B JUMP JUMPDEST SWAP1 PUSH1 0x1F NOT DUP4 AND SWAP4 PUSH1 0x2 PUSH1 0x0 MSTORE PUSH32 0x405787FA12A823E0F2B7631CC41B3BA8828B3321CA811111FA75CD3AA3BB5ACE SWAP3 PUSH1 0x0 SWAP1 JUMPDEST DUP7 DUP3 LT PUSH2 0x17A8 JUMPI POP POP DUP4 PUSH1 0x1 SWAP6 LT PUSH2 0x178F JUMPI JUMPDEST POP POP POP DUP2 SHL ADD PUSH1 0x2 SSTORE STOP JUMPDEST ADD MLOAD PUSH1 0x0 NOT PUSH1 0xF8 DUP5 PUSH1 0x3 SHL AND SHR NOT AND SWAP1 SSTORE DUP3 DUP1 DUP1 PUSH2 0x1784 JUMP JUMPDEST DUP1 PUSH1 0x1 DUP6 SWAP7 DUP3 SWAP5 SWAP7 DUP7 ADD MLOAD DUP2 SSTORE ADD SWAP6 ADD SWAP4 ADD SWAP1 PUSH2 0x1771 JUMP JUMPDEST PUSH1 0x2 PUSH1 0x0 MSTORE PUSH32 0x405787FA12A823E0F2B7631CC41B3BA8828B3321CA811111FA75CD3AA3BB5ACE PUSH1 0x1F DUP5 ADD PUSH1 0x5 SHR DUP2 ADD SWAP2 DUP4 DUP6 LT PUSH2 0x181A JUMPI JUMPDEST PUSH1 0x1F ADD PUSH1 0x5 SHR ADD SWAP1 JUMPDEST DUP2 DUP2 LT PUSH2 0x180E JUMPI POP PUSH2 0x1703 JUMP JUMPDEST PUSH1 0x0 DUP2 SSTORE PUSH1 0x1 ADD PUSH2 0x1801 JUMP JUMPDEST SWAP1 SWAP2 POP DUP2 SWAP1 PUSH2 0x17F8 JUMP JUMPDEST CALLVALUE PUSH2 0x130 JUMPI PUSH1 0x20 CALLDATASIZE PUSH1 0x3 NOT ADD SLT PUSH2 0x130 JUMPI PUSH1 0x4 CALLDATALOAD PUSH4 0xFFFFFFFF PUSH1 0xE0 SHL DUP2 AND DUP1 SWAP2 SUB PUSH2 0x130 JUMPI PUSH1 0x20 SWAP1 PUSH4 0x6CDB3D13 PUSH1 0xE1 SHL DUP2 EQ SWAP1 DUP2 ISZERO PUSH2 0x1881 JUMPI JUMPDEST DUP2 ISZERO PUSH2 0x1870 JUMPI JUMPDEST POP PUSH1 0x40 MLOAD SWAP1 ISZERO ISZERO DUP2 MSTORE RETURN JUMPDEST PUSH4 0x1FFC9A7 PUSH1 0xE0 SHL EQ SWAP1 POP DUP3 PUSH2 0x1865 JUMP JUMPDEST PUSH4 0x3A24D07 PUSH1 0xE2 SHL DUP2 EQ SWAP2 POP PUSH2 0x185E JUMP JUMPDEST CALLVALUE PUSH2 0x130 JUMPI PUSH1 0x40 CALLDATASIZE PUSH1 0x3 NOT ADD SLT PUSH2 0x130 JUMPI PUSH1 0x20 PUSH2 0x128 PUSH2 0x18B0 PUSH2 0x18B9 JUMP JUMPDEST PUSH1 0x24 CALLDATALOAD SWAP1 PUSH2 0x1BFF JUMP JUMPDEST PUSH1 0x4 CALLDATALOAD SWAP1 PUSH1 0x1 PUSH1 0x1 PUSH1 0xA0 SHL SUB DUP3 AND DUP3 SUB PUSH2 0x130 JUMPI JUMP JUMPDEST PUSH1 0x24 CALLDATALOAD SWAP1 PUSH1 0x1 PUSH1 0x1 PUSH1 0xA0 SHL SUB DUP3 AND DUP3 SUB PUSH2 0x130 JUMPI JUMP JUMPDEST SWAP1 PUSH1 0x1F DUP1 NOT SWAP2 ADD AND DUP2 ADD SWAP1 DUP2 LT PUSH1 0x1 PUSH1 0x1 PUSH1 0x40 SHL SUB DUP3 GT OR PUSH2 0x971 JUMPI PUSH1 0x40 MSTORE JUMP JUMPDEST PUSH1 0x1 PUSH1 0x1 PUSH1 0x40 SHL SUB DUP2 GT PUSH2 0x971 JUMPI PUSH1 0x1F ADD PUSH1 0x1F NOT AND PUSH1 0x20 ADD SWAP1 JUMP JUMPDEST DUP2 PUSH1 0x1F DUP3 ADD SLT ISZERO PUSH2 0x130 JUMPI DUP1 CALLDATALOAD SWAP1 PUSH2 0x1938 DUP3 PUSH2 0x1906 JUMP JUMPDEST SWAP3 PUSH2 0x1946 PUSH1 0x40 MLOAD SWAP5 DUP6 PUSH2 0x18E5 JUMP JUMPDEST DUP3 DUP5 MSTORE PUSH1 0x20 DUP4 DUP4 ADD ADD GT PUSH2 0x130 JUMPI DUP2 PUSH1 0x0 SWAP3 PUSH1 0x20 DUP1 SWAP4 ADD DUP4 DUP7 ADD CALLDATACOPY DUP4 ADD ADD MSTORE SWAP1 JUMP JUMPDEST PUSH1 0x0 JUMPDEST DUP4 DUP2 LT PUSH2 0x197B JUMPI POP POP PUSH1 0x0 SWAP2 ADD MSTORE JUMP JUMPDEST DUP2 DUP2 ADD MLOAD DUP4 DUP3 ADD MSTORE PUSH1 0x20 ADD PUSH2 0x196B JUMP JUMPDEST SWAP1 PUSH1 0x20 SWAP2 PUSH2 0x19A4 DUP2 MLOAD DUP1 SWAP3 DUP2 DUP6 MSTORE DUP6 DUP1 DUP7 ADD SWAP2 ADD PUSH2 0x1968 JUMP JUMPDEST PUSH1 0x1F ADD PUSH1 0x1F NOT AND ADD ADD SWAP1 JUMP JUMPDEST PUSH1 0x1 PUSH1 0x1 PUSH1 0x40 SHL SUB DUP2 GT PUSH2 0x971 JUMPI PUSH1 0x5 SHL PUSH1 0x20 ADD SWAP1 JUMP JUMPDEST DUP2 PUSH1 0x1F DUP3 ADD SLT ISZERO PUSH2 0x130 JUMPI DUP1 CALLDATALOAD SWAP2 PUSH2 0x19DE DUP4 PUSH2 0x19B0 JUMP JUMPDEST SWAP3 PUSH2 0x19EC PUSH1 0x40 MLOAD SWAP5 DUP6 PUSH2 0x18E5 JUMP JUMPDEST DUP1 DUP5 MSTORE PUSH1 0x20 SWAP3 DUP4 DUP1 DUP7 ADD SWAP3 PUSH1 0x5 SHL DUP3 ADD ADD SWAP3 DUP4 GT PUSH2 0x130 JUMPI DUP4 ADD SWAP1 JUMPDEST DUP3 DUP3 LT PUSH2 0x1A16 JUMPI POP POP POP POP SWAP1 JUMP JUMPDEST DUP2 CALLDATALOAD DUP2 MSTORE SWAP1 DUP4 ADD SWAP1 DUP4 ADD PUSH2 0x1A08 JUMP JUMPDEST DUP2 PUSH1 0x1F DUP3 ADD SLT ISZERO PUSH2 0x130 JUMPI DUP1 CALLDATALOAD SWAP2 PUSH2 0x1A3C DUP4 PUSH2 0x19B0 JUMP JUMPDEST SWAP3 PUSH2 0x1A4A PUSH1 0x40 MLOAD SWAP5 DUP6 PUSH2 0x18E5 JUMP JUMPDEST DUP1 DUP5 MSTORE PUSH1 0x20 SWAP3 DUP4 DUP1 DUP7 ADD SWAP3 PUSH1 0x5 SHL DUP3 ADD ADD SWAP3 DUP4 GT PUSH2 0x130 JUMPI DUP4 ADD SWAP1 JUMPDEST DUP3 DUP3 LT PUSH2 0x1A74 JUMPI POP POP POP POP SWAP1 JUMP JUMPDEST DUP2 CALLDATALOAD PUSH1 0x1 PUSH1 0x1 PUSH1 0xA0 SHL SUB DUP2 AND DUP2 SUB PUSH2 0x130 JUMPI DUP2 MSTORE SWAP1 DUP4 ADD SWAP1 DUP4 ADD PUSH2 0x1A66 JUMP JUMPDEST SWAP1 DUP2 MLOAD DUP1 DUP3 MSTORE PUSH1 0x20 DUP1 DUP1 SWAP4 ADD SWAP4 ADD SWAP2 PUSH1 0x0 JUMPDEST DUP3 DUP2 LT PUSH2 0x1AB3 JUMPI POP POP POP POP SWAP1 JUMP JUMPDEST DUP4 MLOAD DUP6 MSTORE SWAP4 DUP2 ADD SWAP4 SWAP3 DUP2 ADD SWAP3 PUSH1 0x1 ADD PUSH2 0x1AA5 JUMP JUMPDEST SWAP1 PUSH1 0x1 DUP3 DUP2 SHR SWAP3 AND DUP1 ISZERO PUSH2 0x1AF7 JUMPI JUMPDEST PUSH1 0x20 DUP4 LT EQ PUSH2 0x1AE1 JUMPI JUMP JUMPDEST PUSH4 0x4E487B71 PUSH1 0xE0 SHL PUSH1 0x0 MSTORE PUSH1 0x22 PUSH1 0x4 MSTORE PUSH1 0x24 PUSH1 0x0 REVERT JUMPDEST SWAP2 PUSH1 0x7F AND SWAP2 PUSH2 0x1AD6 JUMP JUMPDEST SWAP1 PUSH1 0x40 MLOAD SWAP2 DUP3 PUSH1 0x0 DUP3 SLOAD SWAP3 PUSH2 0x1B15 DUP5 PUSH2 0x1AC7 JUMP JUMPDEST SWAP1 DUP2 DUP5 MSTORE PUSH1 0x1 SWAP5 DUP6 DUP2 AND SWAP1 DUP2 PUSH1 0x0 EQ PUSH2 0x1B84 JUMPI POP PUSH1 0x1 EQ PUSH2 0x1B41 JUMPI JUMPDEST POP POP PUSH2 0x1B3F SWAP3 POP SUB DUP4 PUSH2 0x18E5 JUMP JUMPDEST JUMP JUMPDEST SWAP1 SWAP4 SWAP2 POP PUSH1 0x0 MSTORE PUSH1 0x20 SWAP1 DUP2 PUSH1 0x0 KECCAK256 SWAP4 PUSH1 0x0 SWAP2 JUMPDEST DUP2 DUP4 LT PUSH2 0x1B6C JUMPI POP POP PUSH2 0x1B3F SWAP4 POP DUP3 ADD ADD CODESIZE DUP1 PUSH2 0x1B31 JUMP JUMPDEST DUP6 SLOAD DUP9 DUP5 ADD DUP6 ADD MSTORE SWAP5 DUP6 ADD SWAP5 DUP8 SWAP5 POP SWAP2 DUP4 ADD SWAP2 PUSH2 0x1B54 JUMP JUMPDEST SWAP2 POP POP PUSH2 0x1B3F SWAP5 POP PUSH1 0x20 SWAP3 POP PUSH1 0xFF NOT AND DUP3 DUP5 ADD MSTORE ISZERO ISZERO PUSH1 0x5 SHL DUP3 ADD ADD CODESIZE DUP1 PUSH2 0x1B31 JUMP JUMPDEST PUSH1 0x3 SLOAD PUSH1 0x1 PUSH1 0x1 PUSH1 0xA0 SHL SUB AND CALLER SUB PUSH2 0x1BBB JUMPI JUMP JUMPDEST PUSH1 0x64 PUSH1 0x40 MLOAD PUSH3 0x461BCD PUSH1 0xE5 SHL DUP2 MSTORE PUSH1 0x20 PUSH1 0x4 DUP3 ADD MSTORE PUSH1 0x20 PUSH1 0x24 DUP3 ADD MSTORE PUSH32 0x4F776E61626C653A2063616C6C6572206973206E6F7420746865206F776E6572 PUSH1 0x44 DUP3 ADD MSTORE REVERT JUMPDEST PUSH1 0x1 PUSH1 0x1 PUSH1 0xA0 SHL SUB AND SWAP1 DUP2 ISZERO PUSH2 0x1C2C JUMPI PUSH1 0x0 MSTORE PUSH1 0x0 PUSH1 0x20 MSTORE PUSH1 0x40 PUSH1 0x0 KECCAK256 SWAP1 PUSH1 0x0 MSTORE PUSH1 0x20 MSTORE PUSH1 0x40 PUSH1 0x0 KECCAK256 SLOAD SWAP1 JUMP JUMPDEST PUSH1 0x40 MLOAD PUSH3 0x461BCD PUSH1 0xE5 SHL DUP2 MSTORE PUSH1 0x20 PUSH1 0x4 DUP3 ADD MSTORE PUSH1 0x2A PUSH1 0x24 DUP3 ADD MSTORE PUSH32 0x455243313135353A2061646472657373207A65726F206973206E6F7420612076 PUSH1 0x44 DUP3 ADD MSTORE PUSH10 0x30B634B21037BBB732B9 PUSH1 0xB1 SHL PUSH1 0x64 DUP3 ADD MSTORE PUSH1 0x84 SWAP1 REVERT JUMPDEST PUSH1 0x0 NOT DUP2 EQ PUSH2 0x1C93 JUMPI PUSH1 0x1 ADD SWAP1 JUMP JUMPDEST PUSH4 0x4E487B71 PUSH1 0xE0 SHL PUSH1 0x0 MSTORE PUSH1 0x11 PUSH1 0x4 MSTORE PUSH1 0x24 PUSH1 0x0 REVERT JUMPDEST DUP1 MLOAD DUP3 LT ISZERO PUSH2 0x1CBD JUMPI PUSH1 0x20 SWAP2 PUSH1 0x5 SHL ADD ADD SWAP1 JUMP JUMPDEST PUSH4 0x4E487B71 PUSH1 0xE0 SHL PUSH1 0x0 MSTORE PUSH1 0x32 PUSH1 0x4 MSTORE PUSH1 0x24 PUSH1 0x0 REVERT JUMPDEST ISZERO PUSH2 0x1CDA JUMPI JUMP JUMPDEST PUSH1 0x40 MLOAD PUSH3 0x461BCD PUSH1 0xE5 SHL DUP2 MSTORE PUSH1 0x20 PUSH1 0x4 DUP3 ADD MSTORE PUSH1 0x2E PUSH1 0x24 DUP3 ADD MSTORE PUSH32 0x455243313135353A2063616C6C6572206973206E6F7420746F6B656E206F776E PUSH1 0x44 DUP3 ADD MSTORE PUSH14 0x195C881BDC88185C1C1C9BDD9959 PUSH1 0x92 SHL PUSH1 0x64 DUP3 ADD MSTORE PUSH1 0x84 SWAP1 REVERT JUMPDEST ISZERO PUSH2 0x1D3D JUMPI JUMP JUMPDEST PUSH1 0x40 MLOAD PUSH3 0x461BCD PUSH1 0xE5 SHL DUP2 MSTORE PUSH1 0x20 PUSH1 0x4 DUP3 ADD MSTORE PUSH1 0x25 PUSH1 0x24 DUP3 ADD MSTORE PUSH32 0x455243313135353A207472616E7366657220746F20746865207A65726F206164 PUSH1 0x44 DUP3 ADD MSTORE PUSH5 0x6472657373 PUSH1 0xD8 SHL PUSH1 0x64 DUP3 ADD MSTORE PUSH1 0x84 SWAP1 REVERT JUMPDEST ISZERO PUSH2 0x1D97 JUMPI JUMP JUMPDEST PUSH1 0x40 MLOAD PUSH3 0x461BCD PUSH1 0xE5 SHL DUP2 MSTORE PUSH1 0x20 PUSH1 0x4 DUP3 ADD MSTORE PUSH1 0x2A PUSH1 0x24 DUP3 ADD MSTORE PUSH32 0x455243313135353A20696E73756666696369656E742062616C616E636520666F PUSH1 0x44 DUP3 ADD MSTORE PUSH10 0x39103A3930B739B332B9 PUSH1 0xB1 SHL PUSH1 0x64 DUP3 ADD MSTORE PUSH1 0x84 SWAP1 REVERT JUMPDEST SWAP2 SWAP1 DUP3 ADD DUP1 SWAP3 GT PUSH2 0x1C93 JUMPI JUMP JUMPDEST SWAP1 DUP2 PUSH1 0x20 SWAP2 SUB SLT PUSH2 0x130 JUMPI MLOAD PUSH1 0x1 PUSH1 0x1 PUSH1 0xE0 SHL SUB NOT DUP2 AND DUP2 SUB PUSH2 0x130 JUMPI SWAP1 JUMP JUMPDEST PUSH1 0x0 SWAP1 PUSH1 0x3 RETURNDATASIZE GT PUSH2 0x1E29 JUMPI JUMP JUMPDEST SWAP1 POP PUSH1 0x4 PUSH1 0x0 DUP1 RETURNDATACOPY PUSH1 0x0 MLOAD PUSH1 0xE0 SHR SWAP1 JUMP JUMPDEST PUSH1 0x0 PUSH1 0x44 RETURNDATASIZE LT PUSH2 0x1E97 JUMPI PUSH1 0x40 MLOAD PUSH1 0x3 NOT SWAP2 RETURNDATASIZE DUP4 ADD PUSH1 0x4 DUP4 RETURNDATACOPY DUP2 MLOAD PUSH1 0x1 PUSH1 0x1 PUSH1 0x40 SHL SUB SWAP2 DUP3 DUP3 GT RETURNDATASIZE PUSH1 0x24 DUP5 ADD GT OR PUSH2 0x1E9A JUMPI DUP2 DUP5 ADD SWAP5 DUP6 MLOAD SWAP4 DUP5 GT PUSH2 0x1EA2 JUMPI RETURNDATASIZE DUP6 ADD ADD PUSH1 0x20 DUP5 DUP8 ADD ADD GT PUSH2 0x1E9A JUMPI POP PUSH2 0x1E97 SWAP3 SWAP2 ADD PUSH1 0x20 ADD SWAP1 PUSH2 0x18E5 JUMP JUMPDEST SWAP1 JUMP JUMPDEST SWAP5 SWAP4 POP POP POP POP JUMP JUMPDEST POP SWAP5 SWAP4 POP POP POP POP JUMP JUMPDEST PUSH1 0x80 SWAP1 PUSH1 0x20 DUP2 MSTORE PUSH1 0x34 PUSH1 0x20 DUP3 ADD MSTORE PUSH32 0x455243313135353A207472616E7366657220746F206E6F6E2D45524331313535 PUSH1 0x40 DUP3 ADD MSTORE PUSH20 0x2932B1B2B4BB32B91034B6B83632B6B2B73A32B9 PUSH1 0x61 SHL PUSH1 0x60 DUP3 ADD MSTORE ADD SWAP1 JUMP JUMPDEST PUSH1 0x40 MLOAD SWAP1 PUSH1 0x40 DUP3 ADD DUP3 DUP2 LT PUSH1 0x1 PUSH1 0x1 PUSH1 0x40 SHL SUB DUP3 GT OR PUSH2 0x971 JUMPI PUSH1 0x40 MSTORE PUSH1 0x1 DUP3 MSTORE PUSH1 0x20 DUP3 ADD PUSH1 0x20 CALLDATASIZE DUP3 CALLDATACOPY DUP3 MLOAD ISZERO PUSH2 0x1CBD JUMPI MSTORE SWAP1 JUMP JUMPDEST ISZERO PUSH2 0x1F3C JUMPI JUMP JUMPDEST PUSH1 0x40 MLOAD PUSH3 0x461BCD PUSH1 0xE5 SHL DUP2 MSTORE PUSH1 0x20 PUSH1 0x4 DUP3 ADD MSTORE PUSH1 0x11 PUSH1 0x24 DUP3 ADD MSTORE PUSH17 0x446F6D61696E206E6F7420616374697665 PUSH1 0x78 SHL PUSH1 0x44 DUP3 ADD MSTORE PUSH1 0x64 SWAP1 REVERT JUMPDEST DUP2 DUP2 MUL SWAP3 SWAP2 DUP2 ISZERO SWAP2 DUP5 DIV EQ OR ISZERO PUSH2 0x1C93 JUMPI JUMP JUMPDEST DUP2 ISZERO PUSH2 0x1F92 JUMPI DIV SWAP1 JUMP JUMPDEST PUSH4 0x4E487B71 PUSH1 0xE0 SHL PUSH1 0x0 MSTORE PUSH1 0x12 PUSH1 0x4 MSTORE PUSH1 0x24 PUSH1 0x0 REVERT JUMPDEST SWAP2 SWAP1 DUP3 SUB SWAP2 DUP3 GT PUSH2 0x1C93 JUMPI JUMP JUMPDEST PUSH1 0x0 SWAP2 DUP2 DUP4 MSTORE PUSH1 0x6 PUSH1 0x20 MSTORE PUSH1 0x40 DUP4 KECCAK256 PUSH1 0xFF PUSH1 0x4 DUP3 ADD SLOAD AND ISZERO PUSH2 0x203E JUMPI PUSH2 0x1FDB DUP4 DUP4 PUSH2 0x1BFF JUMP JUMPDEST SWAP1 DUP2 ISZERO PUSH2 0x2037 JUMPI PUSH1 0x2 PUSH2 0x1423 PUSH2 0x1FFD SWAP4 DUP7 DUP9 MSTORE PUSH1 0x8 PUSH1 0x20 MSTORE PUSH1 0x40 DUP9 KECCAK256 SLOAD PUSH2 0x1F75 JUMP JUMPDEST SWAP2 DUP4 MSTORE PUSH1 0x9 PUSH1 0x20 SWAP1 DUP2 MSTORE PUSH1 0x40 DUP1 DUP6 KECCAK256 PUSH1 0x1 PUSH1 0x1 PUSH1 0xA0 SHL SUB SWAP1 SWAP4 AND DUP6 MSTORE SWAP2 SWAP1 MSTORE DUP3 KECCAK256 SLOAD SWAP1 DUP2 DUP2 GT ISZERO PUSH2 0x2032 JUMPI PUSH2 0x1E97 SWAP3 POP PUSH2 0x1FA8 JUMP JUMPDEST POP POP SWAP1 JUMP JUMPDEST POP POP POP POP SWAP1 JUMP JUMPDEST POP POP POP SWAP1 JUMP INVALID LOG2 PUSH5 0x6970667358 0x22 SLT KECCAK256 0xC1 DUP13 0xB3 0xDD LOG4 0x25 0xFB 0x29 SSTORE SWAP12 0xAB DUP15 JUMPI 0xBB 0x23 PUSH3 0x79E45A PUSH7 0xFDA3C115AD8F35 XOR 0x2A PUSH12 0xDA8C64736F6C634300081400 CALLER "},"methodIdentifiers":{"balanceOf(address,uint256)":"00fdd58e","balanceOfBatch(address[],uint256[])":"4e1273f4","claimRevenue(uint256)":"1cb536ed","depositRevenue(uint256)":"bc1ca3e9","domainNameToId(string)":"9d5fb399","domainRevenue(uint256)":"a5e9279a","domains(uint256)":"66cf8fab","fractionalizeDomain(string,uint256,uint256,address[],uint256[])":"d3102953","getClaimableRevenue(uint256,address)":"fca7095c","getDomainInfo(uint256)":"7d760cac","isApprovedForAll(address,address)":"e985e9c5","owner()":"8da5cb5b","renounceOwnership()":"715018a6","revenueClaimed(uint256,address)":"57e61735","safeBatchTransferFrom(address,address,uint256[],uint256[],bytes)":"2eb2c2d6","safeTransferFrom(address,address,uint256,uint256,bytes)":"f242432a","setApprovalForAll(address,bool)":"a22cb465","setURI(string)":"02fe5305","supportsInterface(bytes4)":"01ffc9a7","transferOwnership(address)":"f2fde38b","uri(uint256)":"0e89341c"}}}}}