{"src/CommunityDeal.sol":{"CommunityDeal":{"abi":[{"inputs":[{"internalType":"address","name":"_domaOwnershipToken","type":"address"},{"internalType":"address","name":"_domaFractionalization","type":"address"}],"stateMutability":"nonpayable","type":"constructor"},{"anonymous":false,"inputs":[{"indexed":true,"internalType":"uint256","name":"dealId","type":"uint256"},{"indexed":true,"internalType":"address","name":"contributor","type":"address"},{"indexed":false,"internalType":"uint256","name":"amount","type":"uint256"}],"name":"ContributionMade","type":"event"},{"anonymous":false,"inputs":[{"indexed":true,"internalType":"uint256","name":"dealId","type":"uint256"}],"name":"DealCancelled","type":"event"},{"anonymous":false,"inputs":[{"indexed":true,"internalType":"uint256","name":"dealId","type":"uint256"},{"indexed":false,"internalType":"string","name":"domainName","type":"string"},{"indexed":true,"internalType":"address","name":"creator","type":"address"},{"indexed":false,"internalType":"uint256","name":"targetPrice","type":"uint256"},{"indexed":false,"internalType":"uint256","name":"deadline","type":"uint256"}],"name":"DealCreated","type":"event"},{"anonymous":false,"inputs":[{"indexed":true,"internalType":"uint256","name":"dealId","type":"uint256"},{"indexed":false,"internalType":"uint256","name":"tokenId","type":"uint256"},{"indexed":false,"internalType":"address","name":"fractionalToken","type":"address"}],"name":"DealExecuted","type":"event"},{"anonymous":false,"inputs":[{"indexed":true,"internalType":"uint256","name":"dealId","type":"uint256"},{"indexed":false,"internalType":"uint256","name":"totalAmount","type":"uint256"}],"name":"DealFunded","type":"event"},{"anonymous":false,"inputs":[{"indexed":true,"internalType":"uint256","name":"dealId","type":"uint256"},{"indexed":false,"internalType":"uint256","name":"tokenId","type":"uint256"}],"name":"DomainPurchased","type":"event"},{"anonymous":false,"inputs":[{"indexed":true,"internalType":"address","name":"previousOwner","type":"address"},{"indexed":true,"internalType":"address","name":"newOwner","type":"address"}],"name":"OwnershipTransferred","type":"event"},{"anonymous":false,"inputs":[{"indexed":true,"internalType":"uint256","name":"dealId","type":"uint256"},{"indexed":true,"internalType":"address","name":"participant","type":"address"},{"indexed":false,"internalType":"uint256","name":"amount","type":"uint256"}],"name":"RefundProcessed","type":"event"},{"anonymous":false,"inputs":[{"indexed":true,"internalType":"uint256","name":"dealId","type":"uint256"},{"indexed":true,"internalType":"bytes32","name":"proposalHash","type":"bytes32"},{"indexed":true,"internalType":"address","name":"voter","type":"address"},{"indexed":false,"internalType":"uint256","name":"shares","type":"uint256"}],"name":"VoteCast","type":"event"},{"inputs":[{"internalType":"uint256","name":"dealId","type":"uint256"}],"name":"cancelDeal","outputs":[],"stateMutability":"nonpayable","type":"function"},{"inputs":[{"internalType":"uint256","name":"dealId","type":"uint256"}],"name":"contribute","outputs":[],"stateMutability":"payable","type":"function"},{"inputs":[{"internalType":"string","name":"domainName","type":"string"},{"internalType":"uint256","name":"targetPrice","type":"uint256"},{"internalType":"uint256","name":"minContribution","type":"uint256"},{"internalType":"uint256","name":"maxParticipants","type":"uint256"},{"internalType":"uint256","name":"durationInDays","type":"uint256"}],"name":"createDeal","outputs":[{"internalType":"uint256","name":"","type":"uint256"}],"stateMutability":"nonpayable","type":"function"},{"inputs":[{"internalType":"uint256","name":"","type":"uint256"},{"internalType":"uint256","name":"","type":"uint256"}],"name":"dealParticipants","outputs":[{"internalType":"address","name":"","type":"address"}],"stateMutability":"view","type":"function"},{"inputs":[{"internalType":"uint256","name":"","type":"uint256"}],"name":"deals","outputs":[{"internalType":"string","name":"domainName","type":"string"},{"internalType":"address","name":"creator","type":"address"},{"internalType":"uint256","name":"targetPrice","type":"uint256"},{"internalType":"uint256","name":"minContribution","type":"uint256"},{"internalType":"uint256","name":"maxParticipants","type":"uint256"},{"internalType":"uint256","name":"currentAmount","type":"uint256"},{"internalType":"uint256","name":"participantCount","type":"uint256"},{"internalType":"uint256","name":"deadline","type":"uint256"},{"internalType":"enum CommunityDeal.DealStatus","name":"status","type":"uint8"},{"internalType":"bool","name":"purchased","type":"bool"},{"internalType":"uint256","name":"domainTokenId","type":"uint256"},{"internalType":"address","name":"fractionalTokenAddress","type":"address"}],"stateMutability":"view","type":"function"},{"inputs":[],"name":"domaFractionalization","outputs":[{"internalType":"address","name":"","type":"address"}],"stateMutability":"view","type":"function"},{"inputs":[],"name":"domaOwnershipToken","outputs":[{"internalType":"contract IERC721","name":"","type":"address"}],"stateMutability":"view","type":"function"},{"inputs":[],"name":"emergencyWithdraw","outputs":[],"stateMutability":"nonpayable","type":"function"},{"inputs":[{"internalType":"uint256","name":"dealId","type":"uint256"}],"name":"getDealInfo","outputs":[{"internalType":"string","name":"domainName","type":"string"},{"internalType":"address","name":"creator","type":"address"},{"internalType":"uint256","name":"targetPrice","type":"uint256"},{"internalType":"uint256","name":"currentAmount","type":"uint256"},{"internalType":"uint256","name":"participantCount","type":"uint256"},{"internalType":"uint256","name":"deadline","type":"uint256"},{"internalType":"enum CommunityDeal.DealStatus","name":"status","type":"uint8"},{"internalType":"bool","name":"purchased","type":"bool"},{"internalType":"uint256","name":"domainTokenId","type":"uint256"},{"internalType":"address","name":"fractionalTokenAddress","type":"address"}],"stateMutability":"view","type":"function"},{"inputs":[{"internalType":"uint256","name":"dealId","type":"uint256"}],"name":"getDealParticipants","outputs":[{"internalType":"address[]","name":"","type":"address[]"}],"stateMutability":"view","type":"function"},{"inputs":[{"internalType":"uint256","name":"dealId","type":"uint256"},{"internalType":"address","name":"participant","type":"address"}],"name":"getParticipantInfo","outputs":[{"internalType":"uint256","name":"contribution","type":"uint256"},{"internalType":"bool","name":"refunded","type":"bool"},{"internalType":"uint256","name":"shares","type":"uint256"}],"stateMutability":"view","type":"function"},{"inputs":[{"internalType":"uint256","name":"dealId","type":"uint256"},{"internalType":"bytes32","name":"proposalHash","type":"bytes32"}],"name":"getProposalVotes","outputs":[{"internalType":"uint256","name":"","type":"uint256"}],"stateMutability":"view","type":"function"},{"inputs":[{"internalType":"uint256","name":"","type":"uint256"},{"internalType":"bytes32","name":"","type":"bytes32"},{"internalType":"address","name":"","type":"address"}],"name":"hasVoted","outputs":[{"internalType":"bool","name":"","type":"bool"}],"stateMutability":"view","type":"function"},{"inputs":[{"internalType":"uint256","name":"dealId","type":"uint256"},{"internalType":"uint256","name":"tokenId","type":"uint256"}],"name":"markDomainPurchased","outputs":[],"stateMutability":"nonpayable","type":"function"},{"inputs":[],"name":"owner","outputs":[{"internalType":"address","name":"","type":"address"}],"stateMutability":"view","type":"function"},{"inputs":[{"internalType":"uint256","name":"","type":"uint256"},{"internalType":"address","name":"","type":"address"}],"name":"participants","outputs":[{"internalType":"uint256","name":"contribution","type":"uint256"},{"internalType":"bool","name":"refunded","type":"bool"},{"internalType":"uint256","name":"shares","type":"uint256"}],"stateMutability":"view","type":"function"},{"inputs":[{"internalType":"uint256","name":"","type":"uint256"},{"internalType":"bytes32","name":"","type":"bytes32"}],"name":"proposalVotes","outputs":[{"internalType":"uint256","name":"","type":"uint256"}],"stateMutability":"view","type":"function"},{"inputs":[{"internalType":"uint256","name":"dealId","type":"uint256"}],"name":"refund","outputs":[],"stateMutability":"nonpayable","type":"function"},{"inputs":[],"name":"renounceOwnership","outputs":[],"stateMutability":"nonpayable","type":"function"},{"inputs":[{"internalType":"address","name":"_domaOwnershipToken","type":"address"},{"internalType":"address","name":"_domaFractionalization","type":"address"}],"name":"setDomaContracts","outputs":[],"stateMutability":"nonpayable","type":"function"},{"inputs":[{"internalType":"uint256","name":"dealId","type":"uint256"},{"internalType":"address","name":"fractionalTokenAddress","type":"address"}],"name":"setFractionalToken","outputs":[],"stateMutability":"nonpayable","type":"function"},{"inputs":[{"internalType":"address","name":"newOwner","type":"address"}],"name":"transferOwnership","outputs":[],"stateMutability":"nonpayable","type":"function"},{"inputs":[{"internalType":"uint256","name":"dealId","type":"uint256"},{"internalType":"bytes32","name":"proposalHash","type":"bytes32"}],"name":"vote","outputs":[],"stateMutability":"nonpayable","type":"function"},{"inputs":[{"internalType":"uint256","name":"dealId","type":"uint256"},{"internalType":"uint256","name":"amount","type":"uint256"}],"name":"withdrawForPurchase","outputs":[],"stateMutability":"nonpayable","type":"function"},{"stateMutability":"payable","type":"receive"}],"evm":{"bytecode":{"linkReferences":{},"object":"6080346100ca57601f62001c2e38819003918201601f19168301916001600160401b038311848410176100cf5780849260409485528339810103126100ca57610053602061004c836100e5565b92016100e5565b6001600081815581546001600160a01b0319808216339081179094556040519590946001600160a01b0394909385938416907f8be0079c531659141344cd1fd0a4f28419497f9722a3daafe3b4186f6b6457e09080a31683600654161760065516906007541617600755611b349081620000fa8239f35b600080fd5b634e487b7160e01b600052604160045260246000fd5b51906001600160a01b03821682036100ca5756fe608080604052600436101561001d575b50361561001b57600080fd5b005b60003560e01c90816302e060c6146117035750806303988f841461162c5780631dee21be146113f157806321dd778114611339578063278ecde11461115757806331ea1a391461100e578063334882af14610fe557806333ef534d14610f8e57806351d3c9be14610f65578063544def1414610bbe57806354eafaf314610b7457806368bb8bb614610980578063715018a61461092357806373a4415c146108635780638da5cb5b1461083a57806399abff4b146107c85780639f228fc414610795578063a7f3957114610795578063a7fbb71914610735578063c1cbbca714610458578063d45b565e1461035a578063d9b9f90514610271578063db2e21bc146101fb5763f2fde38b14610132573861000f565b346101f65760203660031901126101f65761014b611784565b610153611949565b6001600160a01b039081169081156101a257600154826001600160601b0360a01b821617600155167f8be0079c531659141344cd1fd0a4f28419497f9722a3daafe3b4186f6b6457e0600080a3005b60405162461bcd60e51b815260206004820152602660248201527f4f776e61626c653a206e6577206f776e657220697320746865207a65726f206160448201526564647265737360d01b6064820152608490fd5b600080fd5b346101f65760003660031901126101f657610214611949565b47801561023f57600080808061001b9460018060a01b03600154165af1610239611a8e565b50611abe565b60405162461bcd60e51b815260206004820152600a6024820152694e6f2062616c616e636560b01b6044820152606490fd5b346101f65761027f36611905565b906102886119bd565b6000526003602052604060002060ff600882015416906005821015610344576102b5600160059314611a13565b60018101546102d990336001600160a01b0391821614908115610336575b50611a51565b015481116102fc5760008080806102f594335af1610239611a8e565b6001600055005b60405162461bcd60e51b8152602060048201526012602482015271496e73756666696369656e742066756e647360701b6044820152606490fd5b9050600154163314856102d3565b634e487b7160e01b600052602160045260246000fd5b346101f65761036836611905565b6103706119bd565b816000526003602052604060002090600882019081549160ff831660058110156103445760016103a09114611a13565b60018401546103c390336001600160a01b039182161490811561044a5750611a51565b60ff8360081c16610411576101006020938360097f0239b12de3ce7c1fa4114ec34a7ddab14ecc19cc3d6c975c69136368e4c688d497015561ff001916179055604051908152a26001600055005b60405162461bcd60e51b8152602060048201526011602482015270105b1c9958591e481c1d5c98da185cd959607a1b6044820152606490fd5b9050600154163314876102d3565b6020806003193601126101f657600435906104716119bd565b8160005260038152604060002090600882019160ff8354166005811015610344576106fe5760078101544210156106ca57600381015434106106855760058101906104bd3483546119b0565b906002810191825410610649578560005260048452604060002033600052845260406000209081541561057f575b506104f73482546119b0565b90556105043483546119b0565b809255604051348152857f0a4a91237423e0a1766a761c7cb029311d8b95d6b1b81db1b949a70c98b4e08e853393a354811015610542576001600055005b7fc9dd6762e6024e1ec4c28eac8d4c8cc95bce152afd26092bcbf3a184e18b7c1392600160ff19825416179055604051908152a2808080806102f5565b6006810190600482549101548110156106045761059b906119a1565b9055856000526005845260406000208054680100000000000000008110156105ee576105cc9160018201815561191b565b81546001600160a01b0360039290921b91821b19163390911b179055866104eb565b634e487b7160e01b600052604160045260246000fd5b60405162461bcd60e51b815260048101879052601860248201527f4d6178207061727469636970616e7473207265616368656400000000000000006044820152606490fd5b60405162461bcd60e51b8152600481018590526014602482015273457863656564732074617267657420707269636560601b6044820152606490fd5b60405162461bcd60e51b815260048101839052601a60248201527f42656c6f77206d696e696d756d20636f6e747269627574696f6e0000000000006044820152606490fd5b60405162461bcd60e51b815260048101839052600c60248201526b1119585b08195e1c1a5c995960a21b6044820152606490fd5b60405162461bcd60e51b815260048101839052600f60248201526e4465616c206e6f742061637469766560881b6044820152606490fd5b346101f65760603660031901126101f6576044356001600160a01b038116908190036101f65760043560005260096020526040600020602435600052602052604060002090600052602052602060ff604060002054166040519015158152f35b346101f6576107a336611905565b9060005260086020526040600020906000526020526020604060002054604051908152f35b346101f65760403660031901126101f6576107e161176e565b600435600052600460205260406000209060018060a01b031660005260205260406000208054610836600260ff6001850154169301546040519384938460409194939260608201958252151560208201520152565b0390f35b346101f65760003660031901126101f6576001546040516001600160a01b039091168152602090f35b346101f65760203660031901126101f65760043560005260036020526108df604060002060018060a01b0390816001820154169060028101549260ff600583015460068401546007850154906008860154926108ca600988015496600a89015416976117f6565b986040519a8b9a610140808d528c019061189c565b9860208b015260408a01526060890152608088015260a087015261090860c087018383166118dc565b60081c16151560e08501526101008401526101208301520390f35b346101f65760003660031901126101f65761093c611949565b600180546001600160a01b031981169091556000906001600160a01b03167f8be0079c531659141344cd1fd0a4f28419497f9722a3daafe3b4186f6b6457e08280a3005b346101f65761098e36611905565b8160005260209160038352604060002060ff600882015416600581101561034457600203610b3b57600a01546001600160a01b031615610b015780600052600983526040600020826000528352604060002033600052835260ff60406000205416610acc5780600052600483526040600020336000528352600260406000200154928315610a96577f1a0d40d0aba9c3dd876aba44b7f6562cf64dc0cbc3bcf11afbebd67dafd32aae90826000526008815260406000208460005281526040600020610a5b8682546119b0565b90558260005260098152604060002084600052815260406000203360005281526040600020600160ff198254161790556040519485523394a4005b6064906040519062461bcd60e51b82526004820152600f60248201526e139bc81cda185c995cc81bdddb9959608a1b6044820152fd5b60405162461bcd60e51b815260048101849052600d60248201526c105b1c9958591e481d9bdd1959609a1b6044820152606490fd5b60405162461bcd60e51b8152600481018490526012602482015271139bdd08199c9858dd1a5bdb985b1a5e995960721b6044820152606490fd5b60405162461bcd60e51b81526004810185905260116024820152701119585b081b9bdd08195e1958dd5d1959607a1b6044820152606490fd5b346101f657610b8236611905565b906000526005602052604060002080548210156101f657602091610ba59161191b565b905460405160039290921b1c6001600160a01b03168152f35b346101f65760a03660031901126101f65767ffffffffffffffff6004358181116101f657366023820112156101f6578060040135610bfb816118e9565b91610c0960405193846117d4565b81835236602483830101116101f65781600092602460209301838601378301015260243515610f205760443515610edb5760016064351115610e9657608435151580610e89575b15610e5157610c606002546119a1565b80600255806000526003602052604060002082519384116105ee57610c85815461179a565b601f8111610e0d575b50602093601f8111600114610da8578091929394600091610d9d575b508160011b916000199060031b1c19161781555b60018101336001600160601b0360a01b82541617905560243560028201556044356003820155606435600482015560006005820155600060068201556201518092836084350293608435850414608435151715610d87577ff89674fb19c88c56fe15fa9c5879a3415b720f6e21b762f6e92f02167d84fe1f83916008610d46602097426119b0565b948560078201550161ffff198154169055610d6c6040519160608352606083019061189c565b936024358783015260408201528033940390a3604051908152f35b634e487b7160e01b600052601160045260246000fd5b905084015185610caa565b601f198116948260005260206000209060005b878110610df557508260019495969710610ddc575b5050811b018155610cbe565b86015160001960f88460031b161c191690558580610dd0565b9091602060018192858a015181550193019101610dbb565b816000526020600020601f860160051c810160208710610e4a575b601f830160051c82018110610e3e575050610c8e565b60008155600101610e28565b5080610e28565b60405162461bcd60e51b815260206004820152601060248201526f24b73b30b634b210323ab930ba34b7b760811b6044820152606490fd5b50605a6084351115610c50565b60405162461bcd60e51b815260206004820152601c60248201527f4d6178207061727469636970616e7473206d757374206265203e2031000000006044820152606490fd5b60405162461bcd60e51b815260206004820152601c60248201527f4d696e20636f6e747269627574696f6e206d757374206265203e2030000000006044820152606490fd5b60405162461bcd60e51b815260206004820152601860248201527f546172676574207072696365206d757374206265203e203000000000000000006044820152606490fd5b346101f65760003660031901126101f6576007546040516001600160a01b039091168152602090f35b346101f65760403660031901126101f657610fa7611784565b610faf61176e565b610fb7611949565b600680546001600160a01b039384166001600160a01b03199182161790915560078054929093169116179055005b346101f65760003660031901126101f6576006546040516001600160a01b039091168152602090f35b346101f65760203660031901126101f6576004356000818152600360205260409020600181015461105390336001600160a01b03918216149081156111495750611a51565b600881019081549060ff82166005811015610344576111045760078101544210908115916110f7575b50156110b25760ff191660031790557f31b0c01e8429f81903c3f8adc204767b8efa7cfca91a00f3b4bb40ce63c8a206600080a2005b60405162461bcd60e51b815260206004820152601e60248201527f4465616c20616374697665207769746820636f6e747269627574696f6e7300006044820152606490fd5b600591500154158461107c565b60405162461bcd60e51b815260206004820152601760248201527f43616e6e6f742063616e63656c2074686973206465616c0000000000000000006044820152606490fd5b9050600154163314846102d3565b346101f6576020806003193601126101f6576004356111746119bd565b806000526003825260406000209160048152604060002033600052815260406000209260ff6008820154169060058210156103445760038214918215611319575b5050156112de57825492831561129957600101805460ff81166112615760ff19166001179055600080808086335af16111ec611a8e565b5015611224577f79ff6a60b3e21b3630b207e2a7b0b50b69b197d3d7ca776108ed2afb8fbac8dc906040519384523393a36001600055005b6064906040519062461bcd60e51b8252600482015260166024820152751499599d5b99081d1c985b9cd9995c8819985a5b195960521b6044820152fd5b60405162461bcd60e51b815260048101849052601060248201526f105b1c9958591e481c99599d5b99195960821b6044820152606490fd5b60405162461bcd60e51b815260048101839052601960248201527f4e6f20636f6e747269627574696f6e20746f20726566756e64000000000000006044820152606490fd5b6064906040519062461bcd60e51b825260048201526014602482015273526566756e64206e6f7420617661696c61626c6560601b6044820152fd5b1591508161132a575b5084806111b5565b60079150015442101584611322565b346101f6576020806003193601126101f65760043560005260058152604060002060405190818382549182815201908192600052846000209060005b868282106113d457868661138b828803836117d4565b604051928392818401908285525180915260408401929160005b8281106113b457505050500390f35b83516001600160a01b0316855286955093810193928101926001016113a5565b83546001600160a01b031685529093019260019283019201611375565b346101f65760403660031901126101f65760043561140d61176e565b8160005260209060038252604060002060088101805460ff8160081c16156115f0576001838101546001600160a01b0393908416331480156115e4575b61145390611a51565b600a85018054968588166115b15785909493941680976001600160601b0360a01b161790556002809260ff19161790558660005260059283875260406000206040519081898254918281520191600052896000209060005b8b82821061159c5750505050946114c882869796959603836117d4565b6000858801945b61150b575b8a7f0b2ecc77d468f0fcfdc9a0c456e32f072c63659008b1b9413b5f0111eb3470c760408c8c60098d0154918351928352820152a2005b825181101561159757838a82841b8501015116908b60005260048b526040600020826000528b5260406000205461271090818102918183041490151715610d875786549081156115815761157b9360048f8f90600052526040600020906000528d520487604060002001556119a1565b866114cf565b634e487b7160e01b600052601260045260246000fd5b6114d4565b835487168552909301929187019187016114ab565b60405162461bcd60e51b8152600481018a9052600b60248201526a105b1c9958591e481cd95d60aa1b6044820152606490fd5b5081548416331461144a565b60405162461bcd60e51b8152600481018690526014602482015273111bdb585a5b881b9bdd081c1d5c98da185cd95960621b6044820152606490fd5b346101f65760203660031901126101f65760043560005260036020526116b36040600020611659816117f6565b9060018060a01b03806001830154169160ff600282015492600383015460048401546005850154600686015491600787015493600888015495600a60098a015499015416986040519c8d9c8d61018090818152019061189c565b9a60208d015260408c015260608b015260808a015260a089015260c088015260e08701526116e761010087018383166118dc565b60081c1615156101208501526101408401526101608301520390f35b346101f65760403660031901126101f65761171c61176e565b600435600052600460205260406000209060018060a01b0316600052602052806108366040600020805490600260ff600183015416910154918460409194939260608201958252151560208201520152565b602435906001600160a01b03821682036101f657565b600435906001600160a01b03821682036101f657565b90600182811c921680156117ca575b60208310146117b457565b634e487b7160e01b600052602260045260246000fd5b91607f16916117a9565b90601f8019910116810190811067ffffffffffffffff8211176105ee57604052565b906040519182600082549261180a8461179a565b9081845260019485811690816000146118795750600114611836575b5050611834925003836117d4565b565b9093915060005260209081600020936000915b81831061186157505061183493508201013880611826565b85548884018501529485019487945091830191611849565b91505061183494506020925060ff191682840152151560051b8201013880611826565b919082519283825260005b8481106118c8575050826000602080949584010152601f8019910116010190565b6020818301810151848301820152016118a7565b9060058210156103445752565b67ffffffffffffffff81116105ee57601f01601f191660200190565b60409060031901126101f6576004359060243590565b80548210156119335760005260206000200190600090565b634e487b7160e01b600052603260045260246000fd5b6001546001600160a01b0316330361195d57565b606460405162461bcd60e51b815260206004820152602060248201527f4f776e61626c653a2063616c6c6572206973206e6f7420746865206f776e65726044820152fd5b6000198114610d875760010190565b91908201809211610d8757565b6002600054146119ce576002600055565b60405162461bcd60e51b815260206004820152601f60248201527f5265656e7472616e637947756172643a207265656e7472616e742063616c6c006044820152606490fd5b15611a1a57565b60405162461bcd60e51b815260206004820152600f60248201526e1119585b081b9bdd08199d5b991959608a1b6044820152606490fd5b15611a5857565b60405162461bcd60e51b815260206004820152600e60248201526d139bdd08185d5d1a1bdc9a5e995960921b6044820152606490fd5b3d15611ab9573d90611a9f826118e9565b91611aad60405193846117d4565b82523d6000602084013e565b606090565b15611ac557565b60405162461bcd60e51b815260206004820152601160248201527015da5d1a191c985dd85b0819985a5b1959607a1b6044820152606490fdfea26469706673582212201dac915783e417a8fc7651de0a8051bd986752ade0e2e92261f66949c3f4f8ea64736f6c63430008140033","opcodes":"PUSH1 0x80 CALLVALUE PUSH2 0xCA JUMPI PUSH1 0x1F PUSH3 0x1C2E CODESIZE DUP2 SWAP1 SUB SWAP2 DUP3 ADD PUSH1 0x1F NOT AND DUP4 ADD SWAP2 PUSH1 0x1 PUSH1 0x1 PUSH1 0x40 SHL SUB DUP4 GT DUP5 DUP5 LT OR PUSH2 0xCF JUMPI DUP1 DUP5 SWAP3 PUSH1 0x40 SWAP5 DUP6 MSTORE DUP4 CODECOPY DUP2 ADD SUB SLT PUSH2 0xCA JUMPI PUSH2 0x53 PUSH1 0x20 PUSH2 0x4C DUP4 PUSH2 0xE5 JUMP JUMPDEST SWAP3 ADD PUSH2 0xE5 JUMP JUMPDEST PUSH1 0x1 PUSH1 0x0 DUP2 DUP2 SSTORE DUP2 SLOAD PUSH1 0x1 PUSH1 0x1 PUSH1 0xA0 SHL SUB NOT DUP1 DUP3 AND CALLER SWAP1 DUP2 OR SWAP1 SWAP5 SSTORE PUSH1 0x40 MLOAD SWAP6 SWAP1 SWAP5 PUSH1 0x1 PUSH1 0x1 PUSH1 0xA0 SHL SUB SWAP5 SWAP1 SWAP4 DUP6 SWAP4 DUP5 AND SWAP1 PUSH32 0x8BE0079C531659141344CD1FD0A4F28419497F9722A3DAAFE3B4186F6B6457E0 SWAP1 DUP1 LOG3 AND DUP4 PUSH1 0x6 SLOAD AND OR PUSH1 0x6 SSTORE AND SWAP1 PUSH1 0x7 SLOAD AND OR PUSH1 0x7 SSTORE PUSH2 0x1B34 SWAP1 DUP2 PUSH3 0xFA DUP3 CODECOPY RETURN JUMPDEST PUSH1 0x0 DUP1 REVERT JUMPDEST PUSH4 0x4E487B71 PUSH1 0xE0 SHL PUSH1 0x0 MSTORE PUSH1 0x41 PUSH1 0x4 MSTORE PUSH1 0x24 PUSH1 0x0 REVERT JUMPDEST MLOAD SWAP1 PUSH1 0x1 PUSH1 0x1 PUSH1 0xA0 SHL SUB DUP3 AND DUP3 SUB PUSH2 0xCA JUMPI JUMP INVALID PUSH1 0x80 DUP1 PUSH1 0x40 MSTORE PUSH1 0x4 CALLDATASIZE LT ISZERO PUSH2 0x1D JUMPI JUMPDEST POP CALLDATASIZE ISZERO PUSH2 0x1B JUMPI PUSH1 0x0 DUP1 REVERT JUMPDEST STOP JUMPDEST PUSH1 0x0 CALLDATALOAD PUSH1 0xE0 SHR SWAP1 DUP2 PUSH4 0x2E060C6 EQ PUSH2 0x1703 JUMPI POP DUP1 PUSH4 0x3988F84 EQ PUSH2 0x162C JUMPI DUP1 PUSH4 0x1DEE21BE EQ PUSH2 0x13F1 JUMPI DUP1 PUSH4 0x21DD7781 EQ PUSH2 0x1339 JUMPI DUP1 PUSH4 0x278ECDE1 EQ PUSH2 0x1157 JUMPI DUP1 PUSH4 0x31EA1A39 EQ PUSH2 0x100E JUMPI DUP1 PUSH4 0x334882AF EQ PUSH2 0xFE5 JUMPI DUP1 PUSH4 0x33EF534D EQ PUSH2 0xF8E JUMPI DUP1 PUSH4 0x51D3C9BE EQ PUSH2 0xF65 JUMPI DUP1 PUSH4 0x544DEF14 EQ PUSH2 0xBBE JUMPI DUP1 PUSH4 0x54EAFAF3 EQ PUSH2 0xB74 JUMPI DUP1 PUSH4 0x68BB8BB6 EQ PUSH2 0x980 JUMPI DUP1 PUSH4 0x715018A6 EQ PUSH2 0x923 JUMPI DUP1 PUSH4 0x73A4415C EQ PUSH2 0x863 JUMPI DUP1 PUSH4 0x8DA5CB5B EQ PUSH2 0x83A JUMPI DUP1 PUSH4 0x99ABFF4B EQ PUSH2 0x7C8 JUMPI DUP1 PUSH4 0x9F228FC4 EQ PUSH2 0x795 JUMPI DUP1 PUSH4 0xA7F39571 EQ PUSH2 0x795 JUMPI DUP1 PUSH4 0xA7FBB719 EQ PUSH2 0x735 JUMPI DUP1 PUSH4 0xC1CBBCA7 EQ PUSH2 0x458 JUMPI DUP1 PUSH4 0xD45B565E EQ PUSH2 0x35A JUMPI DUP1 PUSH4 0xD9B9F905 EQ PUSH2 0x271 JUMPI DUP1 PUSH4 0xDB2E21BC EQ PUSH2 0x1FB JUMPI PUSH4 0xF2FDE38B EQ PUSH2 0x132 JUMPI CODESIZE PUSH2 0xF JUMP JUMPDEST CALLVALUE PUSH2 0x1F6 JUMPI PUSH1 0x20 CALLDATASIZE PUSH1 0x3 NOT ADD SLT PUSH2 0x1F6 JUMPI PUSH2 0x14B PUSH2 0x1784 JUMP JUMPDEST PUSH2 0x153 PUSH2 0x1949 JUMP JUMPDEST PUSH1 0x1 PUSH1 0x1 PUSH1 0xA0 SHL SUB SWAP1 DUP2 AND SWAP1 DUP2 ISZERO PUSH2 0x1A2 JUMPI PUSH1 0x1 SLOAD DUP3 PUSH1 0x1 PUSH1 0x1 PUSH1 0x60 SHL SUB PUSH1 0xA0 SHL DUP3 AND OR PUSH1 0x1 SSTORE AND PUSH32 0x8BE0079C531659141344CD1FD0A4F28419497F9722A3DAAFE3B4186F6B6457E0 PUSH1 0x0 DUP1 LOG3 STOP JUMPDEST PUSH1 0x40 MLOAD PUSH3 0x461BCD PUSH1 0xE5 SHL DUP2 MSTORE PUSH1 0x20 PUSH1 0x4 DUP3 ADD MSTORE PUSH1 0x26 PUSH1 0x24 DUP3 ADD MSTORE PUSH32 0x4F776E61626C653A206E6577206F776E657220697320746865207A65726F2061 PUSH1 0x44 DUP3 ADD MSTORE PUSH6 0x646472657373 PUSH1 0xD0 SHL PUSH1 0x64 DUP3 ADD MSTORE PUSH1 0x84 SWAP1 REVERT JUMPDEST PUSH1 0x0 DUP1 REVERT JUMPDEST CALLVALUE PUSH2 0x1F6 JUMPI PUSH1 0x0 CALLDATASIZE PUSH1 0x3 NOT ADD SLT PUSH2 0x1F6 JUMPI PUSH2 0x214 PUSH2 0x1949 JUMP JUMPDEST SELFBALANCE DUP1 ISZERO PUSH2 0x23F JUMPI PUSH1 0x0 DUP1 DUP1 DUP1 PUSH2 0x1B SWAP5 PUSH1 0x1 DUP1 PUSH1 0xA0 SHL SUB PUSH1 0x1 SLOAD AND GAS CALL PUSH2 0x239 PUSH2 0x1A8E JUMP JUMPDEST POP PUSH2 0x1ABE JUMP JUMPDEST PUSH1 0x40 MLOAD PUSH3 0x461BCD PUSH1 0xE5 SHL DUP2 MSTORE PUSH1 0x20 PUSH1 0x4 DUP3 ADD MSTORE PUSH1 0xA PUSH1 0x24 DUP3 ADD MSTORE PUSH10 0x4E6F2062616C616E6365 PUSH1 0xB0 SHL PUSH1 0x44 DUP3 ADD MSTORE PUSH1 0x64 SWAP1 REVERT JUMPDEST CALLVALUE PUSH2 0x1F6 JUMPI PUSH2 0x27F CALLDATASIZE PUSH2 0x1905 JUMP JUMPDEST SWAP1 PUSH2 0x288 PUSH2 0x19BD JUMP JUMPDEST PUSH1 0x0 MSTORE PUSH1 0x3 PUSH1 0x20 MSTORE PUSH1 0x40 PUSH1 0x0 KECCAK256 PUSH1 0xFF PUSH1 0x8 DUP3 ADD SLOAD AND SWAP1 PUSH1 0x5 DUP3 LT ISZERO PUSH2 0x344 JUMPI PUSH2 0x2B5 PUSH1 0x1 PUSH1 0x5 SWAP4 EQ PUSH2 0x1A13 JUMP JUMPDEST PUSH1 0x1 DUP2 ADD SLOAD PUSH2 0x2D9 SWAP1 CALLER PUSH1 0x1 PUSH1 0x1 PUSH1 0xA0 SHL SUB SWAP2 DUP3 AND EQ SWAP1 DUP2 ISZERO PUSH2 0x336 JUMPI JUMPDEST POP PUSH2 0x1A51 JUMP JUMPDEST ADD SLOAD DUP2 GT PUSH2 0x2FC JUMPI PUSH1 0x0 DUP1 DUP1 DUP1 PUSH2 0x2F5 SWAP5 CALLER GAS CALL PUSH2 0x239 PUSH2 0x1A8E JUMP JUMPDEST PUSH1 0x1 PUSH1 0x0 SSTORE STOP JUMPDEST PUSH1 0x40 MLOAD PUSH3 0x461BCD PUSH1 0xE5 SHL DUP2 MSTORE PUSH1 0x20 PUSH1 0x4 DUP3 ADD MSTORE PUSH1 0x12 PUSH1 0x24 DUP3 ADD MSTORE PUSH18 0x496E73756666696369656E742066756E6473 PUSH1 0x70 SHL PUSH1 0x44 DUP3 ADD MSTORE PUSH1 0x64 SWAP1 REVERT JUMPDEST SWAP1 POP PUSH1 0x1 SLOAD AND CALLER EQ DUP6 PUSH2 0x2D3 JUMP JUMPDEST PUSH4 0x4E487B71 PUSH1 0xE0 SHL PUSH1 0x0 MSTORE PUSH1 0x21 PUSH1 0x4 MSTORE PUSH1 0x24 PUSH1 0x0 REVERT JUMPDEST CALLVALUE PUSH2 0x1F6 JUMPI PUSH2 0x368 CALLDATASIZE PUSH2 0x1905 JUMP JUMPDEST PUSH2 0x370 PUSH2 0x19BD JUMP JUMPDEST DUP2 PUSH1 0x0 MSTORE PUSH1 0x3 PUSH1 0x20 MSTORE PUSH1 0x40 PUSH1 0x0 KECCAK256 SWAP1 PUSH1 0x8 DUP3 ADD SWAP1 DUP2 SLOAD SWAP2 PUSH1 0xFF DUP4 AND PUSH1 0x5 DUP2 LT ISZERO PUSH2 0x344 JUMPI PUSH1 0x1 PUSH2 0x3A0 SWAP2 EQ PUSH2 0x1A13 JUMP JUMPDEST PUSH1 0x1 DUP5 ADD SLOAD PUSH2 0x3C3 SWAP1 CALLER PUSH1 0x1 PUSH1 0x1 PUSH1 0xA0 SHL SUB SWAP2 DUP3 AND EQ SWAP1 DUP2 ISZERO PUSH2 0x44A JUMPI POP PUSH2 0x1A51 JUMP JUMPDEST PUSH1 0xFF DUP4 PUSH1 0x8 SHR AND PUSH2 0x411 JUMPI PUSH2 0x100 PUSH1 0x20 SWAP4 DUP4 PUSH1 0x9 PUSH32 0x239B12DE3CE7C1FA4114EC34A7DDAB14ECC19CC3D6C975C69136368E4C688D4 SWAP8 ADD SSTORE PUSH2 0xFF00 NOT AND OR SWAP1 SSTORE PUSH1 0x40 MLOAD SWAP1 DUP2 MSTORE LOG2 PUSH1 0x1 PUSH1 0x0 SSTORE STOP JUMPDEST PUSH1 0x40 MLOAD PUSH3 0x461BCD PUSH1 0xE5 SHL DUP2 MSTORE PUSH1 0x20 PUSH1 0x4 DUP3 ADD MSTORE PUSH1 0x11 PUSH1 0x24 DUP3 ADD MSTORE PUSH17 0x105B1C9958591E481C1D5C98DA185CD959 PUSH1 0x7A SHL PUSH1 0x44 DUP3 ADD MSTORE PUSH1 0x64 SWAP1 REVERT JUMPDEST SWAP1 POP PUSH1 0x1 SLOAD AND CALLER EQ DUP8 PUSH2 0x2D3 JUMP JUMPDEST PUSH1 0x20 DUP1 PUSH1 0x3 NOT CALLDATASIZE ADD SLT PUSH2 0x1F6 JUMPI PUSH1 0x4 CALLDATALOAD SWAP1 PUSH2 0x471 PUSH2 0x19BD JUMP JUMPDEST DUP2 PUSH1 0x0 MSTORE PUSH1 0x3 DUP2 MSTORE PUSH1 0x40 PUSH1 0x0 KECCAK256 SWAP1 PUSH1 0x8 DUP3 ADD SWAP2 PUSH1 0xFF DUP4 SLOAD AND PUSH1 0x5 DUP2 LT ISZERO PUSH2 0x344 JUMPI PUSH2 0x6FE JUMPI PUSH1 0x7 DUP2 ADD SLOAD TIMESTAMP LT ISZERO PUSH2 0x6CA JUMPI PUSH1 0x3 DUP2 ADD SLOAD CALLVALUE LT PUSH2 0x685 JUMPI PUSH1 0x5 DUP2 ADD SWAP1 PUSH2 0x4BD CALLVALUE DUP4 SLOAD PUSH2 0x19B0 JUMP JUMPDEST SWAP1 PUSH1 0x2 DUP2 ADD SWAP2 DUP3 SLOAD LT PUSH2 0x649 JUMPI DUP6 PUSH1 0x0 MSTORE PUSH1 0x4 DUP5 MSTORE PUSH1 0x40 PUSH1 0x0 KECCAK256 CALLER PUSH1 0x0 MSTORE DUP5 MSTORE PUSH1 0x40 PUSH1 0x0 KECCAK256 SWAP1 DUP2 SLOAD ISZERO PUSH2 0x57F JUMPI JUMPDEST POP PUSH2 0x4F7 CALLVALUE DUP3 SLOAD PUSH2 0x19B0 JUMP JUMPDEST SWAP1 SSTORE PUSH2 0x504 CALLVALUE DUP4 SLOAD PUSH2 0x19B0 JUMP JUMPDEST DUP1 SWAP3 SSTORE PUSH1 0x40 MLOAD CALLVALUE DUP2 MSTORE DUP6 PUSH32 0xA4A91237423E0A1766A761C7CB029311D8B95D6B1B81DB1B949A70C98B4E08E DUP6 CALLER SWAP4 LOG3 SLOAD DUP2 LT ISZERO PUSH2 0x542 JUMPI PUSH1 0x1 PUSH1 0x0 SSTORE STOP JUMPDEST PUSH32 0xC9DD6762E6024E1EC4C28EAC8D4C8CC95BCE152AFD26092BCBF3A184E18B7C13 SWAP3 PUSH1 0x1 PUSH1 0xFF NOT DUP3 SLOAD AND OR SWAP1 SSTORE PUSH1 0x40 MLOAD SWAP1 DUP2 MSTORE LOG2 DUP1 DUP1 DUP1 DUP1 PUSH2 0x2F5 JUMP JUMPDEST PUSH1 0x6 DUP2 ADD SWAP1 PUSH1 0x4 DUP3 SLOAD SWAP2 ADD SLOAD DUP2 LT ISZERO PUSH2 0x604 JUMPI PUSH2 0x59B SWAP1 PUSH2 0x19A1 JUMP JUMPDEST SWAP1 SSTORE DUP6 PUSH1 0x0 MSTORE PUSH1 0x5 DUP5 MSTORE PUSH1 0x40 PUSH1 0x0 KECCAK256 DUP1 SLOAD PUSH9 0x10000000000000000 DUP2 LT ISZERO PUSH2 0x5EE JUMPI PUSH2 0x5CC SWAP2 PUSH1 0x1 DUP3 ADD DUP2 SSTORE PUSH2 0x191B JUMP JUMPDEST DUP2 SLOAD PUSH1 0x1 PUSH1 0x1 PUSH1 0xA0 SHL SUB PUSH1 0x3 SWAP3 SWAP1 SWAP3 SHL SWAP2 DUP3 SHL NOT AND CALLER SWAP1 SWAP2 SHL OR SWAP1 SSTORE DUP7 PUSH2 0x4EB JUMP JUMPDEST PUSH4 0x4E487B71 PUSH1 0xE0 SHL PUSH1 0x0 MSTORE PUSH1 0x41 PUSH1 0x4 MSTORE PUSH1 0x24 PUSH1 0x0 REVERT JUMPDEST PUSH1 0x40 MLOAD PUSH3 0x461BCD PUSH1 0xE5 SHL DUP2 MSTORE PUSH1 0x4 DUP2 ADD DUP8 SWAP1 MSTORE PUSH1 0x18 PUSH1 0x24 DUP3 ADD MSTORE PUSH32 0x4D6178207061727469636970616E747320726561636865640000000000000000 PUSH1 0x44 DUP3 ADD MSTORE PUSH1 0x64 SWAP1 REVERT JUMPDEST PUSH1 0x40 MLOAD PUSH3 0x461BCD PUSH1 0xE5 SHL DUP2 MSTORE PUSH1 0x4 DUP2 ADD DUP6 SWAP1 MSTORE PUSH1 0x14 PUSH1 0x24 DUP3 ADD MSTORE PUSH20 0x4578636565647320746172676574207072696365 PUSH1 0x60 SHL PUSH1 0x44 DUP3 ADD MSTORE PUSH1 0x64 SWAP1 REVERT JUMPDEST PUSH1 0x40 MLOAD PUSH3 0x461BCD PUSH1 0xE5 SHL DUP2 MSTORE PUSH1 0x4 DUP2 ADD DUP4 SWAP1 MSTORE PUSH1 0x1A PUSH1 0x24 DUP3 ADD MSTORE PUSH32 0x42656C6F77206D696E696D756D20636F6E747269627574696F6E000000000000 PUSH1 0x44 DUP3 ADD MSTORE PUSH1 0x64 SWAP1 REVERT JUMPDEST PUSH1 0x40 MLOAD PUSH3 0x461BCD PUSH1 0xE5 SHL DUP2 MSTORE PUSH1 0x4 DUP2 ADD DUP4 SWAP1 MSTORE PUSH1 0xC PUSH1 0x24 DUP3 ADD MSTORE PUSH12 0x1119585B08195E1C1A5C9959 PUSH1 0xA2 SHL PUSH1 0x44 DUP3 ADD MSTORE PUSH1 0x64 SWAP1 REVERT JUMPDEST PUSH1 0x40 MLOAD PUSH3 0x461BCD PUSH1 0xE5 SHL DUP2 MSTORE PUSH1 0x4 DUP2 ADD DUP4 SWAP1 MSTORE PUSH1 0xF PUSH1 0x24 DUP3 ADD MSTORE PUSH15 0x4465616C206E6F7420616374697665 PUSH1 0x88 SHL PUSH1 0x44 DUP3 ADD MSTORE PUSH1 0x64 SWAP1 REVERT JUMPDEST CALLVALUE PUSH2 0x1F6 JUMPI PUSH1 0x60 CALLDATASIZE PUSH1 0x3 NOT ADD SLT PUSH2 0x1F6 JUMPI PUSH1 0x44 CALLDATALOAD PUSH1 0x1 PUSH1 0x1 PUSH1 0xA0 SHL SUB DUP2 AND SWAP1 DUP2 SWAP1 SUB PUSH2 0x1F6 JUMPI PUSH1 0x4 CALLDATALOAD PUSH1 0x0 MSTORE PUSH1 0x9 PUSH1 0x20 MSTORE PUSH1 0x40 PUSH1 0x0 KECCAK256 PUSH1 0x24 CALLDATALOAD PUSH1 0x0 MSTORE PUSH1 0x20 MSTORE PUSH1 0x40 PUSH1 0x0 KECCAK256 SWAP1 PUSH1 0x0 MSTORE PUSH1 0x20 MSTORE PUSH1 0x20 PUSH1 0xFF PUSH1 0x40 PUSH1 0x0 KECCAK256 SLOAD AND PUSH1 0x40 MLOAD SWAP1 ISZERO ISZERO DUP2 MSTORE RETURN JUMPDEST CALLVALUE PUSH2 0x1F6 JUMPI PUSH2 0x7A3 CALLDATASIZE PUSH2 0x1905 JUMP JUMPDEST SWAP1 PUSH1 0x0 MSTORE PUSH1 0x8 PUSH1 0x20 MSTORE PUSH1 0x40 PUSH1 0x0 KECCAK256 SWAP1 PUSH1 0x0 MSTORE PUSH1 0x20 MSTORE PUSH1 0x20 PUSH1 0x40 PUSH1 0x0 KECCAK256 SLOAD PUSH1 0x40 MLOAD SWAP1 DUP2 MSTORE RETURN JUMPDEST CALLVALUE PUSH2 0x1F6 JUMPI PUSH1 0x40 CALLDATASIZE PUSH1 0x3 NOT ADD SLT PUSH2 0x1F6 JUMPI PUSH2 0x7E1 PUSH2 0x176E JUMP JUMPDEST PUSH1 0x4 CALLDATALOAD PUSH1 0x0 MSTORE PUSH1 0x4 PUSH1 0x20 MSTORE PUSH1 0x40 PUSH1 0x0 KECCAK256 SWAP1 PUSH1 0x1 DUP1 PUSH1 0xA0 SHL SUB AND PUSH1 0x0 MSTORE PUSH1 0x20 MSTORE PUSH1 0x40 PUSH1 0x0 KECCAK256 DUP1 SLOAD PUSH2 0x836 PUSH1 0x2 PUSH1 0xFF PUSH1 0x1 DUP6 ADD SLOAD AND SWAP4 ADD SLOAD PUSH1 0x40 MLOAD SWAP4 DUP5 SWAP4 DUP5 PUSH1 0x40 SWAP2 SWAP5 SWAP4 SWAP3 PUSH1 0x60 DUP3 ADD SWAP6 DUP3 MSTORE ISZERO ISZERO PUSH1 0x20 DUP3 ADD MSTORE ADD MSTORE JUMP JUMPDEST SUB SWAP1 RETURN JUMPDEST CALLVALUE PUSH2 0x1F6 JUMPI PUSH1 0x0 CALLDATASIZE PUSH1 0x3 NOT ADD SLT PUSH2 0x1F6 JUMPI PUSH1 0x1 SLOAD PUSH1 0x40 MLOAD PUSH1 0x1 PUSH1 0x1 PUSH1 0xA0 SHL SUB SWAP1 SWAP2 AND DUP2 MSTORE PUSH1 0x20 SWAP1 RETURN JUMPDEST CALLVALUE PUSH2 0x1F6 JUMPI PUSH1 0x20 CALLDATASIZE PUSH1 0x3 NOT ADD SLT PUSH2 0x1F6 JUMPI PUSH1 0x4 CALLDATALOAD PUSH1 0x0 MSTORE PUSH1 0x3 PUSH1 0x20 MSTORE PUSH2 0x8DF PUSH1 0x40 PUSH1 0x0 KECCAK256 PUSH1 0x1 DUP1 PUSH1 0xA0 SHL SUB SWAP1 DUP2 PUSH1 0x1 DUP3 ADD SLOAD AND SWAP1 PUSH1 0x2 DUP2 ADD SLOAD SWAP3 PUSH1 0xFF PUSH1 0x5 DUP4 ADD SLOAD PUSH1 0x6 DUP5 ADD SLOAD PUSH1 0x7 DUP6 ADD SLOAD SWAP1 PUSH1 0x8 DUP7 ADD SLOAD SWAP3 PUSH2 0x8CA PUSH1 0x9 DUP9 ADD SLOAD SWAP7 PUSH1 0xA DUP10 ADD SLOAD AND SWAP8 PUSH2 0x17F6 JUMP JUMPDEST SWAP9 PUSH1 0x40 MLOAD SWAP11 DUP12 SWAP11 PUSH2 0x140 DUP1 DUP14 MSTORE DUP13 ADD SWAP1 PUSH2 0x189C JUMP JUMPDEST SWAP9 PUSH1 0x20 DUP12 ADD MSTORE PUSH1 0x40 DUP11 ADD MSTORE PUSH1 0x60 DUP10 ADD MSTORE PUSH1 0x80 DUP9 ADD MSTORE PUSH1 0xA0 DUP8 ADD MSTORE PUSH2 0x908 PUSH1 0xC0 DUP8 ADD DUP4 DUP4 AND PUSH2 0x18DC JUMP JUMPDEST PUSH1 0x8 SHR AND ISZERO ISZERO PUSH1 0xE0 DUP6 ADD MSTORE PUSH2 0x100 DUP5 ADD MSTORE PUSH2 0x120 DUP4 ADD MSTORE SUB SWAP1 RETURN JUMPDEST CALLVALUE PUSH2 0x1F6 JUMPI PUSH1 0x0 CALLDATASIZE PUSH1 0x3 NOT ADD SLT PUSH2 0x1F6 JUMPI PUSH2 0x93C PUSH2 0x1949 JUMP JUMPDEST PUSH1 0x1 DUP1 SLOAD PUSH1 0x1 PUSH1 0x1 PUSH1 0xA0 SHL SUB NOT DUP2 AND SWAP1 SWAP2 SSTORE PUSH1 0x0 SWAP1 PUSH1 0x1 PUSH1 0x1 PUSH1 0xA0 SHL SUB AND PUSH32 0x8BE0079C531659141344CD1FD0A4F28419497F9722A3DAAFE3B4186F6B6457E0 DUP3 DUP1 LOG3 STOP JUMPDEST CALLVALUE PUSH2 0x1F6 JUMPI PUSH2 0x98E CALLDATASIZE PUSH2 0x1905 JUMP JUMPDEST DUP2 PUSH1 0x0 MSTORE PUSH1 0x20 SWAP2 PUSH1 0x3 DUP4 MSTORE PUSH1 0x40 PUSH1 0x0 KECCAK256 PUSH1 0xFF PUSH1 0x8 DUP3 ADD SLOAD AND PUSH1 0x5 DUP2 LT ISZERO PUSH2 0x344 JUMPI PUSH1 0x2 SUB PUSH2 0xB3B JUMPI PUSH1 0xA ADD SLOAD PUSH1 0x1 PUSH1 0x1 PUSH1 0xA0 SHL SUB AND ISZERO PUSH2 0xB01 JUMPI DUP1 PUSH1 0x0 MSTORE PUSH1 0x9 DUP4 MSTORE PUSH1 0x40 PUSH1 0x0 KECCAK256 DUP3 PUSH1 0x0 MSTORE DUP4 MSTORE PUSH1 0x40 PUSH1 0x0 KECCAK256 CALLER PUSH1 0x0 MSTORE DUP4 MSTORE PUSH1 0xFF PUSH1 0x40 PUSH1 0x0 KECCAK256 SLOAD AND PUSH2 0xACC JUMPI DUP1 PUSH1 0x0 MSTORE PUSH1 0x4 DUP4 MSTORE PUSH1 0x40 PUSH1 0x0 KECCAK256 CALLER PUSH1 0x0 MSTORE DUP4 MSTORE PUSH1 0x2 PUSH1 0x40 PUSH1 0x0 KECCAK256 ADD SLOAD SWAP3 DUP4 ISZERO PUSH2 0xA96 JUMPI PUSH32 0x1A0D40D0ABA9C3DD876ABA44B7F6562CF64DC0CBC3BCF11AFBEBD67DAFD32AAE SWAP1 DUP3 PUSH1 0x0 MSTORE PUSH1 0x8 DUP2 MSTORE PUSH1 0x40 PUSH1 0x0 KECCAK256 DUP5 PUSH1 0x0 MSTORE DUP2 MSTORE PUSH1 0x40 PUSH1 0x0 KECCAK256 PUSH2 0xA5B DUP7 DUP3 SLOAD PUSH2 0x19B0 JUMP JUMPDEST SWAP1 SSTORE DUP3 PUSH1 0x0 MSTORE PUSH1 0x9 DUP2 MSTORE PUSH1 0x40 PUSH1 0x0 KECCAK256 DUP5 PUSH1 0x0 MSTORE DUP2 MSTORE PUSH1 0x40 PUSH1 0x0 KECCAK256 CALLER PUSH1 0x0 MSTORE DUP2 MSTORE PUSH1 0x40 PUSH1 0x0 KECCAK256 PUSH1 0x1 PUSH1 0xFF NOT DUP3 SLOAD AND OR SWAP1 SSTORE PUSH1 0x40 MLOAD SWAP5 DUP6 MSTORE CALLER SWAP5 LOG4 STOP JUMPDEST PUSH1 0x64 SWAP1 PUSH1 0x40 MLOAD SWAP1 PUSH3 0x461BCD PUSH1 0xE5 SHL DUP3 MSTORE PUSH1 0x4 DUP3 ADD MSTORE PUSH1 0xF PUSH1 0x24 DUP3 ADD MSTORE PUSH15 0x139BC81CDA185C995CC81BDDDB9959 PUSH1 0x8A SHL PUSH1 0x44 DUP3 ADD MSTORE REVERT JUMPDEST PUSH1 0x40 MLOAD PUSH3 0x461BCD PUSH1 0xE5 SHL DUP2 MSTORE PUSH1 0x4 DUP2 ADD DUP5 SWAP1 MSTORE PUSH1 0xD PUSH1 0x24 DUP3 ADD MSTORE PUSH13 0x105B1C9958591E481D9BDD1959 PUSH1 0x9A SHL PUSH1 0x44 DUP3 ADD MSTORE PUSH1 0x64 SWAP1 REVERT JUMPDEST PUSH1 0x40 MLOAD PUSH3 0x461BCD PUSH1 0xE5 SHL DUP2 MSTORE PUSH1 0x4 DUP2 ADD DUP5 SWAP1 MSTORE PUSH1 0x12 PUSH1 0x24 DUP3 ADD MSTORE PUSH18 0x139BDD08199C9858DD1A5BDB985B1A5E9959 PUSH1 0x72 SHL PUSH1 0x44 DUP3 ADD MSTORE PUSH1 0x64 SWAP1 REVERT JUMPDEST PUSH1 0x40 MLOAD PUSH3 0x461BCD PUSH1 0xE5 SHL DUP2 MSTORE PUSH1 0x4 DUP2 ADD DUP6 SWAP1 MSTORE PUSH1 0x11 PUSH1 0x24 DUP3 ADD MSTORE PUSH17 0x1119585B081B9BDD08195E1958DD5D1959 PUSH1 0x7A SHL PUSH1 0x44 DUP3 ADD MSTORE PUSH1 0x64 SWAP1 REVERT JUMPDEST CALLVALUE PUSH2 0x1F6 JUMPI PUSH2 0xB82 CALLDATASIZE PUSH2 0x1905 JUMP JUMPDEST SWAP1 PUSH1 0x0 MSTORE PUSH1 0x5 PUSH1 0x20 MSTORE PUSH1 0x40 PUSH1 0x0 KECCAK256 DUP1 SLOAD DUP3 LT ISZERO PUSH2 0x1F6 JUMPI PUSH1 0x20 SWAP2 PUSH2 0xBA5 SWAP2 PUSH2 0x191B JUMP JUMPDEST SWAP1 SLOAD PUSH1 0x40 MLOAD PUSH1 0x3 SWAP3 SWAP1 SWAP3 SHL SHR PUSH1 0x1 PUSH1 0x1 PUSH1 0xA0 SHL SUB AND DUP2 MSTORE RETURN JUMPDEST CALLVALUE PUSH2 0x1F6 JUMPI PUSH1 0xA0 CALLDATASIZE PUSH1 0x3 NOT ADD SLT PUSH2 0x1F6 JUMPI PUSH8 0xFFFFFFFFFFFFFFFF PUSH1 0x4 CALLDATALOAD DUP2 DUP2 GT PUSH2 0x1F6 JUMPI CALLDATASIZE PUSH1 0x23 DUP3 ADD SLT ISZERO PUSH2 0x1F6 JUMPI DUP1 PUSH1 0x4 ADD CALLDATALOAD PUSH2 0xBFB DUP2 PUSH2 0x18E9 JUMP JUMPDEST SWAP2 PUSH2 0xC09 PUSH1 0x40 MLOAD SWAP4 DUP5 PUSH2 0x17D4 JUMP JUMPDEST DUP2 DUP4 MSTORE CALLDATASIZE PUSH1 0x24 DUP4 DUP4 ADD ADD GT PUSH2 0x1F6 JUMPI DUP2 PUSH1 0x0 SWAP3 PUSH1 0x24 PUSH1 0x20 SWAP4 ADD DUP4 DUP7 ADD CALLDATACOPY DUP4 ADD ADD MSTORE PUSH1 0x24 CALLDATALOAD ISZERO PUSH2 0xF20 JUMPI PUSH1 0x44 CALLDATALOAD ISZERO PUSH2 0xEDB JUMPI PUSH1 0x1 PUSH1 0x64 CALLDATALOAD GT ISZERO PUSH2 0xE96 JUMPI PUSH1 0x84 CALLDATALOAD ISZERO ISZERO DUP1 PUSH2 0xE89 JUMPI JUMPDEST ISZERO PUSH2 0xE51 JUMPI PUSH2 0xC60 PUSH1 0x2 SLOAD PUSH2 0x19A1 JUMP JUMPDEST DUP1 PUSH1 0x2 SSTORE DUP1 PUSH1 0x0 MSTORE PUSH1 0x3 PUSH1 0x20 MSTORE PUSH1 0x40 PUSH1 0x0 KECCAK256 DUP3 MLOAD SWAP4 DUP5 GT PUSH2 0x5EE JUMPI PUSH2 0xC85 DUP2 SLOAD PUSH2 0x179A JUMP JUMPDEST PUSH1 0x1F DUP2 GT PUSH2 0xE0D JUMPI JUMPDEST POP PUSH1 0x20 SWAP4 PUSH1 0x1F DUP2 GT PUSH1 0x1 EQ PUSH2 0xDA8 JUMPI DUP1 SWAP2 SWAP3 SWAP4 SWAP5 PUSH1 0x0 SWAP2 PUSH2 0xD9D JUMPI JUMPDEST POP DUP2 PUSH1 0x1 SHL SWAP2 PUSH1 0x0 NOT SWAP1 PUSH1 0x3 SHL SHR NOT AND OR DUP2 SSTORE JUMPDEST PUSH1 0x1 DUP2 ADD CALLER PUSH1 0x1 PUSH1 0x1 PUSH1 0x60 SHL SUB PUSH1 0xA0 SHL DUP3 SLOAD AND OR SWAP1 SSTORE PUSH1 0x24 CALLDATALOAD PUSH1 0x2 DUP3 ADD SSTORE PUSH1 0x44 CALLDATALOAD PUSH1 0x3 DUP3 ADD SSTORE PUSH1 0x64 CALLDATALOAD PUSH1 0x4 DUP3 ADD SSTORE PUSH1 0x0 PUSH1 0x5 DUP3 ADD SSTORE PUSH1 0x0 PUSH1 0x6 DUP3 ADD SSTORE PUSH3 0x15180 SWAP3 DUP4 PUSH1 0x84 CALLDATALOAD MUL SWAP4 PUSH1 0x84 CALLDATALOAD DUP6 DIV EQ PUSH1 0x84 CALLDATALOAD ISZERO OR ISZERO PUSH2 0xD87 JUMPI PUSH32 0xF89674FB19C88C56FE15FA9C5879A3415B720F6E21B762F6E92F02167D84FE1F DUP4 SWAP2 PUSH1 0x8 PUSH2 0xD46 PUSH1 0x20 SWAP8 TIMESTAMP PUSH2 0x19B0 JUMP JUMPDEST SWAP5 DUP6 PUSH1 0x7 DUP3 ADD SSTORE ADD PUSH2 0xFFFF NOT DUP2 SLOAD AND SWAP1 SSTORE PUSH2 0xD6C PUSH1 0x40 MLOAD SWAP2 PUSH1 0x60 DUP4 MSTORE PUSH1 0x60 DUP4 ADD SWAP1 PUSH2 0x189C JUMP JUMPDEST SWAP4 PUSH1 0x24 CALLDATALOAD DUP8 DUP4 ADD MSTORE PUSH1 0x40 DUP3 ADD MSTORE DUP1 CALLER SWAP5 SUB SWAP1 LOG3 PUSH1 0x40 MLOAD SWAP1 DUP2 MSTORE RETURN JUMPDEST PUSH4 0x4E487B71 PUSH1 0xE0 SHL PUSH1 0x0 MSTORE PUSH1 0x11 PUSH1 0x4 MSTORE PUSH1 0x24 PUSH1 0x0 REVERT JUMPDEST SWAP1 POP DUP5 ADD MLOAD DUP6 PUSH2 0xCAA JUMP JUMPDEST PUSH1 0x1F NOT DUP2 AND SWAP5 DUP3 PUSH1 0x0 MSTORE PUSH1 0x20 PUSH1 0x0 KECCAK256 SWAP1 PUSH1 0x0 JUMPDEST DUP8 DUP2 LT PUSH2 0xDF5 JUMPI POP DUP3 PUSH1 0x1 SWAP5 SWAP6 SWAP7 SWAP8 LT PUSH2 0xDDC JUMPI JUMPDEST POP POP DUP2 SHL ADD DUP2 SSTORE PUSH2 0xCBE JUMP JUMPDEST DUP7 ADD MLOAD PUSH1 0x0 NOT PUSH1 0xF8 DUP5 PUSH1 0x3 SHL AND SHR NOT AND SWAP1 SSTORE DUP6 DUP1 PUSH2 0xDD0 JUMP JUMPDEST SWAP1 SWAP2 PUSH1 0x20 PUSH1 0x1 DUP2 SWAP3 DUP6 DUP11 ADD MLOAD DUP2 SSTORE ADD SWAP4 ADD SWAP2 ADD PUSH2 0xDBB JUMP JUMPDEST DUP2 PUSH1 0x0 MSTORE PUSH1 0x20 PUSH1 0x0 KECCAK256 PUSH1 0x1F DUP7 ADD PUSH1 0x5 SHR DUP2 ADD PUSH1 0x20 DUP8 LT PUSH2 0xE4A JUMPI JUMPDEST PUSH1 0x1F DUP4 ADD PUSH1 0x5 SHR DUP3 ADD DUP2 LT PUSH2 0xE3E JUMPI POP POP PUSH2 0xC8E JUMP JUMPDEST PUSH1 0x0 DUP2 SSTORE PUSH1 0x1 ADD PUSH2 0xE28 JUMP JUMPDEST POP DUP1 PUSH2 0xE28 JUMP JUMPDEST PUSH1 0x40 MLOAD PUSH3 0x461BCD PUSH1 0xE5 SHL DUP2 MSTORE PUSH1 0x20 PUSH1 0x4 DUP3 ADD MSTORE PUSH1 0x10 PUSH1 0x24 DUP3 ADD MSTORE PUSH16 0x24B73B30B634B210323AB930BA34B7B7 PUSH1 0x81 SHL PUSH1 0x44 DUP3 ADD MSTORE PUSH1 0x64 SWAP1 REVERT JUMPDEST POP PUSH1 0x5A PUSH1 0x84 CALLDATALOAD GT ISZERO PUSH2 0xC50 JUMP JUMPDEST PUSH1 0x40 MLOAD PUSH3 0x461BCD PUSH1 0xE5 SHL DUP2 MSTORE PUSH1 0x20 PUSH1 0x4 DUP3 ADD MSTORE PUSH1 0x1C PUSH1 0x24 DUP3 ADD MSTORE PUSH32 0x4D6178207061727469636970616E7473206D757374206265203E203100000000 PUSH1 0x44 DUP3 ADD MSTORE PUSH1 0x64 SWAP1 REVERT JUMPDEST PUSH1 0x40 MLOAD PUSH3 0x461BCD PUSH1 0xE5 SHL DUP2 MSTORE PUSH1 0x20 PUSH1 0x4 DUP3 ADD MSTORE PUSH1 0x1C PUSH1 0x24 DUP3 ADD MSTORE PUSH32 0x4D696E20636F6E747269627574696F6E206D757374206265203E203000000000 PUSH1 0x44 DUP3 ADD MSTORE PUSH1 0x64 SWAP1 REVERT JUMPDEST PUSH1 0x40 MLOAD PUSH3 0x461BCD PUSH1 0xE5 SHL DUP2 MSTORE PUSH1 0x20 PUSH1 0x4 DUP3 ADD MSTORE PUSH1 0x18 PUSH1 0x24 DUP3 ADD MSTORE PUSH32 0x546172676574207072696365206D757374206265203E20300000000000000000 PUSH1 0x44 DUP3 ADD MSTORE PUSH1 0x64 SWAP1 REVERT JUMPDEST CALLVALUE PUSH2 0x1F6 JUMPI PUSH1 0x0 CALLDATASIZE PUSH1 0x3 NOT ADD SLT PUSH2 0x1F6 JUMPI PUSH1 0x7 SLOAD PUSH1 0x40 MLOAD PUSH1 0x1 PUSH1 0x1 PUSH1 0xA0 SHL SUB SWAP1 SWAP2 AND DUP2 MSTORE PUSH1 0x20 SWAP1 RETURN JUMPDEST CALLVALUE PUSH2 0x1F6 JUMPI PUSH1 0x40 CALLDATASIZE PUSH1 0x3 NOT ADD SLT PUSH2 0x1F6 JUMPI PUSH2 0xFA7 PUSH2 0x1784 JUMP JUMPDEST PUSH2 0xFAF PUSH2 0x176E JUMP JUMPDEST PUSH2 0xFB7 PUSH2 0x1949 JUMP JUMPDEST PUSH1 0x6 DUP1 SLOAD PUSH1 0x1 PUSH1 0x1 PUSH1 0xA0 SHL SUB SWAP4 DUP5 AND PUSH1 0x1 PUSH1 0x1 PUSH1 0xA0 SHL SUB NOT SWAP2 DUP3 AND OR SWAP1 SWAP2 SSTORE PUSH1 0x7 DUP1 SLOAD SWAP3 SWAP1 SWAP4 AND SWAP2 AND OR SWAP1 SSTORE STOP JUMPDEST CALLVALUE PUSH2 0x1F6 JUMPI PUSH1 0x0 CALLDATASIZE PUSH1 0x3 NOT ADD SLT PUSH2 0x1F6 JUMPI PUSH1 0x6 SLOAD PUSH1 0x40 MLOAD PUSH1 0x1 PUSH1 0x1 PUSH1 0xA0 SHL SUB SWAP1 SWAP2 AND DUP2 MSTORE PUSH1 0x20 SWAP1 RETURN JUMPDEST CALLVALUE PUSH2 0x1F6 JUMPI PUSH1 0x20 CALLDATASIZE PUSH1 0x3 NOT ADD SLT PUSH2 0x1F6 JUMPI PUSH1 0x4 CALLDATALOAD PUSH1 0x0 DUP2 DUP2 MSTORE PUSH1 0x3 PUSH1 0x20 MSTORE PUSH1 0x40 SWAP1 KECCAK256 PUSH1 0x1 DUP2 ADD SLOAD PUSH2 0x1053 SWAP1 CALLER PUSH1 0x1 PUSH1 0x1 PUSH1 0xA0 SHL SUB SWAP2 DUP3 AND EQ SWAP1 DUP2 ISZERO PUSH2 0x1149 JUMPI POP PUSH2 0x1A51 JUMP JUMPDEST PUSH1 0x8 DUP2 ADD SWAP1 DUP2 SLOAD SWAP1 PUSH1 0xFF DUP3 AND PUSH1 0x5 DUP2 LT ISZERO PUSH2 0x344 JUMPI PUSH2 0x1104 JUMPI PUSH1 0x7 DUP2 ADD SLOAD TIMESTAMP LT SWAP1 DUP2 ISZERO SWAP2 PUSH2 0x10F7 JUMPI JUMPDEST POP ISZERO PUSH2 0x10B2 JUMPI PUSH1 0xFF NOT AND PUSH1 0x3 OR SWAP1 SSTORE PUSH32 0x31B0C01E8429F81903C3F8ADC204767B8EFA7CFCA91A00F3B4BB40CE63C8A206 PUSH1 0x0 DUP1 LOG2 STOP JUMPDEST PUSH1 0x40 MLOAD PUSH3 0x461BCD PUSH1 0xE5 SHL DUP2 MSTORE PUSH1 0x20 PUSH1 0x4 DUP3 ADD MSTORE PUSH1 0x1E PUSH1 0x24 DUP3 ADD MSTORE PUSH32 0x4465616C20616374697665207769746820636F6E747269627574696F6E730000 PUSH1 0x44 DUP3 ADD MSTORE PUSH1 0x64 SWAP1 REVERT JUMPDEST PUSH1 0x5 SWAP2 POP ADD SLOAD ISZERO DUP5 PUSH2 0x107C JUMP JUMPDEST PUSH1 0x40 MLOAD PUSH3 0x461BCD PUSH1 0xE5 SHL DUP2 MSTORE PUSH1 0x20 PUSH1 0x4 DUP3 ADD MSTORE PUSH1 0x17 PUSH1 0x24 DUP3 ADD MSTORE PUSH32 0x43616E6E6F742063616E63656C2074686973206465616C000000000000000000 PUSH1 0x44 DUP3 ADD MSTORE PUSH1 0x64 SWAP1 REVERT JUMPDEST SWAP1 POP PUSH1 0x1 SLOAD AND CALLER EQ DUP5 PUSH2 0x2D3 JUMP JUMPDEST CALLVALUE PUSH2 0x1F6 JUMPI PUSH1 0x20 DUP1 PUSH1 0x3 NOT CALLDATASIZE ADD SLT PUSH2 0x1F6 JUMPI PUSH1 0x4 CALLDATALOAD PUSH2 0x1174 PUSH2 0x19BD JUMP JUMPDEST DUP1 PUSH1 0x0 MSTORE PUSH1 0x3 DUP3 MSTORE PUSH1 0x40 PUSH1 0x0 KECCAK256 SWAP2 PUSH1 0x4 DUP2 MSTORE PUSH1 0x40 PUSH1 0x0 KECCAK256 CALLER PUSH1 0x0 MSTORE DUP2 MSTORE PUSH1 0x40 PUSH1 0x0 KECCAK256 SWAP3 PUSH1 0xFF PUSH1 0x8 DUP3 ADD SLOAD AND SWAP1 PUSH1 0x5 DUP3 LT ISZERO PUSH2 0x344 JUMPI PUSH1 0x3 DUP3 EQ SWAP2 DUP3 ISZERO PUSH2 0x1319 JUMPI JUMPDEST POP POP ISZERO PUSH2 0x12DE JUMPI DUP3 SLOAD SWAP3 DUP4 ISZERO PUSH2 0x1299 JUMPI PUSH1 0x1 ADD DUP1 SLOAD PUSH1 0xFF DUP2 AND PUSH2 0x1261 JUMPI PUSH1 0xFF NOT AND PUSH1 0x1 OR SWAP1 SSTORE PUSH1 0x0 DUP1 DUP1 DUP1 DUP7 CALLER GAS CALL PUSH2 0x11EC PUSH2 0x1A8E JUMP JUMPDEST POP ISZERO PUSH2 0x1224 JUMPI PUSH32 0x79FF6A60B3E21B3630B207E2A7B0B50B69B197D3D7CA776108ED2AFB8FBAC8DC SWAP1 PUSH1 0x40 MLOAD SWAP4 DUP5 MSTORE CALLER SWAP4 LOG3 PUSH1 0x1 PUSH1 0x0 SSTORE STOP JUMPDEST PUSH1 0x64 SWAP1 PUSH1 0x40 MLOAD SWAP1 PUSH3 0x461BCD PUSH1 0xE5 SHL DUP3 MSTORE PUSH1 0x4 DUP3 ADD MSTORE PUSH1 0x16 PUSH1 0x24 DUP3 ADD MSTORE PUSH22 0x1499599D5B99081D1C985B9CD9995C8819985A5B1959 PUSH1 0x52 SHL PUSH1 0x44 DUP3 ADD MSTORE REVERT JUMPDEST PUSH1 0x40 MLOAD PUSH3 0x461BCD PUSH1 0xE5 SHL DUP2 MSTORE PUSH1 0x4 DUP2 ADD DUP5 SWAP1 MSTORE PUSH1 0x10 PUSH1 0x24 DUP3 ADD MSTORE PUSH16 0x105B1C9958591E481C99599D5B991959 PUSH1 0x82 SHL PUSH1 0x44 DUP3 ADD MSTORE PUSH1 0x64 SWAP1 REVERT JUMPDEST PUSH1 0x40 MLOAD PUSH3 0x461BCD PUSH1 0xE5 SHL DUP2 MSTORE PUSH1 0x4 DUP2 ADD DUP4 SWAP1 MSTORE PUSH1 0x19 PUSH1 0x24 DUP3 ADD MSTORE PUSH32 0x4E6F20636F6E747269627574696F6E20746F20726566756E6400000000000000 PUSH1 0x44 DUP3 ADD MSTORE PUSH1 0x64 SWAP1 REVERT JUMPDEST PUSH1 0x64 SWAP1 PUSH1 0x40 MLOAD SWAP1 PUSH3 0x461BCD PUSH1 0xE5 SHL DUP3 MSTORE PUSH1 0x4 DUP3 ADD MSTORE PUSH1 0x14 PUSH1 0x24 DUP3 ADD MSTORE PUSH20 0x526566756E64206E6F7420617661696C61626C65 PUSH1 0x60 SHL PUSH1 0x44 DUP3 ADD MSTORE REVERT JUMPDEST ISZERO SWAP2 POP DUP2 PUSH2 0x132A JUMPI JUMPDEST POP DUP5 DUP1 PUSH2 0x11B5 JUMP JUMPDEST PUSH1 0x7 SWAP2 POP ADD SLOAD TIMESTAMP LT ISZERO DUP5 PUSH2 0x1322 JUMP JUMPDEST CALLVALUE PUSH2 0x1F6 JUMPI PUSH1 0x20 DUP1 PUSH1 0x3 NOT CALLDATASIZE ADD SLT PUSH2 0x1F6 JUMPI PUSH1 0x4 CALLDATALOAD PUSH1 0x0 MSTORE PUSH1 0x5 DUP2 MSTORE PUSH1 0x40 PUSH1 0x0 KECCAK256 PUSH1 0x40 MLOAD SWAP1 DUP2 DUP4 DUP3 SLOAD SWAP2 DUP3 DUP2 MSTORE ADD SWAP1 DUP2 SWAP3 PUSH1 0x0 MSTORE DUP5 PUSH1 0x0 KECCAK256 SWAP1 PUSH1 0x0 JUMPDEST DUP7 DUP3 DUP3 LT PUSH2 0x13D4 JUMPI DUP7 DUP7 PUSH2 0x138B DUP3 DUP9 SUB DUP4 PUSH2 0x17D4 JUMP JUMPDEST PUSH1 0x40 MLOAD SWAP3 DUP4 SWAP3 DUP2 DUP5 ADD SWAP1 DUP3 DUP6 MSTORE MLOAD DUP1 SWAP2 MSTORE PUSH1 0x40 DUP5 ADD SWAP3 SWAP2 PUSH1 0x0 JUMPDEST DUP3 DUP2 LT PUSH2 0x13B4 JUMPI POP POP POP POP SUB SWAP1 RETURN JUMPDEST DUP4 MLOAD PUSH1 0x1 PUSH1 0x1 PUSH1 0xA0 SHL SUB AND DUP6 MSTORE DUP7 SWAP6 POP SWAP4 DUP2 ADD SWAP4 SWAP3 DUP2 ADD SWAP3 PUSH1 0x1 ADD PUSH2 0x13A5 JUMP JUMPDEST DUP4 SLOAD PUSH1 0x1 PUSH1 0x1 PUSH1 0xA0 SHL SUB AND DUP6 MSTORE SWAP1 SWAP4 ADD SWAP3 PUSH1 0x1 SWAP3 DUP4 ADD SWAP3 ADD PUSH2 0x1375 JUMP JUMPDEST CALLVALUE PUSH2 0x1F6 JUMPI PUSH1 0x40 CALLDATASIZE PUSH1 0x3 NOT ADD SLT PUSH2 0x1F6 JUMPI PUSH1 0x4 CALLDATALOAD PUSH2 0x140D PUSH2 0x176E JUMP JUMPDEST DUP2 PUSH1 0x0 MSTORE PUSH1 0x20 SWAP1 PUSH1 0x3 DUP3 MSTORE PUSH1 0x40 PUSH1 0x0 KECCAK256 PUSH1 0x8 DUP2 ADD DUP1 SLOAD PUSH1 0xFF DUP2 PUSH1 0x8 SHR AND ISZERO PUSH2 0x15F0 JUMPI PUSH1 0x1 DUP4 DUP2 ADD SLOAD PUSH1 0x1 PUSH1 0x1 PUSH1 0xA0 SHL SUB SWAP4 SWAP1 DUP5 AND CALLER EQ DUP1 ISZERO PUSH2 0x15E4 JUMPI JUMPDEST PUSH2 0x1453 SWAP1 PUSH2 0x1A51 JUMP JUMPDEST PUSH1 0xA DUP6 ADD DUP1 SLOAD SWAP7 DUP6 DUP9 AND PUSH2 0x15B1 JUMPI DUP6 SWAP1 SWAP5 SWAP4 SWAP5 AND DUP1 SWAP8 PUSH1 0x1 PUSH1 0x1 PUSH1 0x60 SHL SUB PUSH1 0xA0 SHL AND OR SWAP1 SSTORE PUSH1 0x2 DUP1 SWAP3 PUSH1 0xFF NOT AND OR SWAP1 SSTORE DUP7 PUSH1 0x0 MSTORE PUSH1 0x5 SWAP3 DUP4 DUP8 MSTORE PUSH1 0x40 PUSH1 0x0 KECCAK256 PUSH1 0x40 MLOAD SWAP1 DUP2 DUP10 DUP3 SLOAD SWAP2 DUP3 DUP2 MSTORE ADD SWAP2 PUSH1 0x0 MSTORE DUP10 PUSH1 0x0 KECCAK256 SWAP1 PUSH1 0x0 JUMPDEST DUP12 DUP3 DUP3 LT PUSH2 0x159C JUMPI POP POP POP POP SWAP5 PUSH2 0x14C8 DUP3 DUP7 SWAP8 SWAP7 SWAP6 SWAP7 SUB DUP4 PUSH2 0x17D4 JUMP JUMPDEST PUSH1 0x0 DUP6 DUP9 ADD SWAP5 JUMPDEST PUSH2 0x150B JUMPI JUMPDEST DUP11 PUSH32 0xB2ECC77D468F0FCFDC9A0C456E32F072C63659008B1B9413B5F0111EB3470C7 PUSH1 0x40 DUP13 DUP13 PUSH1 0x9 DUP14 ADD SLOAD SWAP2 DUP4 MLOAD SWAP3 DUP4 MSTORE DUP3 ADD MSTORE LOG2 STOP JUMPDEST DUP3 MLOAD DUP2 LT ISZERO PUSH2 0x1597 JUMPI DUP4 DUP11 DUP3 DUP5 SHL DUP6 ADD ADD MLOAD AND SWAP1 DUP12 PUSH1 0x0 MSTORE PUSH1 0x4 DUP12 MSTORE PUSH1 0x40 PUSH1 0x0 KECCAK256 DUP3 PUSH1 0x0 MSTORE DUP12 MSTORE PUSH1 0x40 PUSH1 0x0 KECCAK256 SLOAD PUSH2 0x2710 SWAP1 DUP2 DUP2 MUL SWAP2 DUP2 DUP4 DIV EQ SWAP1 ISZERO OR ISZERO PUSH2 0xD87 JUMPI DUP7 SLOAD SWAP1 DUP2 ISZERO PUSH2 0x1581 JUMPI PUSH2 0x157B SWAP4 PUSH1 0x4 DUP16 DUP16 SWAP1 PUSH1 0x0 MSTORE MSTORE PUSH1 0x40 PUSH1 0x0 KECCAK256 SWAP1 PUSH1 0x0 MSTORE DUP14 MSTORE DIV DUP8 PUSH1 0x40 PUSH1 0x0 KECCAK256 ADD SSTORE PUSH2 0x19A1 JUMP JUMPDEST DUP7 PUSH2 0x14CF JUMP JUMPDEST PUSH4 0x4E487B71 PUSH1 0xE0 SHL PUSH1 0x0 MSTORE PUSH1 0x12 PUSH1 0x4 MSTORE PUSH1 0x24 PUSH1 0x0 REVERT JUMPDEST PUSH2 0x14D4 JUMP JUMPDEST DUP4 SLOAD DUP8 AND DUP6 MSTORE SWAP1 SWAP4 ADD SWAP3 SWAP2 DUP8 ADD SWAP2 DUP8 ADD PUSH2 0x14AB JUMP JUMPDEST PUSH1 0x40 MLOAD PUSH3 0x461BCD PUSH1 0xE5 SHL DUP2 MSTORE PUSH1 0x4 DUP2 ADD DUP11 SWAP1 MSTORE PUSH1 0xB PUSH1 0x24 DUP3 ADD MSTORE PUSH11 0x105B1C9958591E481CD95D PUSH1 0xAA SHL PUSH1 0x44 DUP3 ADD MSTORE PUSH1 0x64 SWAP1 REVERT JUMPDEST POP DUP2 SLOAD DUP5 AND CALLER EQ PUSH2 0x144A JUMP JUMPDEST PUSH1 0x40 MLOAD PUSH3 0x461BCD PUSH1 0xE5 SHL DUP2 MSTORE PUSH1 0x4 DUP2 ADD DUP7 SWAP1 MSTORE PUSH1 0x14 PUSH1 0x24 DUP3 ADD MSTORE PUSH20 0x111BDB585A5B881B9BDD081C1D5C98DA185CD959 PUSH1 0x62 SHL PUSH1 0x44 DUP3 ADD MSTORE PUSH1 0x64 SWAP1 REVERT JUMPDEST CALLVALUE PUSH2 0x1F6 JUMPI PUSH1 0x20 CALLDATASIZE PUSH1 0x3 NOT ADD SLT PUSH2 0x1F6 JUMPI PUSH1 0x4 CALLDATALOAD PUSH1 0x0 MSTORE PUSH1 0x3 PUSH1 0x20 MSTORE PUSH2 0x16B3 PUSH1 0x40 PUSH1 0x0 KECCAK256 PUSH2 0x1659 DUP2 PUSH2 0x17F6 JUMP JUMPDEST SWAP1 PUSH1 0x1 DUP1 PUSH1 0xA0 SHL SUB DUP1 PUSH1 0x1 DUP4 ADD SLOAD AND SWAP2 PUSH1 0xFF PUSH1 0x2 DUP3 ADD SLOAD SWAP3 PUSH1 0x3 DUP4 ADD SLOAD PUSH1 0x4 DUP5 ADD SLOAD PUSH1 0x5 DUP6 ADD SLOAD PUSH1 0x6 DUP7 ADD SLOAD SWAP2 PUSH1 0x7 DUP8 ADD SLOAD SWAP4 PUSH1 0x8 DUP9 ADD SLOAD SWAP6 PUSH1 0xA PUSH1 0x9 DUP11 ADD SLOAD SWAP10 ADD SLOAD AND SWAP9 PUSH1 0x40 MLOAD SWAP13 DUP14 SWAP13 DUP14 PUSH2 0x180 SWAP1 DUP2 DUP2 MSTORE ADD SWAP1 PUSH2 0x189C JUMP JUMPDEST SWAP11 PUSH1 0x20 DUP14 ADD MSTORE PUSH1 0x40 DUP13 ADD MSTORE PUSH1 0x60 DUP12 ADD MSTORE PUSH1 0x80 DUP11 ADD MSTORE PUSH1 0xA0 DUP10 ADD MSTORE PUSH1 0xC0 DUP9 ADD MSTORE PUSH1 0xE0 DUP8 ADD MSTORE PUSH2 0x16E7 PUSH2 0x100 DUP8 ADD DUP4 DUP4 AND PUSH2 0x18DC JUMP JUMPDEST PUSH1 0x8 SHR AND ISZERO ISZERO PUSH2 0x120 DUP6 ADD MSTORE PUSH2 0x140 DUP5 ADD MSTORE PUSH2 0x160 DUP4 ADD MSTORE SUB SWAP1 RETURN JUMPDEST CALLVALUE PUSH2 0x1F6 JUMPI PUSH1 0x40 CALLDATASIZE PUSH1 0x3 NOT ADD SLT PUSH2 0x1F6 JUMPI PUSH2 0x171C PUSH2 0x176E JUMP JUMPDEST PUSH1 0x4 CALLDATALOAD PUSH1 0x0 MSTORE PUSH1 0x4 PUSH1 0x20 MSTORE PUSH1 0x40 PUSH1 0x0 KECCAK256 SWAP1 PUSH1 0x1 DUP1 PUSH1 0xA0 SHL SUB AND PUSH1 0x0 MSTORE PUSH1 0x20 MSTORE DUP1 PUSH2 0x836 PUSH1 0x40 PUSH1 0x0 KECCAK256 DUP1 SLOAD SWAP1 PUSH1 0x2 PUSH1 0xFF PUSH1 0x1 DUP4 ADD SLOAD AND SWAP2 ADD SLOAD SWAP2 DUP5 PUSH1 0x40 SWAP2 SWAP5 SWAP4 SWAP3 PUSH1 0x60 DUP3 ADD SWAP6 DUP3 MSTORE ISZERO ISZERO PUSH1 0x20 DUP3 ADD MSTORE ADD MSTORE JUMP JUMPDEST PUSH1 0x24 CALLDATALOAD SWAP1 PUSH1 0x1 PUSH1 0x1 PUSH1 0xA0 SHL SUB DUP3 AND DUP3 SUB PUSH2 0x1F6 JUMPI JUMP JUMPDEST PUSH1 0x4 CALLDATALOAD SWAP1 PUSH1 0x1 PUSH1 0x1 PUSH1 0xA0 SHL SUB DUP3 AND DUP3 SUB PUSH2 0x1F6 JUMPI JUMP JUMPDEST SWAP1 PUSH1 0x1 DUP3 DUP2 SHR SWAP3 AND DUP1 ISZERO PUSH2 0x17CA JUMPI JUMPDEST PUSH1 0x20 DUP4 LT EQ PUSH2 0x17B4 JUMPI JUMP JUMPDEST PUSH4 0x4E487B71 PUSH1 0xE0 SHL PUSH1 0x0 MSTORE PUSH1 0x22 PUSH1 0x4 MSTORE PUSH1 0x24 PUSH1 0x0 REVERT JUMPDEST SWAP2 PUSH1 0x7F AND SWAP2 PUSH2 0x17A9 JUMP JUMPDEST SWAP1 PUSH1 0x1F DUP1 NOT SWAP2 ADD AND DUP2 ADD SWAP1 DUP2 LT PUSH8 0xFFFFFFFFFFFFFFFF DUP3 GT OR PUSH2 0x5EE JUMPI PUSH1 0x40 MSTORE JUMP JUMPDEST SWAP1 PUSH1 0x40 MLOAD SWAP2 DUP3 PUSH1 0x0 DUP3 SLOAD SWAP3 PUSH2 0x180A DUP5 PUSH2 0x179A JUMP JUMPDEST SWAP1 DUP2 DUP5 MSTORE PUSH1 0x1 SWAP5 DUP6 DUP2 AND SWAP1 DUP2 PUSH1 0x0 EQ PUSH2 0x1879 JUMPI POP PUSH1 0x1 EQ PUSH2 0x1836 JUMPI JUMPDEST POP POP PUSH2 0x1834 SWAP3 POP SUB DUP4 PUSH2 0x17D4 JUMP JUMPDEST JUMP JUMPDEST SWAP1 SWAP4 SWAP2 POP PUSH1 0x0 MSTORE PUSH1 0x20 SWAP1 DUP2 PUSH1 0x0 KECCAK256 SWAP4 PUSH1 0x0 SWAP2 JUMPDEST DUP2 DUP4 LT PUSH2 0x1861 JUMPI POP POP PUSH2 0x1834 SWAP4 POP DUP3 ADD ADD CODESIZE DUP1 PUSH2 0x1826 JUMP JUMPDEST DUP6 SLOAD DUP9 DUP5 ADD DUP6 ADD MSTORE SWAP5 DUP6 ADD SWAP5 DUP8 SWAP5 POP SWAP2 DUP4 ADD SWAP2 PUSH2 0x1849 JUMP JUMPDEST SWAP2 POP POP PUSH2 0x1834 SWAP5 POP PUSH1 0x20 SWAP3 POP PUSH1 0xFF NOT AND DUP3 DUP5 ADD MSTORE ISZERO ISZERO PUSH1 0x5 SHL DUP3 ADD ADD CODESIZE DUP1 PUSH2 0x1826 JUMP JUMPDEST SWAP2 SWAP1 DUP3 MLOAD SWAP3 DUP4 DUP3 MSTORE PUSH1 0x0 JUMPDEST DUP5 DUP2 LT PUSH2 0x18C8 JUMPI POP POP DUP3 PUSH1 0x0 PUSH1 0x20 DUP1 SWAP5 SWAP6 DUP5 ADD ADD MSTORE PUSH1 0x1F DUP1 NOT SWAP2 ADD AND ADD ADD SWAP1 JUMP JUMPDEST PUSH1 0x20 DUP2 DUP4 ADD DUP2 ADD MLOAD DUP5 DUP4 ADD DUP3 ADD MSTORE ADD PUSH2 0x18A7 JUMP JUMPDEST SWAP1 PUSH1 0x5 DUP3 LT ISZERO PUSH2 0x344 JUMPI MSTORE JUMP JUMPDEST PUSH8 0xFFFFFFFFFFFFFFFF DUP2 GT PUSH2 0x5EE JUMPI PUSH1 0x1F ADD PUSH1 0x1F NOT AND PUSH1 0x20 ADD SWAP1 JUMP JUMPDEST PUSH1 0x40 SWAP1 PUSH1 0x3 NOT ADD SLT PUSH2 0x1F6 JUMPI PUSH1 0x4 CALLDATALOAD SWAP1 PUSH1 0x24 CALLDATALOAD SWAP1 JUMP JUMPDEST DUP1 SLOAD DUP3 LT ISZERO PUSH2 0x1933 JUMPI PUSH1 0x0 MSTORE PUSH1 0x20 PUSH1 0x0 KECCAK256 ADD SWAP1 PUSH1 0x0 SWAP1 JUMP JUMPDEST PUSH4 0x4E487B71 PUSH1 0xE0 SHL PUSH1 0x0 MSTORE PUSH1 0x32 PUSH1 0x4 MSTORE PUSH1 0x24 PUSH1 0x0 REVERT JUMPDEST PUSH1 0x1 SLOAD PUSH1 0x1 PUSH1 0x1 PUSH1 0xA0 SHL SUB AND CALLER SUB PUSH2 0x195D JUMPI JUMP JUMPDEST PUSH1 0x64 PUSH1 0x40 MLOAD PUSH3 0x461BCD PUSH1 0xE5 SHL DUP2 MSTORE PUSH1 0x20 PUSH1 0x4 DUP3 ADD MSTORE PUSH1 0x20 PUSH1 0x24 DUP3 ADD MSTORE PUSH32 0x4F776E61626C653A2063616C6C6572206973206E6F7420746865206F776E6572 PUSH1 0x44 DUP3 ADD MSTORE REVERT JUMPDEST PUSH1 0x0 NOT DUP2 EQ PUSH2 0xD87 JUMPI PUSH1 0x1 ADD SWAP1 JUMP JUMPDEST SWAP2 SWAP1 DUP3 ADD DUP1 SWAP3 GT PUSH2 0xD87 JUMPI JUMP JUMPDEST PUSH1 0x2 PUSH1 0x0 SLOAD EQ PUSH2 0x19CE JUMPI PUSH1 0x2 PUSH1 0x0 SSTORE JUMP JUMPDEST PUSH1 0x40 MLOAD PUSH3 0x461BCD PUSH1 0xE5 SHL DUP2 MSTORE PUSH1 0x20 PUSH1 0x4 DUP3 ADD MSTORE PUSH1 0x1F PUSH1 0x24 DUP3 ADD MSTORE PUSH32 0x5265656E7472616E637947756172643A207265656E7472616E742063616C6C00 PUSH1 0x44 DUP3 ADD MSTORE PUSH1 0x64 SWAP1 REVERT JUMPDEST ISZERO PUSH2 0x1A1A JUMPI JUMP JUMPDEST PUSH1 0x40 MLOAD PUSH3 0x461BCD PUSH1 0xE5 SHL DUP2 MSTORE PUSH1 0x20 PUSH1 0x4 DUP3 ADD MSTORE PUSH1 0xF PUSH1 0x24 DUP3 ADD MSTORE PUSH15 0x1119585B081B9BDD08199D5B991959 PUSH1 0x8A SHL PUSH1 0x44 DUP3 ADD MSTORE PUSH1 0x64 SWAP1 REVERT JUMPDEST ISZERO PUSH2 0x1A58 JUMPI JUMP JUMPDEST PUSH1 0x40 MLOAD PUSH3 0x461BCD PUSH1 0xE5 SHL DUP2 MSTORE PUSH1 0x20 PUSH1 0x4 DUP3 ADD MSTORE PUSH1 0xE PUSH1 0x24 DUP3 ADD MSTORE PUSH14 0x139BDD08185D5D1A1BDC9A5E9959 PUSH1 0x92 SHL PUSH1 0x44 DUP3 ADD MSTORE PUSH1 0x64 SWAP1 REVERT JUMPDEST RETURNDATASIZE ISZERO PUSH2 0x1AB9 JUMPI RETURNDATASIZE SWAP1 PUSH2 0x1A9F DUP3 PUSH2 0x18E9 JUMP JUMPDEST SWAP2 PUSH2 0x1AAD PUSH1 0x40 MLOAD SWAP4 DUP5 PUSH2 0x17D4 JUMP JUMPDEST DUP3 MSTORE RETURNDATASIZE PUSH1 0x0 PUSH1 0x20 DUP5 ADD RETURNDATACOPY JUMP JUMPDEST PUSH1 0x60 SWAP1 JUMP JUMPDEST ISZERO PUSH2 0x1AC5 JUMPI JUMP JUMPDEST PUSH1 0x40 MLOAD PUSH3 0x461BCD PUSH1 0xE5 SHL DUP2 MSTORE PUSH1 0x20 PUSH1 0x4 DUP3 ADD MSTORE PUSH1 0x11 PUSH1 0x24 DUP3 ADD MSTORE PUSH17 0x15DA5D1A191C985DD85B0819985A5B1959 PUSH1 0x7A SHL PUSH1 0x44 DUP3 ADD MSTORE PUSH1 0x64 SWAP1 REVERT INVALID LOG2 PUSH5 0x6970667358 0x22 SLT KECCAK256 SAR 0xAC SWAP2 JUMPI DUP4 0xE4 OR 0xA8 0xFC PUSH23 0x51DE0A8051BD986752ADE0E2E92261F66949C3F4F8EA64 PUSH20 0x6F6C634300081400330000000000000000000000 "},"methodIdentifiers":{"cancelDeal(uint256)":"31ea1a39","contribute(uint256)":"c1cbbca7","createDeal(string,uint256,uint256,uint256,uint256)":"544def14","dealParticipants(uint256,uint256)":"54eafaf3","deals(uint256)":"03988f84","domaFractionalization()":"51d3c9be","domaOwnershipToken()":"334882af","emergencyWithdraw()":"db2e21bc","getDealInfo(uint256)":"73a4415c","getDealParticipants(uint256)":"21dd7781","getParticipantInfo(uint256,address)":"99abff4b","getProposalVotes(uint256,bytes32)":"a7f39571","hasVoted(uint256,bytes32,address)":"a7fbb719","markDomainPurchased(uint256,uint256)":"d45b565e","owner()":"8da5cb5b","participants(uint256,address)":"02e060c6","proposalVotes(uint256,bytes32)":"9f228fc4","refund(uint256)":"278ecde1","renounceOwnership()":"715018a6","setDomaContracts(address,address)":"33ef534d","setFractionalToken(uint256,address)":"1dee21be","transferOwnership(address)":"f2fde38b","vote(uint256,bytes32)":"68bb8bb6","withdrawForPurchase(uint256,uint256)":"d9b9f905"}}}}}