{
  "_format": "hh-sol-artifact-1",
  "contractName": "CommunityDeal",
  "sourceName": "src/CommunityDeal.sol",
  "abi": [
    {
      "inputs": [
        {
          "internalType": "address",
          "name": "_domaOwnershipToken",
          "type": "address"
        },
        {
          "internalType": "address",
          "name": "_domaFractionalization",
          "type": "address"
        }
      ],
      "stateMutability": "nonpayable",
      "type": "constructor"
    },
    {
      "anonymous": false,
      "inputs": [
        {
          "indexed": true,
          "internalType": "uint256",
          "name": "dealId",
          "type": "uint256"
        },
        {
          "indexed": true,
          "internalType": "address",
          "name": "contributor",
          "type": "address"
        },
        {
          "indexed": false,
          "internalType": "uint256",
          "name": "amount",
          "type": "uint256"
        }
      ],
      "name": "ContributionMade",
      "type": "event"
    },
    {
      "anonymous": false,
      "inputs": [
        {
          "indexed": true,
          "internalType": "uint256",
          "name": "dealId",
          "type": "uint256"
        }
      ],
      "name": "DealCancelled",
      "type": "event"
    },
    {
      "anonymous": false,
      "inputs": [
        {
          "indexed": true,
          "internalType": "uint256",
          "name": "dealId",
          "type": "uint256"
        },
        {
          "indexed": false,
          "internalType": "string",
          "name": "domainName",
          "type": "string"
        },
        {
          "indexed": true,
          "internalType": "address",
          "name": "creator",
          "type": "address"
        },
        {
          "indexed": false,
          "internalType": "uint256",
          "name": "targetPrice",
          "type": "uint256"
        },
        {
          "indexed": false,
          "internalType": "uint256",
          "name": "deadline",
          "type": "uint256"
        }
      ],
      "name": "DealCreated",
      "type": "event"
    },
    {
      "anonymous": false,
      "inputs": [
        {
          "indexed": true,
          "internalType": "uint256",
          "name": "dealId",
          "type": "uint256"
        },
        {
          "indexed": false,
          "internalType": "uint256",
          "name": "tokenId",
          "type": "uint256"
        },
        {
          "indexed": false,
          "internalType": "address",
          "name": "fractionalToken",
          "type": "address"
        }
      ],
      "name": "DealExecuted",
      "type": "event"
    },
    {
      "anonymous": false,
      "inputs": [
        {
          "indexed": true,
          "internalType": "uint256",
          "name": "dealId",
          "type": "uint256"
        },
        {
          "indexed": false,
          "internalType": "uint256",
          "name": "totalAmount",
          "type": "uint256"
        }
      ],
      "name": "DealFunded",
      "type": "event"
    },
    {
      "anonymous": false,
      "inputs": [
        {
          "indexed": true,
          "internalType": "uint256",
          "name": "dealId",
          "type": "uint256"
        },
        {
          "indexed": false,
          "internalType": "uint256",
          "name": "tokenId",
          "type": "uint256"
        }
      ],
      "name": "DomainPurchased",
      "type": "event"
    },
    {
      "anonymous": false,
      "inputs": [
        {
          "indexed": true,
          "internalType": "address",
          "name": "previousOwner",
          "type": "address"
        },
        {
          "indexed": true,
          "internalType": "address",
          "name": "newOwner",
          "type": "address"
        }
      ],
      "name": "OwnershipTransferred",
      "type": "event"
    },
    {
      "anonymous": false,
      "inputs": [
        {
          "indexed": true,
          "internalType": "uint256",
          "name": "dealId",
          "type": "uint256"
        },
        {
          "indexed": true,
          "internalType": "address",
          "name": "participant",
          "type": "address"
        },
        {
          "indexed": false,
          "internalType": "uint256",
          "name": "amount",
          "type": "uint256"
        }
      ],
      "name": "RefundProcessed",
      "type": "event"
    },
    {
      "anonymous": false,
      "inputs": [
        {
          "indexed": true,
          "internalType": "uint256",
          "name": "dealId",
          "type": "uint256"
        },
        {
          "indexed": true,
          "internalType": "bytes32",
          "name": "proposalHash",
          "type": "bytes32"
        },
        {
          "indexed": true,
          "internalType": "address",
          "name": "voter",
          "type": "address"
        },
        {
          "indexed": false,
          "internalType": "uint256",
          "name": "shares",
          "type": "uint256"
        }
      ],
      "name": "VoteCast",
      "type": "event"
    },
    {
      "inputs": [
        {
          "internalType": "uint256",
          "name": "dealId",
          "type": "uint256"
        }
      ],
      "name": "cancelDeal",
      "outputs": [],
      "stateMutability": "nonpayable",
      "type": "function"
    },
    {
      "inputs": [
        {
          "internalType": "uint256",
          "name": "dealId",
          "type": "uint256"
        }
      ],
      "name": "contribute",
      "outputs": [],
      "stateMutability": "payable",
      "type": "function"
    },
    {
      "inputs": [
        {
          "internalType": "string",
          "name": "domainName",
          "type": "string"
        },
        {
          "internalType": "uint256",
          "name": "targetPrice",
          "type": "uint256"
        },
        {
          "internalType": "uint256",
          "name": "minContribution",
          "type": "uint256"
        },
        {
          "internalType": "uint256",
          "name": "maxParticipants",
          "type": "uint256"
        },
        {
          "internalType": "uint256",
          "name": "durationInDays",
          "type": "uint256"
        }
      ],
      "name": "createDeal",
      "outputs": [
        {
          "internalType": "uint256",
          "name": "",
          "type": "uint256"
        }
      ],
      "stateMutability": "nonpayable",
      "type": "function"
    },
    {
      "inputs": [
        {
          "internalType": "uint256",
          "name": "",
          "type": "uint256"
        },
        {
          "internalType": "uint256",
          "name": "",
          "type": "uint256"
        }
      ],
      "name": "dealParticipants",
      "outputs": [
        {
          "internalType": "address",
          "name": "",
          "type": "address"
        }
      ],
      "stateMutability": "view",
      "type": "function"
    },
    {
      "inputs": [
        {
          "internalType": "uint256",
          "name": "",
          "type": "uint256"
        }
      ],
      "name": "deals",
      "outputs": [
        {
          "internalType": "string",
          "name": "domainName",
          "type": "string"
        },
        {
          "internalType": "address",
          "name": "creator",
          "type": "address"
        },
        {
          "internalType": "uint256",
          "name": "targetPrice",
          "type": "uint256"
        },
        {
          "internalType": "uint256",
          "name": "minContribution",
          "type": "uint256"
        },
        {
          "internalType": "uint256",
          "name": "maxParticipants",
          "type": "uint256"
        },
        {
          "internalType": "uint256",
          "name": "currentAmount",
          "type": "uint256"
        },
        {
          "internalType": "uint256",
          "name": "participantCount",
          "type": "uint256"
        },
        {
          "internalType": "uint256",
          "name": "deadline",
          "type": "uint256"
        },
        {
          "internalType": "enum CommunityDeal.DealStatus",
          "name": "status",
          "type": "uint8"
        },
        {
          "internalType": "bool",
          "name": "purchased",
          "type": "bool"
        },
        {
          "internalType": "uint256",
          "name": "domainTokenId",
          "type": "uint256"
        },
        {
          "internalType": "address",
          "name": "fractionalTokenAddress",
          "type": "address"
        }
      ],
      "stateMutability": "view",
      "type": "function"
    },
    {
      "inputs": [],
      "name": "domaFractionalization",
      "outputs": [
        {
          "internalType": "address",
          "name": "",
          "type": "address"
        }
      ],
      "stateMutability": "view",
      "type": "function"
    },
    {
      "inputs": [],
      "name": "domaOwnershipToken",
      "outputs": [
        {
          "internalType": "contract IERC721",
          "name": "",
          "type": "address"
        }
      ],
      "stateMutability": "view",
      "type": "function"
    },
    {
      "inputs": [],
      "name": "emergencyWithdraw",
      "outputs": [],
      "stateMutability": "nonpayable",
      "type": "function"
    },
    {
      "inputs": [
        {
          "internalType": "uint256",
          "name": "dealId",
          "type": "uint256"
        }
      ],
      "name": "getDealInfo",
      "outputs": [
        {
          "internalType": "string",
          "name": "domainName",
          "type": "string"
        },
        {
          "internalType": "address",
          "name": "creator",
          "type": "address"
        },
        {
          "internalType": "uint256",
          "name": "targetPrice",
          "type": "uint256"
        },
        {
          "internalType": "uint256",
          "name": "currentAmount",
          "type": "uint256"
        },
        {
          "internalType": "uint256",
          "name": "participantCount",
          "type": "uint256"
        },
        {
          "internalType": "uint256",
          "name": "deadline",
          "type": "uint256"
        },
        {
          "internalType": "enum CommunityDeal.DealStatus",
          "name": "status",
          "type": "uint8"
        },
        {
          "internalType": "bool",
          "name": "purchased",
          "type": "bool"
        },
        {
          "internalType": "uint256",
          "name": "domainTokenId",
          "type": "uint256"
        },
        {
          "internalType": "address",
          "name": "fractionalTokenAddress",
          "type": "address"
        }
      ],
      "stateMutability": "view",
      "type": "function"
    },
    {
      "inputs": [
        {
          "internalType": "uint256",
          "name": "dealId",
          "type": "uint256"
        }
      ],
      "name": "getDealParticipants",
      "outputs": [
        {
          "internalType": "address[]",
          "name": "",
          "type": "address[]"
        }
      ],
      "stateMutability": "view",
      "type": "function"
    },
    {
      "inputs": [
        {
          "internalType": "uint256",
          "name": "dealId",
          "type": "uint256"
        },
        {
          "internalType": "address",
          "name": "participant",
          "type": "address"
        }
      ],
      "name": "getParticipantInfo",
      "outputs": [
        {
          "internalType": "uint256",
          "name": "contribution",
          "type": "uint256"
        },
        {
          "internalType": "bool",
          "name": "refunded",
          "type": "bool"
        },
        {
          "internalType": "uint256",
          "name": "shares",
          "type": "uint256"
        }
      ],
      "stateMutability": "view",
      "type": "function"
    },
    {
      "inputs": [
        {
          "internalType": "uint256",
          "name": "dealId",
          "type": "uint256"
        },
        {
          "internalType": "bytes32",
          "name": "proposalHash",
          "type": "bytes32"
        }
      ],
      "name": "getProposalVotes",
      "outputs": [
        {
          "internalType": "uint256",
          "name": "",
          "type": "uint256"
        }
      ],
      "stateMutability": "view",
      "type": "function"
    },
    {
      "inputs": [
        {
          "internalType": "uint256",
          "name": "",
          "type": "uint256"
        },
        {
          "internalType": "bytes32",
          "name": "",
          "type": "bytes32"
        },
        {
          "internalType": "address",
          "name": "",
          "type": "address"
        }
      ],
      "name": "hasVoted",
      "outputs": [
        {
          "internalType": "bool",
          "name": "",
          "type": "bool"
        }
      ],
      "stateMutability": "view",
      "type": "function"
    },
    {
      "inputs": [
        {
          "internalType": "uint256",
          "name": "dealId",
          "type": "uint256"
        },
        {
          "internalType": "uint256",
          "name": "tokenId",
          "type": "uint256"
        }
      ],
      "name": "markDomainPurchased",
      "outputs": [],
      "stateMutability": "nonpayable",
      "type": "function"
    },
    {
      "inputs": [],
      "name": "owner",
      "outputs": [
        {
          "internalType": "address",
          "name": "",
          "type": "address"
        }
      ],
      "stateMutability": "view",
      "type": "function"
    },
    {
      "inputs": [
        {
          "internalType": "uint256",
          "name": "",
          "type": "uint256"
        },
        {
          "internalType": "address",
          "name": "",
          "type": "address"
        }
      ],
      "name": "participants",
      "outputs": [
        {
          "internalType": "uint256",
          "name": "contribution",
          "type": "uint256"
        },
        {
          "internalType": "bool",
          "name": "refunded",
          "type": "bool"
        },
        {
          "internalType": "uint256",
          "name": "shares",
          "type": "uint256"
        }
      ],
      "stateMutability": "view",
      "type": "function"
    },
    {
      "inputs": [
        {
          "internalType": "uint256",
          "name": "",
          "type": "uint256"
        },
        {
          "internalType": "bytes32",
          "name": "",
          "type": "bytes32"
        }
      ],
      "name": "proposalVotes",
      "outputs": [
        {
          "internalType": "uint256",
          "name": "",
          "type": "uint256"
        }
      ],
      "stateMutability": "view",
      "type": "function"
    },
    {
      "inputs": [
        {
          "internalType": "uint256",
          "name": "dealId",
          "type": "uint256"
        }
      ],
      "name": "refund",
      "outputs": [],
      "stateMutability": "nonpayable",
      "type": "function"
    },
    {
      "inputs": [],
      "name": "renounceOwnership",
      "outputs": [],
      "stateMutability": "nonpayable",
      "type": "function"
    },
    {
      "inputs": [
        {
          "internalType": "address",
          "name": "_domaOwnershipToken",
          "type": "address"
        },
        {
          "internalType": "address",
          "name": "_domaFractionalization",
          "type": "address"
        }
      ],
      "name": "setDomaContracts",
      "outputs": [],
      "stateMutability": "nonpayable",
      "type": "function"
    },
    {
      "inputs": [
        {
          "internalType": "uint256",
          "name": "dealId",
          "type": "uint256"
        },
        {
          "internalType": "address",
          "name": "fractionalTokenAddress",
          "type": "address"
        }
      ],
      "name": "setFractionalToken",
      "outputs": [],
      "stateMutability": "nonpayable",
      "type": "function"
    },
    {
      "inputs": [
        {
          "internalType": "address",
          "name": "newOwner",
          "type": "address"
        }
      ],
      "name": "transferOwnership",
      "outputs": [],
      "stateMutability": "nonpayable",
      "type": "function"
    },
    {
      "inputs": [
        {
          "internalType": "uint256",
          "name": "dealId",
          "type": "uint256"
        },
        {
          "internalType": "bytes32",
          "name": "proposalHash",
          "type": "bytes32"
        }
      ],
      "name": "vote",
      "outputs": [],
      "stateMutability": "nonpayable",
      "type": "function"
    },
    {
      "inputs": [
        {
          "internalType": "uint256",
          "name": "dealId",
          "type": "uint256"
        },
        {
          "internalType": "uint256",
          "name": "amount",
          "type": "uint256"
        }
      ],
      "name": "withdrawForPurchase",
      "outputs": [],
      "stateMutability": "nonpayable",
      "type": "function"
    },
    {
      "stateMutability": "payable",
      "type": "receive"
    }
  ],
  "bytecode": "0x6080346100ca57601f62001c2e38819003918201601f19168301916001600160401b038311848410176100cf5780849260409485528339810103126100ca57610053602061004c836100e5565b92016100e5565b6001600081815581546001600160a01b0319808216339081179094556040519590946001600160a01b0394909385938416907f8be0079c531659141344cd1fd0a4f28419497f9722a3daafe3b4186f6b6457e09080a31683600654161760065516906007541617600755611b349081620000fa8239f35b600080fd5b634e487b7160e01b600052604160045260246000fd5b51906001600160a01b03821682036100ca5756fe608080604052600436101561001d575b50361561001b57600080fd5b005b60003560e01c90816302e060c6146117035750806303988f841461162c5780631dee21be146113f157806321dd778114611339578063278ecde11461115757806331ea1a391461100e578063334882af14610fe557806333ef534d14610f8e57806351d3c9be14610f65578063544def1414610bbe57806354eafaf314610b7457806368bb8bb614610980578063715018a61461092357806373a4415c146108635780638da5cb5b1461083a57806399abff4b146107c85780639f228fc414610795578063a7f3957114610795578063a7fbb71914610735578063c1cbbca714610458578063d45b565e1461035a578063d9b9f90514610271578063db2e21bc146101fb5763f2fde38b14610132573861000f565b346101f65760203660031901126101f65761014b611784565b610153611949565b6001600160a01b039081169081156101a257600154826001600160601b0360a01b821617600155167f8be0079c531659141344cd1fd0a4f28419497f9722a3daafe3b4186f6b6457e0600080a3005b60405162461bcd60e51b815260206004820152602660248201527f4f776e61626c653a206e6577206f776e657220697320746865207a65726f206160448201526564647265737360d01b6064820152608490fd5b600080fd5b346101f65760003660031901126101f657610214611949565b47801561023f57600080808061001b9460018060a01b03600154165af1610239611a8e565b50611abe565b60405162461bcd60e51b815260206004820152600a6024820152694e6f2062616c616e636560b01b6044820152606490fd5b346101f65761027f36611905565b906102886119bd565b6000526003602052604060002060ff600882015416906005821015610344576102b5600160059314611a13565b60018101546102d990336001600160a01b0391821614908115610336575b50611a51565b015481116102fc5760008080806102f594335af1610239611a8e565b6001600055005b60405162461bcd60e51b8152602060048201526012602482015271496e73756666696369656e742066756e647360701b6044820152606490fd5b9050600154163314856102d3565b634e487b7160e01b600052602160045260246000fd5b346101f65761036836611905565b6103706119bd565b816000526003602052604060002090600882019081549160ff831660058110156103445760016103a09114611a13565b60018401546103c390336001600160a01b039182161490811561044a5750611a51565b60ff8360081c16610411576101006020938360097f0239b12de3ce7c1fa4114ec34a7ddab14ecc19cc3d6c975c69136368e4c688d497015561ff001916179055604051908152a26001600055005b60405162461bcd60e51b8152602060048201526011602482015270105b1c9958591e481c1d5c98da185cd959607a1b6044820152606490fd5b9050600154163314876102d3565b6020806003193601126101f657600435906104716119bd565b8160005260038152604060002090600882019160ff8354166005811015610344576106fe5760078101544210156106ca57600381015434106106855760058101906104bd3483546119b0565b906002810191825410610649578560005260048452604060002033600052845260406000209081541561057f575b506104f73482546119b0565b90556105043483546119b0565b809255604051348152857f0a4a91237423e0a1766a761c7cb029311d8b95d6b1b81db1b949a70c98b4e08e853393a354811015610542576001600055005b7fc9dd6762e6024e1ec4c28eac8d4c8cc95bce152afd26092bcbf3a184e18b7c1392600160ff19825416179055604051908152a2808080806102f5565b6006810190600482549101548110156106045761059b906119a1565b9055856000526005845260406000208054680100000000000000008110156105ee576105cc9160018201815561191b565b81546001600160a01b0360039290921b91821b19163390911b179055866104eb565b634e487b7160e01b600052604160045260246000fd5b60405162461bcd60e51b815260048101879052601860248201527f4d6178207061727469636970616e7473207265616368656400000000000000006044820152606490fd5b60405162461bcd60e51b8152600481018590526014602482015273457863656564732074617267657420707269636560601b6044820152606490fd5b60405162461bcd60e51b815260048101839052601a60248201527f42656c6f77206d696e696d756d20636f6e747269627574696f6e0000000000006044820152606490fd5b60405162461bcd60e51b815260048101839052600c60248201526b1119585b08195e1c1a5c995960a21b6044820152606490fd5b60405162461bcd60e51b815260048101839052600f60248201526e4465616c206e6f742061637469766560881b6044820152606490fd5b346101f65760603660031901126101f6576044356001600160a01b038116908190036101f65760043560005260096020526040600020602435600052602052604060002090600052602052602060ff604060002054166040519015158152f35b346101f6576107a336611905565b9060005260086020526040600020906000526020526020604060002054604051908152f35b346101f65760403660031901126101f6576107e161176e565b600435600052600460205260406000209060018060a01b031660005260205260406000208054610836600260ff6001850154169301546040519384938460409194939260608201958252151560208201520152565b0390f35b346101f65760003660031901126101f6576001546040516001600160a01b039091168152602090f35b346101f65760203660031901126101f65760043560005260036020526108df604060002060018060a01b0390816001820154169060028101549260ff600583015460068401546007850154906008860154926108ca600988015496600a89015416976117f6565b986040519a8b9a610140808d528c019061189c565b9860208b015260408a01526060890152608088015260a087015261090860c087018383166118dc565b60081c16151560e08501526101008401526101208301520390f35b346101f65760003660031901126101f65761093c611949565b600180546001600160a01b031981169091556000906001600160a01b03167f8be0079c531659141344cd1fd0a4f28419497f9722a3daafe3b4186f6b6457e08280a3005b346101f65761098e36611905565b8160005260209160038352604060002060ff600882015416600581101561034457600203610b3b57600a01546001600160a01b031615610b015780600052600983526040600020826000528352604060002033600052835260ff60406000205416610acc5780600052600483526040600020336000528352600260406000200154928315610a96577f1a0d40d0aba9c3dd876aba44b7f6562cf64dc0cbc3bcf11afbebd67dafd32aae90826000526008815260406000208460005281526040600020610a5b8682546119b0565b90558260005260098152604060002084600052815260406000203360005281526040600020600160ff198254161790556040519485523394a4005b6064906040519062461bcd60e51b82526004820152600f60248201526e139bc81cda185c995cc81bdddb9959608a1b6044820152fd5b60405162461bcd60e51b815260048101849052600d60248201526c105b1c9958591e481d9bdd1959609a1b6044820152606490fd5b60405162461bcd60e51b8152600481018490526012602482015271139bdd08199c9858dd1a5bdb985b1a5e995960721b6044820152606490fd5b60405162461bcd60e51b81526004810185905260116024820152701119585b081b9bdd08195e1958dd5d1959607a1b6044820152606490fd5b346101f657610b8236611905565b906000526005602052604060002080548210156101f657602091610ba59161191b565b905460405160039290921b1c6001600160a01b03168152f35b346101f65760a03660031901126101f65767ffffffffffffffff6004358181116101f657366023820112156101f6578060040135610bfb816118e9565b91610c0960405193846117d4565b81835236602483830101116101f65781600092602460209301838601378301015260243515610f205760443515610edb5760016064351115610e9657608435151580610e89575b15610e5157610c606002546119a1565b80600255806000526003602052604060002082519384116105ee57610c85815461179a565b601f8111610e0d575b50602093601f8111600114610da8578091929394600091610d9d575b508160011b916000199060031b1c19161781555b60018101336001600160601b0360a01b82541617905560243560028201556044356003820155606435600482015560006005820155600060068201556201518092836084350293608435850414608435151715610d87577ff89674fb19c88c56fe15fa9c5879a3415b720f6e21b762f6e92f02167d84fe1f83916008610d46602097426119b0565b948560078201550161ffff198154169055610d6c6040519160608352606083019061189c565b936024358783015260408201528033940390a3604051908152f35b634e487b7160e01b600052601160045260246000fd5b905084015185610caa565b601f198116948260005260206000209060005b878110610df557508260019495969710610ddc575b5050811b018155610cbe565b86015160001960f88460031b161c191690558580610dd0565b9091602060018192858a015181550193019101610dbb565b816000526020600020601f860160051c810160208710610e4a575b601f830160051c82018110610e3e575050610c8e565b60008155600101610e28565b5080610e28565b60405162461bcd60e51b815260206004820152601060248201526f24b73b30b634b210323ab930ba34b7b760811b6044820152606490fd5b50605a6084351115610c50565b60405162461bcd60e51b815260206004820152601c60248201527f4d6178207061727469636970616e7473206d757374206265203e2031000000006044820152606490fd5b60405162461bcd60e51b815260206004820152601c60248201527f4d696e20636f6e747269627574696f6e206d757374206265203e2030000000006044820152606490fd5b60405162461bcd60e51b815260206004820152601860248201527f546172676574207072696365206d757374206265203e203000000000000000006044820152606490fd5b346101f65760003660031901126101f6576007546040516001600160a01b039091168152602090f35b346101f65760403660031901126101f657610fa7611784565b610faf61176e565b610fb7611949565b600680546001600160a01b039384166001600160a01b03199182161790915560078054929093169116179055005b346101f65760003660031901126101f6576006546040516001600160a01b039091168152602090f35b346101f65760203660031901126101f6576004356000818152600360205260409020600181015461105390336001600160a01b03918216149081156111495750611a51565b600881019081549060ff82166005811015610344576111045760078101544210908115916110f7575b50156110b25760ff191660031790557f31b0c01e8429f81903c3f8adc204767b8efa7cfca91a00f3b4bb40ce63c8a206600080a2005b60405162461bcd60e51b815260206004820152601e60248201527f4465616c20616374697665207769746820636f6e747269627574696f6e7300006044820152606490fd5b600591500154158461107c565b60405162461bcd60e51b815260206004820152601760248201527f43616e6e6f742063616e63656c2074686973206465616c0000000000000000006044820152606490fd5b9050600154163314846102d3565b346101f6576020806003193601126101f6576004356111746119bd565b806000526003825260406000209160048152604060002033600052815260406000209260ff6008820154169060058210156103445760038214918215611319575b5050156112de57825492831561129957600101805460ff81166112615760ff19166001179055600080808086335af16111ec611a8e565b5015611224577f79ff6a60b3e21b3630b207e2a7b0b50b69b197d3d7ca776108ed2afb8fbac8dc906040519384523393a36001600055005b6064906040519062461bcd60e51b8252600482015260166024820152751499599d5b99081d1c985b9cd9995c8819985a5b195960521b6044820152fd5b60405162461bcd60e51b815260048101849052601060248201526f105b1c9958591e481c99599d5b99195960821b6044820152606490fd5b60405162461bcd60e51b815260048101839052601960248201527f4e6f20636f6e747269627574696f6e20746f20726566756e64000000000000006044820152606490fd5b6064906040519062461bcd60e51b825260048201526014602482015273526566756e64206e6f7420617661696c61626c6560601b6044820152fd5b1591508161132a575b5084806111b5565b60079150015442101584611322565b346101f6576020806003193601126101f65760043560005260058152604060002060405190818382549182815201908192600052846000209060005b868282106113d457868661138b828803836117d4565b604051928392818401908285525180915260408401929160005b8281106113b457505050500390f35b83516001600160a01b0316855286955093810193928101926001016113a5565b83546001600160a01b031685529093019260019283019201611375565b346101f65760403660031901126101f65760043561140d61176e565b8160005260209060038252604060002060088101805460ff8160081c16156115f0576001838101546001600160a01b0393908416331480156115e4575b61145390611a51565b600a85018054968588166115b15785909493941680976001600160601b0360a01b161790556002809260ff19161790558660005260059283875260406000206040519081898254918281520191600052896000209060005b8b82821061159c5750505050946114c882869796959603836117d4565b6000858801945b61150b575b8a7f0b2ecc77d468f0fcfdc9a0c456e32f072c63659008b1b9413b5f0111eb3470c760408c8c60098d0154918351928352820152a2005b825181101561159757838a82841b8501015116908b60005260048b526040600020826000528b5260406000205461271090818102918183041490151715610d875786549081156115815761157b9360048f8f90600052526040600020906000528d520487604060002001556119a1565b866114cf565b634e487b7160e01b600052601260045260246000fd5b6114d4565b835487168552909301929187019187016114ab565b60405162461bcd60e51b8152600481018a9052600b60248201526a105b1c9958591e481cd95d60aa1b6044820152606490fd5b5081548416331461144a565b60405162461bcd60e51b8152600481018690526014602482015273111bdb585a5b881b9bdd081c1d5c98da185cd95960621b6044820152606490fd5b346101f65760203660031901126101f65760043560005260036020526116b36040600020611659816117f6565b9060018060a01b03806001830154169160ff600282015492600383015460048401546005850154600686015491600787015493600888015495600a60098a015499015416986040519c8d9c8d61018090818152019061189c565b9a60208d015260408c015260608b015260808a015260a089015260c088015260e08701526116e761010087018383166118dc565b60081c1615156101208501526101408401526101608301520390f35b346101f65760403660031901126101f65761171c61176e565b600435600052600460205260406000209060018060a01b0316600052602052806108366040600020805490600260ff600183015416910154918460409194939260608201958252151560208201520152565b602435906001600160a01b03821682036101f657565b600435906001600160a01b03821682036101f657565b90600182811c921680156117ca575b60208310146117b457565b634e487b7160e01b600052602260045260246000fd5b91607f16916117a9565b90601f8019910116810190811067ffffffffffffffff8211176105ee57604052565b906040519182600082549261180a8461179a565b9081845260019485811690816000146118795750600114611836575b5050611834925003836117d4565b565b9093915060005260209081600020936000915b81831061186157505061183493508201013880611826565b85548884018501529485019487945091830191611849565b91505061183494506020925060ff191682840152151560051b8201013880611826565b919082519283825260005b8481106118c8575050826000602080949584010152601f8019910116010190565b6020818301810151848301820152016118a7565b9060058210156103445752565b67ffffffffffffffff81116105ee57601f01601f191660200190565b60409060031901126101f6576004359060243590565b80548210156119335760005260206000200190600090565b634e487b7160e01b600052603260045260246000fd5b6001546001600160a01b0316330361195d57565b606460405162461bcd60e51b815260206004820152602060248201527f4f776e61626c653a2063616c6c6572206973206e6f7420746865206f776e65726044820152fd5b6000198114610d875760010190565b91908201809211610d8757565b6002600054146119ce576002600055565b60405162461bcd60e51b815260206004820152601f60248201527f5265656e7472616e637947756172643a207265656e7472616e742063616c6c006044820152606490fd5b15611a1a57565b60405162461bcd60e51b815260206004820152600f60248201526e1119585b081b9bdd08199d5b991959608a1b6044820152606490fd5b15611a5857565b60405162461bcd60e51b815260206004820152600e60248201526d139bdd08185d5d1a1bdc9a5e995960921b6044820152606490fd5b3d15611ab9573d90611a9f826118e9565b91611aad60405193846117d4565b82523d6000602084013e565b606090565b15611ac557565b60405162461bcd60e51b815260206004820152601160248201527015da5d1a191c985dd85b0819985a5b1959607a1b6044820152606490fdfea26469706673582212201dac915783e417a8fc7651de0a8051bd986752ade0e2e92261f66949c3f4f8ea64736f6c63430008140033",
  "linkReferences": {},
  "deployedLinkReferences": {}
}